:100000000C941A040C9461040C9461040C94B910BF
:100010000C9461040C9461040C9461040C946104CC
:100020000C9461040C9461040C944B240C941F25D3
:100030000C94781D0C9461040C9461040C9461047C
:100040000C9461040C9461040C9461040C9461049C
:100050000C9461040C94DE1D0C9461040C946104F6
:100060000C9461040C9461040C9461040C9461047C
:100070000C9461040C9461040C9461040C9461046C
:100080000C9461040C9461040C9461040C9461045C
:100090000C94A40F0C9461040C9461040C946104FE
:1000A0000C9461040C9461040C9461040000000041
:1000B00000003E5B4F5B3E003E6B4F6B3E001C3EC4
:1000C0007C3E1C00183C7E3C18001C577D571C00D1
:1000D0001C5E7F5E1C0000183C180000FFE7C3E7B1
:1000E000FF00001824180000FFE7DBE7FF0030489E
:1000F0003A060E00262979292600407F05050700CB
:10010000407F05253F005A3CE73C5A007F3E1C1CBF
:100110000800081C1C3E7F0014227F2214005F5F31
:10012000005F5F0006097F017F00006689956A0015
:1001300060606060600094A2FFA2940008047E04E6
:10014000080010207E20100008082A1C0800081C47
:100150002A0808001E10101010000C1E0C1E0C00A7
:1001600030383E383000060E3E0E0600000000001B
:10017000000000005F000000000700070000147F7F
:10018000147F1400242A7F2A1200231308646200BB
:10019000364956205000000807030000001C224189
:1001A00000000041221C00002A1C7F1C2A000808B5
:1001B0003E080800008070300000080808080800A9
:1001C0000000606000002010080402003E51494514
:1001D0003E0000427F4000007249494946002141EB
:1001E000494D33001814127F10002745454539004A
:1001F0003C4A494931004121110907003649494922
:100200003600464949291E00000014000000004045
:1002100034000000000814224100141414141400C7
:100220000041221408000201590906003E415D59AF
:100230004E007C1211127C007F49494936003E4134
:10024000414122007F4141413E007F4949494100EF
:100250007F09090901003E41415173007F080808E8
:100260007F0000417F4100002040413F01007F08A6
:10027000142241007F40404040007F021C027F006A
:100280007F0408107F003E4141413E007F0909097B
:1002900006003E4151215E007F091929460026498A
:1002A0004949320003017F0103003F4040403F00C5
:1002B0001F2040201F003F4038403F0063140814B7
:1002C00063000304780403006159494D4300007F33
:1002D00041414100020408102000004141417F00DB
:1002E00004020102040040404040400000030708AF
:1002F00000002054547840007F284444380038449B
:1003000044442800384444287F003854545418008A
:1003100000087E0902001824241C78007F080404C9
:10032000780000447D4000002040403D00007F10E8
:100330002844000000417F4000007C0478047800DD
:100340007C08040478003844444438007C18242491
:100350001800182424187C007C0804040800485461
:100360005454240004043F4424003C4040207C00BA
:100370001C2040201C003C4030403C0044281028F9
:1003800044004C9090907C004464544C440000081D
:1003900036410000000077000000004136080000F0
:1003A0000201020402003C2623263C00000000005B
:1003B000000000000000000000000000C0E0F0F8B5
:1003C000F81800C0F0FCFEFFFFFFFFFFFFFF7E00FC
:1003D000000000000000000080C0E0E0E0E0E0E09D
:1003E000E0E0C0800000000080C0E0E0E0E0E0E08D
:1003F000E0E0C080000000E0E0C0C0E0E0E0E0003D
:1004000000E0E0C0C0E0E0E0E0E0C080000000000C
:1004100080C0E0E0E0E0E0E0E0E0C080000000005C
:1004200000000000000000000000E0F0F0F0E0EC50
:10043000EEF7F37020007C7C7C7E007E7E7E7F7FEA
:100440007F000080C0E07E5B4F5BFEC00000C0000C
:10045000DCD7DEDEDED7DC00C000000000000000DC
:10046000000000000000000000000000000000008C
:100470000000000000F8FCFEFFE000FFFFFFFFFFB0
:10048000FF80FFFFFFFFFFFFFFFFFF1F07010000CF
:1004900000000000000000FFFFFF810000000000DE
:1004A0000081C3C3C30000FFFFFF81000000000004
:1004B0000081FFFFFF0000FFFFFF010000000000C0
:1004C00000FFFFFF010000000001FFFFFF0000FF31
:1004D000FFFF9D1C1C1C1C1C1C9DDFDFDF0000009F
:1004E000000000000000000000000F1F3F7F7F7F22
:1004F0007F7F3F1E0C001F1F1F3F003F3F3F7F7F3E
:100500007F00307B7F7830202030787F3B000300F5
:100510000F7F0F0F0F7F0F0003000000000000008F
:1005200000000000000000000000000000000000CB
:100530000000000000030F1F3F3F3F3F1F1F3F3FD2
:100540007F7F7F3F3F1F3F7F7F7F7F7C7878381C96
:100550000F0000000000000001030707070707075E
:10056000070703010000000001030707070707074B
:100570000707030100000007070700000000000054
:100580000007070700000000000007070700000041
:10059000010307070707070707070301000000001B
:1005A000000000000000000000000000000000004B
:1005B000000000000000000000000000000000003B
:1005C000000000000000000000000000000000002B
:1005D000000000000000000000000000000000001B
:1005E0000000000000000000000000002B001400CC
:1005F0001A00080015001700E300040016000700A9
:1006000009000A00E1001D001B000600190005009A
:10061000000000000000025101512900E400130015
:1006200012000C0018001C00340033000F000E00F4
:100630000D000B00E50038003700360010001100F7
:10064000000000000000E70028002C002B001E0026
:100650001F00200021002200E30004011601070111
:1006600009010A01E100E0001B010601430719012D
:10067000000000000000025101510F553100270019
:100680002600250024002300E30030022F02300062
:100690002F003500E500E400000000002E002D00D2
:1006A000000000000000000045142A0045003A0048
:1006B0003B003C003D003E00E3003A0F3B0F3C0F87
:1006C0003D0F3E0FE100E000E200000000000000EE
:1006D00000000000000002510151000044004300EE
:1006E0004200410040003F00E700430F4F0052002E
:1006F00051005000E500E400E600451800004014F9
:1007000000000000000000000000000004033000B2
:1007100000002E0343006F0072006E006500200091
:100720004B006500790062006F0061007200640098
:1007300020002800630072006B0062006400290042
:100740000000100366006F006F007300740061000A
:100750006E0000000403090409023B00020100A02E
:10076000FA0904000001030101000921110100013F
:100770002240000705810308000A09040100010363
:10078000000000092111010001224F00070582032A
:1007900020000A1201100100000008EDFE60300187
:1007A000000102030105010902A10185020901A15D
:1007B0000005091901290515002501950575018117
:1007C0000295017503810105010930093115812563
:1007D0007F95027508810609381581257F95017579
:1007E000088106050C0A38021581257F95017508D8
:1007F0008106C0C005010906A101050719E029E726
:100800001500250195087501810295017508810182
:100810000507190029FF150026FF009506750881B8
:1008200000050819012905950575019102950175C5
:10083000039101C011241FBECFEFDAE0DEBFCDBFB0
:1008400004B603FE27C08091FA039091FB03A091A8
:10085000FC03B091FD038730904BA740B04BD1F41F
:100860001092FA031092FB031092FC031092FD0306
:1008700014BE84B7877F84BF0FB6F894A895809183
:100880006000886180936000109260000FBEE0E01D
:10089000F8E3099512E0A0E0B1E0EEEEF4E502C065
:1008A00005900D92AA37B107D9F723E0AAE7B2E085
:1008B00001C01D92AA3FB207E1F70E947C210C946F
:1008C0004D2A0C940000CF93C82F88E70E94620F36
:1008D000882311F0C0E00BC080E00E94950F8111C9
:1008E000F9CF8C2F0E94950FC1E08111F3CF0E94A8
:1008F000890F8C2FCF910895CF93C62F0E94630448
:10090000882321F08C2FCF910C94630480E0CF9149
:100910000895CF93C62F0E946304882349F080E096
:100920000E946304882321F08C2FCF910C946304E0
:1009300080E0CF9108958EEA0C9463048FEA0C94C2
:1009400063040F931F93CF93DF93EC018C010C5A38
:100950001F4FD801ED91FC91119760838D919C916F
:10096000119701968D939C938C1B9D0B843591055B
:10097000B9F4BE016B5E7F4F4FE350E0CE010E94A1
:100980000C27CE01CF96F8019183808345E150E09A
:1009900060E270E0DF91CF911F910F910C941E27C0
:1009A000DF91CF911F910F9108951F93CF93DF9304
:1009B000EC01FC01EA5AFF4F81E080836A30B1F418
:1009C0003297808191818C1B9D0B65E170E00E94C4
:1009D000D126182F153120F0DF91CF911F91089566
:1009E00060E2CE010E94A1041F5FF4CFCE01DF912F
:1009F000CF911F910C94A104EF92FF920F931F933C
:100A0000CF93DF937C01EB01FB0101900020E9F71C
:100A10008F0101501109C017D10738F0DF91CF9134
:100A20001F910F91FF90EF9008956991C7010E9467
:100A3000D504F1CFCF92DF92EF92FF920F931F93E5
:100A4000CF93DF93CDB7DEB77C010DB71EB7DB01C7
:100A50000D900020E9F7CD01861B970B01962DB76D
:100A60003EB7281B390B0FB6F8943EBF0FBE2DBF03
:100A7000ADB7BEB711966D017F936F9320E731E05C
:100A80003F932F939F938F93DF92AF930E942C27D6
:100A9000B601C7010E94FC042DB73EB7285F3F4F47
:100AA0000FB6F8943EBF0FBE2DBF0FB6F8941EBF11
:100AB0000FBE0DBFDF91CF911F910F91FF90EF906F
:100AC000DF90CF900895CF93DF93EC0144E550E0A1
:100AD00060E270E00E941E27FE01EC5AFF4FD183B6
:100AE000C083CA5ADF4F81E08883DF91CF91089598
:100AF0007F928F929F92AF92BF92CF92DF92EF92AE
:100B0000FF920F931F93CF93DF938C010E94A81D38
:100B100090937B0280937A020E949E0463E082E2BB
:100B20000E9489048823C9F16DE781E20E9489044B
:100B3000882399F188E70E94620F81112EC080E41A
:100B40000E94950F811129C07801480184E5880E23
:100B5000911C96E0792E5701D12CF501C1915F01CE
:100B6000C79DE0011124C455DF4F86E0C82EFE0169
:100B700084910E94950FCA942196C110F8CFD39406
:100B8000F5E1DF12EACF85E1E80EF11C8E149F0437
:100B900011F7F801EA5AFF4F1082DF91CF911F91B0
:100BA0000F91FF90EF90DF90CF90BF90AF909F900C
:100BB0008F907F900C94890F86E693E00C947805D3
:100BC0001F93CF93DF93C82F0E945C0F8EEA0E9481
:100BD0006304811106C0C0E08C2FDF91CF911F917B
:100BE000089560E885ED0E947C048823A1F36FE1FD
:100BF00088EA0E947C04882371F360E083ED0E9400
:100C00007C04882341F380E40E946304882319F361
:100C100064E18DE80E947C048823E9F260E080E2D0
:100C20000E947C048823B9F2CC2309F465C080EAD1
:100C30000E946304882379F280EC0E946304882375
:100C400051F262E08AED0E947C04882321F26FE871
:100C500081E80E947C04882309F4BDCF61EF89ED0F
:100C60000E947C04882309F4B6CF60E48BED0E94D7
:100C70007C04882309F4AFCF84EA0E9463048823AC
:100C800009F4A9CF86EA0E946304882309F4A3CF5C
:100C90008EE20E946304882309F49DCF8FEA0E94AC
:100CA0006304882309F497CF60E081E80E947C0404
:100CB000C82F882309F48FCF86E693E00E9463054E
:100CC00063E082E20E948904882389F06FE781E271
:100CD0000E948904882359F088E70E94620F8111DD
:100CE00006C080E40E94950F14E08823A9F00E94BA
:100CF000890F0E94DC0570CF81EA0E94630488237B
:100D000009F469CF88EC99CF80E00E94950FDF5FEE
:100D1000D038D1F7115011F0D0E0F6CF1092BC03CB
:100D2000E6CF0E942B0A8091BC03811104C0809100
:100D30000001882321F00E94DC05109200018091BF
:100D40007A0290917B020E94B41D81369A4E10F077
:100D50000C949B04089581E0809300010895CF9343
:100D6000DF93AAE7B1E04EE751E0C1E0D0E08D911A
:100D7000E82FE295EF70F0E061A18F709E0101C055
:100D8000220F8A95EAF7922F9095962391A382A13C
:100D9000822B82A34A175B0751F7DF91CF91089509
:100DA0000C94F009559A209A5D9A289A08955D98B6
:100DB00008955D9A089528980895289A08950E94A4
:100DC00081080E94AF06A4E7B1E061E070E08D9178
:100DD000E82FE295EF70F0E041A18F709B0101C018
:100DE000220F8A95EAF7922F9095942391A382A1DE
:100DF000822B82A381E0AA37B80749F70E94D20666
:100E0000E4E8F2E0ACE7B2E011921D9282E0EC3847
:100E1000F807D1F70E94630880938C020C94DF0AD4
:100E20009F92AF92BF92CF92DF92EF92FF920F9379
:100E30001F93CF93DF9380910201C4E0D0E0882319
:100E400011F0D0E0C0E08AE7C82E81E0D82EAE01D4
:100E500044585D4F7A018A01AA24A394B12C25E05D
:100E6000922EF60181916F01E82FE295EF70F0E08C
:100E700021A18F70A50102C0440F551F8A95E2F78A
:100E8000CA01922F982B91A392A18095892382A3C6
:100E900050EA5A95F1F7E4E7F1E020E050E040E055
:100EA0003191A32FA295AF70B0E090968C9190E015
:100EB0003F7002C0959587953A95E2F780FD39C05D
:100EC000C501042E01C0880F0A94EAF7282B4F5F52
:100ED0005F4F4630510521F7F8018081821719F0E4
:100EE0002083909201010E94AF060F5F1F4FFEE723
:100EF000CF16F1E0DF0609F0B4CF8091010188231D
:100F000059F08150809301018823A9F08FE99FE077
:100F10000197F1F700C0000081E0DF91CF911F91B0
:100F20000F91FF90EF90DF90CF90BF90AF909F9088
:100F3000089580E0CBCFCC57DD4FF70191917F0131
:100F400099938F5F8430C9F7E7CF0F931F93CF93A7
:100F5000DF932091020110E000E0222311F004E071
:100F600010E00E949C08EC01009739F0029711F400
:100F70000E94DB06C1E0D0E011C00E94DD06F8014E
:100F8000EC57FD4F8091980290919902A0919A029E
:100F9000B0919B0280839183A283B383CE01DF91C2
:100FA000CF911F910F9108950E9410078091020127
:100FB000E4E0F0E0882311F0F0E0E0E0EC57FD4FD2
:100FC00090E080E020E0DC01A856BD4F4C913191CB
:100FD000431321E03C93019684309105A1F7809161
:100FE0009102820F809391020895CF93DF938091B5
:100FF0008C02882309F445C00E94100780910201E9
:10100000C4E0D0E0882311F0D0E0C0E0CC57DD4F41
:1010100044E050E0BE0184E992E00E94FF2648814E
:1010200059816A817B814093940250939502609329
:101030009602709397020E94A507892BE9F00E94FF
:10104000D70680918D028F5F80938D02863070F07D
:1010500080910201F0E0E0E0882311F0E4E0F0E0AC
:10106000EC57FD4F10821182128213820E94E70A10
:1010700081E0DF91CF9108950E94D90610928D02F0
:10108000F5CF0E94D40780910201811112C090E037
:1010900080E08C579D4F4091940250919502609151
:1010A000960270919702FC0140835183628373839F
:1010B000DDCF84E090E0EDCFE82FF0E0EC57FD4F7E
:1010C00080810895089580918E02811111C08091D0
:1010D000D80080618093D8008AE18A95F1F700C03A
:1010E0009091D900892F817090FF82E080938E02C9
:1010F00081E090918E02913009F080E008950C9487
:1011000063080E947F08809302010E94630888237D
:1011100021F00E949008789408950E949608FBCFD1
:1011200063E070E083E091E00C94661063E070E0AF
:1011300083E091E00C946F100F931F93CF93DF9394
:101140008C0190911C0180911B01D0E0C0E09817A8
:1011500059F082E090E00E944811EC01892B21F4C3
:1011600080911B0180931C0180918F0290919002CD
:10117000082B192B90E080E0012B11F081E090E02A
:101180000E944811892B71F48091910280931B0178
:101190001092900210928F02CE01DF91CF911F9199
:1011A0000F91089581E090E09093900280938F02D8
:1011B000F3CF80913A0390913B03A0913C03B0910F
:1011C0003D0384309105A105B105E1F128F50097B3
:1011D000A105B10571F16EE971E082309105A105BB
:1011E000B10549F1BF93AF939F938F9389EB91E042
:1011F0009F938F931F9288E18F938DEB93E09F9342
:101200008F930E942C278DB79EB70A960FB6F8943D
:101210009EBF0FBE8DBF13C088309105A105B105DB
:1012200029F08E309105A105B105E1F66BEA71E078
:1012300002C062E871E08DEB93E00E9425278DEB00
:1012400093E0089561E971E0F6CF8DE191E00895B2
:10125000CF93C0E28C33910520F4FC01E552FE4FA0
:10126000C0811F92CF939F938F93FB0180811F9228
:101270008F9381811F928F938AEC91E09F938F933C
:101280001F9288E18F9383EB92E09F938F930E944C
:101290002C278DB79EB70E960FB6F8949EBF0FBE43
:1012A0008DBF80919C0290919D02449761F41092B1
:1012B0009D0210929C02EEE9F2E080E2819392E0BE
:1012C000E23BF907D9F780919C0290919D02FC01C5
:1012D000E256FD4FC083019690939D0280939C023D
:1012E000CF91089583EB92E008950F931F93CF93CE
:1012F000DF93EC018B010E94AB06882351F0B8010B
:10130000CE010E944F0A8170DF91CF911F910F9102
:10131000089580E0F8CF0C94EA09CF93DF93EC01B5
:101320000E944A1CBE0190E080E0DF91CF910C94B6
:101330009E198F929F92AF92BF92CF92DF92EF92BF
:10134000FF920F931F93C12CD12C7601C394970168
:10135000860104C0000F111F221F331F6A95D2F7A8
:101360004601570104C0880C991CAA1CBB1C8A9515
:10137000D2F7D501C401802B912BA22BB32B009166
:101380003A0310913B0320913C0330913D03082325
:1013900019232A233B2380179107A207B30769F477
:1013A000842F1F910F91FF90EF90DF90CF90BF900F
:1013B000AF909F908F900C94001A842F1F910F91E3
:1013C000FF90EF90DF90CF90BF90AF909F908F9065
:1013D0000C94211A0E94630891E089270C94E0057F
:1013E0000C949106CF93DF93EC0180918C028823BB
:1013F00071F00E94D908BC01CE010E941A050E941A
:101400007209BC01CE01DF91CF910C941A050E94A4
:101410002509BC01CE01DF91CF910C94FC040F9300
:101420001F93CF93DF93EC018B0144E550E00E94C2
:10143000FF26892B59F084E5F801DE0101900D9219
:101440008A95E1F7CA5ADF4F81E08883DF91CF9117
:101450001F910F910895CF93DF93CDB7DEB7C75596
:10146000D1090FB6F894DEBF0FBECDBFCE010196F5
:101470000E946305CE0101960E94F209BE016F5FD2
:101480007F4F86E693E00E940F0AC95ADF4F0FB6DE
:10149000F894DEBF0FBECDBFDF91CF9108950F93BB
:1014A0001F93CF93DF93EC018B01FB018281882393
:1014B00019F0CE010E942809C930FDE5DF0741F18E
:1014C00070F4C33CECE5DE0709F1C830DD45B1F04E
:1014D000C1E08C2FDF91CF911F910F910895CA30F9
:1014E0008DE5D80711F1CB30DD4591F7F801C281C8
:1014F00083E0CC2331F10E94001A08C0F801C281B8
:10150000CC2339F381E090E00E948D09C0E0E1CF67
:10151000F801C28181E0CC2361F00E94001A43E00F
:1015200062E081E00E949909F1CFF801C28182E076
:10153000F2CF0E94211A43E062E081E00E94990903
:10154000C8CF0E94211AC5CF81E008951F93CF9381
:10155000DF9300D000D00F92CDB7DEB749835A8316
:101560006B832091E30289819A8121111BC066233C
:10157000A9F00E94F31A182F682F89819A810E947E
:101580009C1A69817A81812F0F900F900F900F9094
:101590000F90DF91CF911F910C944D0B0E94CA1AAE
:1015A000182FEFCF0E94F31A69817A81EDCFFC01E9
:1015B000408151816281738184810C94A60A0E94CA
:1015C000371C811102C00E94D91C0C948B090C9409
:1015D000D00608950C94E90A81E008950C94EC0A71
:1015E000CF93C82F0E94EA0A8C2FCF910C94EE0A59
:1015F00008950E94F2150E94F80A2FEF84E39CE000
:10160000215080409040E1F700C0000087E797E755
:1016100090930108809300080C94021E0F931F936F
:10162000CF93DF93EC010E94D70A8C01BE010E9488
:101630007509882329F1BE01C8010E94C50D8823C0
:10164000F9F0BE01C8010E94060E8823C9F0BE0150
:10165000C8010E94290F882399F08A81882339F0D4
:1016600001158CE5180751F00E3D1C4579F0CE01AF
:10167000DF91CF911F910F910C94A40A0E94F90A57
:1016800080E0DF91CF911F910F9108950E94D91CA6
:10169000F7CF90E080E008950895972F70E026E05E
:1016A000929F600D711D1124FB0190E3899FE00D55
:1016B000F11D1124EE0FFF1FE451FA4F8591949113
:1016C0000895FC01EE0FFF1FE45FF84F85919491A0
:1016D0000895CF93DF930E944D0B0E947E0CEC0186
:1016E000811520E5920708F042C0811530E4930788
:1016F00008F0BDC0883E910528F5803E910508F0B0
:101700009DC0883A910588F4853A910508F08FC00C
:101710008130910509F492C0009709F48FC00497B5
:1017200008F08CC0D0E0C0E089C08F3B910508F480
:1017300089C0805C9109C03CD105A0F30E94610B77
:10174000EC017CC08115904250F4C11581E0D807AE
:1017500008F074C0C03FD10528F3D0656FC0C11533
:1017600090E3D90708F079C0CE019F70E7CF8115CB
:1017700025E5920758F5811534E5930708F0A6C0D2
:10178000811542E5940750F4C11581E5D80708F4A6
:1017900071C0DC2FCC27C16FD06A50C0982F9695AE
:1017A00096959E0123703327C115D34508F07FC05D
:1017B000C1E0D0E002C0CC0FDD1F2A95E2F720E2A5
:1017C000929FC0011124C82BD92B6FC0C11589E588
:1017D000D807A8F4C11598E5D90708F07CC0C11551
:1017E00026E5D20708F09ECF8C2F0E94150DC82F3A
:1017F000D0E0DC2FCC27CC27DF71D0621FC0C11511
:101800003AE5D30708F46CC0CE019056811590429A
:1018100008F088CF8D2F8F710E94150D90E0982FC2
:10182000882788279F719C012C2BE901E6CFC55A98
:10183000D0E0CB5BDD4FC881D0E0D064CE01DF913A
:10184000CF910895C85AD0E0CC0FDD1FC95EDD4F9F
:101850000990D881C02DD464F1CFCE019927D3FF50
:1018600003C0EC01D86CEACFEC01D06CE7CFDF709D
:10187000D06AE4CFCE01E4E096958795EA95E1F74A
:1018800083702C2F26952695237090E2299F900136
:101890001124382B8C2F8370C1E0D0E002C0CC0F14
:1018A000DD1F8A95E2F7C22BD32BDC68C7CFC1E0DE
:1018B000D0E002C0CC0FDD1F2A95E2F730E2939F03
:1018C000C0011124C82BD92BDA68B8CFD82FCC2768
:1018D000C46FD06AB3CFDC2FCC27C06FD06AAECF35
:1018E0008C2F8F700E94150D34E0D695C7953A95D0
:1018F000E1F7CF709C2FEC01D069A0CF8238910521
:10190000B1F1B0F48133910509F475C048F489321E
:10191000910509F469C08A32910509F473C00895EC
:101920008533910509F459C08933910501F1089572
:10193000833E9105A9F138F4803E9105F9F0823E8D
:10194000910549F10895863E9105A9F1873E9105DB
:10195000C9F1843E910519F52091EC0321FF1FC0C8
:101960008091EB0384FD14C087EE90E008952091F0
:10197000EB032370A1F080EE90E008952091EB033B
:1019800020FD47C03091EC0330FF09C024FF44C064
:1019900090E080E004C02091EB0322FDF7CF089592
:1019A0002091EB0322FD3BC03091EC0330FDE3CFEF
:1019B00024FFF5CFEDCF2091EB0323FFF0CF24FDE3
:1019C000E7CFD2CF2091EB0323FD2CC03091EC0365
:1019D00031FFEECF84EE90E008952091EB0325FFD8
:1019E000DECF89E290E008952091EB0325FFD7CF69
:1019F00085E390E008952091EB0326FFD0CF8AE2A3
:101A000090E008952091EB0326FFC9CF81E390E099
:101A1000089589E390E0089583EE90E0089582EEC2
:101A200090E0089586EE90E008959091EB0392FF88
:101A300006C0282F28712830F9F4877F846093FF2F
:101A400006C0282F28712831F1F4877E8461209107
:101A5000EC0320FF06C0382F38713830D9F4877F67
:101A6000816021FF06C0282F28712831D1F4877E9C
:101A7000816194FD877E0895282F24712430F9F622
:101A80008B7F8860DCCF282F2471243101F78B7E77
:101A90008861DDCF382F3171313019F78E7F886042
:101AA000E0CF282F2171213121F78E7E8861E1CF8F
:101AB0000F931F93CF93DF93C62FD42F022FFC01D8
:101AC00082818823C9F06093CD020E94A81D909363
:101AD000CC028093CB0280E28C0F883008F050C09B
:101AE000C77081E001C0880FCA95EAF7DF91CF91F6
:101AF0001F910F910C947C131091CD02161335C0D9
:101B00008091CB029091CC020E94B41D8436910545
:101B100060F5C0E2CD0F1D17B9F080E2810F88306B
:101B200040F4177081E001C0880F1A95EAF70E940F
:101B30008313C83048F481E09D2F977001C0880F4F
:101B40009A95EAF70E947C13802F0E946913C8308F
:101B5000B8F4D77081E001C0880FDA95EAF7DF9119
:101B6000CF911F910F910C94831380E28C0F8830DA
:101B700038F4C77081E001C0880FCA95EAF7EFCF4B
:101B8000DF91CF911F910F9108959C01CB01233FCD
:101B90004CE5340731F190F4283DFCE53F07E9F0CE
:101BA000293D4CE5340769F1273D3C4579F426E2AF
:101BB00041EE61EE0E94580D80E00895253FFCE55E
:101BC0003F07B9F090F0263F3C45B9F0FC01828117
:101BD0008823D1F01092CD02089527E245EE65EEFC
:101BE000E9CF26E241EE60EEE5CF27E245EE64EE76
:101BF000E1CF26E241EE62EEDDCF27E245EE66EE72
:101C0000D9CF28E241E0EBCF81E00895CF93DF9375
:101C1000EC01FB018281882309F419C1C230FCE583
:101C2000DF07C0F1C6319CE5D90730F09E012A5F7D
:101C30003C452930310570F50E944F1C9093EC0310
:101C40008093EB03C031ECE5DE0709F4CFC008F068
:101C50005BC0C8308CE5D80709F4B6C088F5C4303D
:101C6000ECE5DE0709F4A8C0C0F4C2308CE5D80763
:101C700009F49CC08091EB038260C330DC4509F419
:101C800098C08091EB039091EC030E945D1C0E9430
:101C9000F21580E0DF91CF9108958091EB03806190
:101CA000C630ECE5DE0709F484C08091EB03886060
:101CB000C730DC4508F47DC08091EB03806279C0B9
:101CC000CC308CE5D80709F489C070F48091EB031F
:101CD0008C60CA30ECE5DE0709F46BC008F478C00C
:101CE0008091EB038E7F65C0CE308CE5D80709F478
:101CF00079C08091EB038B7FCF30DC4508F459C06D
:101D00008091EB038F7E55C0CB3FECE5DE0709F4F5
:101D100057C030F5C3318CE5D80709F46FC078F4AB
:101D2000C131ECE5DE0709F465C0C231DC4509F0DC
:101D3000A8CF0E94F2158091EB038F773AC0C5318E
:101D40008CE5D80709F462C008F476C08091EC03F2
:101D50008160CA3FDC4509F094CF8093EC0391CFBA
:101D6000CF3FFCE5DF0709F44DC088F48091EC0318
:101D70008D7FCD3F9CE5D90781F38091EC038E7F69
:101D8000CE3FDC4550F38091EC038360E6CFC13059
:101D9000FDE5DF0709F459C008F444C080E0C23013
:101DA000DD4509F06ECF0E94DB1C6BCF8091EB0309
:101DB00081608093EB0365CF8091EB038460F9CF62
:101DC0008091EC038260C9CF8091EB038064F1CFF6
:101DD0000E94F2158091EB038068EBCF8091EB03BA
:101DE0008D7FE7CF8091EB03877FE3CF8091EB037B
:101DF0008F7DDFCF8091EB038F7BDBCF8091EB0377
:101E0000837FD7CF8091EC038C7FA7CF8091EB03AA
:101E100082FB992790F921E0922790FB82F990FBB1
:101E200083F9C7CF8091EC03982F909591708E7FA6
:101E3000892B90FB81F991CF0E94F2159091EB03D1
:101E4000892F97FB87F98058B4CF81E0ACCF81E030
:101E500021CFCF93DF93EB0186319C4511F50E9492
:101E6000881B9A81992399F08A7A91E009F490E08D
:101E70009093CE02811109C089E20E94631B0E94E7
:101E8000D41B80E0DF91CF91089585E3F6CF809158
:101E9000CE02811104C089E20E946A1BF0CF85E363
:101EA000FBCF81E0EFCF83E390E02091BC0027FDE2
:101EB00002C00197D1F708951092B9008CE0809389
:101EC000B8000895CF93C82F84EA8093BC000E9485
:101ED000530F8091B900887F883041F08091B9001C
:101EE000887F803119F081E0CF910895C093BB00C5
:101EF00084E88093BC000E94530F8091B900887FD2
:101F0000883129F08091B900887F803461F780E0C2
:101F1000EBCF84E98093BC0083E390E02091BC0088
:101F200024FD02C00197D1F708958093BB0084E897
:101F30008093BC000E94530F9091B900987F81E07C
:101F4000983209F480E008951F921FB61F92112461
:101F50008F939F93EF93FF938091B900887F803890
:101F6000C1F038F4882309F44BC0803679F081E061
:101F700022C0883A11F0883BD1F7E091D002F0E01E
:101F8000EB52FC4F80818093BB0031C01092CF0296
:101F9000EECF8091CF02811122C08091BB0080934F
:101FA000D0028091D0028031C0F01092D00280E047
:101FB00091E09093CF029091BC008295880F880F9A
:101FC000807C892B85688093BC00FF91EF919F9165
:101FD0008F911F901FBE1F90189581E0E9CFE0916F
:101FE000D002F0E08091BB00EB52FC4F80838091E7
:101FF000D00290E001968F7099278093D002B7CFDE
:102000001092BC00B4CF8EE14A9B02C08150E1F730
:102010004A9BFECF08955A9880E28A95F1F75A9A22
:102020000895FC013BE03A95F1F720E090E080E074
:1020300031E040E14A95F1F7880F4A9B02C0816088
:10204000232742E04A95F1F7000040E14A95F1F775
:102050009F5F6913EECF90E19A95F1F799B132E065
:102060003A95F1F7000040E14A95F1F792FB992784
:1020700090F992272081920F90830895EF92FF921A
:102080000F931F93CF93DF930F92CDB7DEB71982D3
:102090008C017C01E60EF11C0E151F0561F481E038
:1020A0009981911180E00F90DF91CF911F910F9155
:1020B000FF90EF9008950E94031068E0CE01019612
:1020C0000E941110F80181938F01E6CF9093D30203
:1020D0008093D2026093D102529A5A9A08959093B3
:1020E000D3028093D2026093D10252985A9AEA9A0C
:1020F000E9E6F0E080818F7C808308956150770B62
:1021000091E001C0990F6A95EAF720E031E0911162
:1021100008C0222391F05A9A80E28A95F1F75A98E2
:102120000895492F482339F05A9A232740E24A95C7
:10213000F1F79695ECCF5A98F9CF5A98EDCFFF92D8
:102140000F931F93CF93DF93EC018C01060F111DAA
:10215000C017D10731F4DF91CF911F910F91FF90FC
:102160000895F9900E940B1068E08F2D0E947E1058
:10217000EFCF1F920F920FB60F9211240F931F9360
:102180002F933F934F935F936F937F938F939F937F
:10219000AF93BF93EF93FF93CF93DF930F92CDB79E
:1021A000DEB719820E94031067E0CE0101960E94FB
:1021B0001110082F069506950695982F9295957003
:1021C000202F2570920F292F237096959695877052
:1021D000920F891344C08981811141C08091D1023D
:1021E0008017E8F120E12A95F1F75A9A529A82E095
:1021F0008A95F1F700C0A8E00A9FC0011124009160
:10220000D2021091D302080F191F5A98F801658164
:10221000662321F0868197810E949F100E940B10F7
:10222000F0E1FA95F1F75A9852985A9A20E12A95D6
:10223000F1F7D80112966C911297662331F113963B
:102240008D919C910E943E10D801ED91FC918823C4
:1022500011F088E001C082E080830E9403100F909B
:10226000DF91CF91FF91EF91BF91AF919F918F91AE
:102270007F916F915F914F913F912F911F910F919E
:102280000F900FBE0F901F901895ED91FC91E1CF2C
:102290000F931F93CF93DF932091D1022817190634
:1022A0000CF471C08C0193E0000F111F9A95E1F7B7
:1022B000C091D202D091D302C00FD11FF894529A8C
:1022C0005A9825E02A95F1F70000982F9695957079
:1022D0008570980F892F837096959695980F092B86
:1022E0000E940B1000C067E0802F0E947E1080E1EA
:1022F0008A95F1F752985A9A4A9B17C087E090E066
:102300004A9915C06D81662321F18E819F810E94BB
:102310003E1081111EC0529A5A9AE881F98182E0DA
:102320008083789482E090E00DC000C0E5CF0197F3
:1023300071F4529A5A9AE881F98181E08083789405
:1023400081E090E0DF91CF911F910F91089500C03F
:10235000D7CF0E94031020E22A95F1F75A98529A9B
:1023600080E18A95F1F76A81662321F08B819C8157
:102370000E949F100E940B10E881F98110827894CE
:1023800090E080E0DFCF84E090E0DCCF9093D90252
:102390008093D8020895E091D802F091D902309745
:1023A00021F00190F081E02D099480E00895E09102
:1023B000D802F091D902309721F00280F381E02D0C
:1023C00009940895E091D802F091D902309739F03C
:1023D00022E0DC012C930480F581E02D099408951E
:1023E0002091D6023091D7022817390771F09093C7
:1023F000D7028093D602E091D802F091D9023097AB
:1024000021F00680F781E02D099408952091D402EF
:102410003091D5022817390771F09093D502809337
:10242000D402E091D802F091D902309721F00084D3
:10243000F185E02D0994089585B7806885BF85B73B
:10244000806885BF0895089508950C942312089517
:102450000C9427120E941C120E9424120C94251224
:1024600081E008950E949F1D0E94DF060E94131EB6
:102470000C942812AF92BF92CF92DF92EF92FF920C
:102480000F931F93CF93DF93CDB7DEB72A970FB685
:10249000F894DEBF0FBECDBF0E94F5070E94301238
:1024A000882309F45FC08BEDA82E82E0B82E10E0DF
:1024B00000E0C02E802F0E945C08E82EF501D1902C
:1024C0005F01D81609F448C080914F0381FD0E9436
:1024D000620880E0FF24F394DE249D2D9F21B9F152
:1024E0008E83CF82EF2081E009F480E088870E940C
:1024F000A81D8160782F9A8789874E815F816885C2
:102500008A850E94D412F801E552FD4F8081F82699
:10251000F0820E94A01F0E94CB119091DA028917CD
:1025200091F10E94CB118093DA022A960FB6F894AB
:10253000DEBF0FBECDBFDF91CF911F910F91FF90F6
:10254000EF90DF90CF90BF90AF900C94F00A8F5F28
:10255000FF0C863009F0C1CF0F5F1F4F0830110507
:1025600009F0A7CF8FEF89838A831B820E94A81D61
:102570008160782F9D838C8349815A816B818D8105
:102580000E94D412C6CF2A960FB6F894DEBF0FBEB3
:10259000CDBFDF91CF911F910F91FF90EF90DF9012
:1025A000CF90BF90AF900895CF93DF93CDB7DEB7B4
:1025B0002B970FB6F894DEBF0FBECDBF4F83588761
:1025C00069877A878B871E821D8285E0FE01379698
:1025D000DE01119601900D928A95E1F749815A81A9
:1025E0006B817C818D819E812B960FB6F894DEBF26
:1025F0000FBECDBFDF91CF910C947C18FC01808180
:1026000091810C94351B8823A1F19CEF980F913A8E
:1026100020F40E94631B0C94D41B90E2980F983016
:1026200050F4877091E001C0990F8A95EAF7892FDD
:102630000E948B1BF0CFEBE5E80FE33038F4F0E0BD
:10264000EA58FD4F808190E00C94F011E8E5E80F26
:10265000E73148F4F0E0EE0FFF1FE85BFD4F8081AB
:1026600091810C940612803F20F00E94AE1E0C94C3
:10267000951F0895882361F19CEF980F913A20F4FB
:102680000E946A1B0C94D41B90E2980F983050F46F
:10269000877091E001C0990F8A95EAF7892F0E940F
:1026A000911BF0CF9BE5980F933020F490E080E0F1
:1026B0000C94F01198E5980F973120F490E080E0A9
:1026C0000C940612803F20F00E94161F0C94951F58
:1026D0000895CF93C82F0E940313C93349F42FEFF5
:1026E00087EE93E0215080409040E1F700C0000069
:1026F0008C2FCF910C943A13882321F00E948B1BCE
:102700000C94D41B0895882321F00E94911B0C94F3
:10271000D41B0895BF92CF92DF92EF92FF920F9356
:102720001F93CF93DF936C01D62FC72FFC01058138
:1027300002950F70128111110E94A81B0E94811B2B
:10274000E82E882371F01123B1F080E28D0F8830DC
:1027500090F082E00E941F1C0E94811B91E0E82EF5
:10276000E926BC2EB2949FE0B922EB2DF0E0E15BAC
:10277000F54D0C94E526E12CF4CF0C2F0F70C07FA3
:1027800011F00295007F1123A9F0002359F080E297
:102790008D0F883010F0D11109C0802F0E948B1B43
:1027A0000E94D41B8D2F0E94031314C0802F0E94FF
:1027B0009B1BF6CF8D2F0E943A13002359F080E225
:1027C0008D0F883010F0D1112CC0802F0E94911BEA
:1027D0000E94D41B2B2D2850330B2430310520F4BC
:1027E0000E94CB110E94F00AEE2009F4B9C10E94A8
:1027F0007D1B80FDB5C1F60112820E94771B0E94ED
:10280000001AC6010E94BA150E94771BDF91CF9172
:102810001F910F91FF90EF90DF90CF90BF900C949D
:10282000211A802F0E94A11BD3CFFC2FFF70FF2EF7
:10283000C07FC03219F0F29480EFF822DD2369F0F6
:10284000D13049F1112391F1002351F1F601858135
:1028500080FFA8CF8F70858323C0112381F00111E1
:1028600006C00E94BB1B8F290E947C13B3CF01308E
:10287000C1F70E94BB1B8F290E94C11BABCF011166
:1028800006C00E94CA1B8F2D0E948313A3CF013064
:1028900009F4A0CFF6CF112329F0063008F09ACF23
:1028A0008F2DE2CF053008F095CFEDCF002359F3FF
:1028B000D93349F4FFEF27EE33E0F15020403040A8
:1028C000E1F700C000008D2F0E943A1383CF11233F
:1028D00009F1D53F99F0D63FB9F0D43F49F4809142
:1028E000E5039091E60381609093E6038093E5030E
:1028F0008D2F0E94AE1E0E94951F6CCF8091E50324
:102900009091E6038260F0CF8091E5039091E60319
:102910008460EACFD53F89F0D63FA9F0D43F49F48F
:102920008091E5039091E6038E7F9093E603809378
:10293000E5038D2F0E94161FDECF8091E503909155
:10294000E6038D7FF2CF8091E5039091E6038B7FC4
:10295000ECCF8C2F837009F041C011113BCF4D2F6C
:10296000429546954770440F440F0D2F0F7010E0AD
:1029700030E020E0042E04C0000F111F221F331F7F
:102980000A94D2F760E070E0CB01D4FF0FC06FE093
:1029900070E080E090E004C0660F771F881F991FE9
:1029A0004A95D2F76095709580959095C695C69595
:1029B000C370602B712B822B932BC23049F058F4DB
:1029C000C13019F00E94B21905CF0E94A01902CFA0
:1029D0000E94C419FFCE0E949E19FCCE8695112339
:1029E00011F08C2F8170882309F4F4CE4D2F42957D
:1029F00046954770440F440F0D2F0F7010E030E0E4
:102A000020E0042E04C0000F111F221F331F0A9460
:102A1000D2F760E070E0CB01D4FF0FC06FE070E050
:102A200080E090E004C0660F771F881F991F4A95C9
:102A3000D2F76095709580959095C695C695C370B0
:102A4000602B712B822B932BC23049F058F4C1308C
:102A500019F00E94771ABECE0E94651ABBCE0E9462
:102A6000891AB8CE0E94DA19B5CECF70112329F099
:102A70008C2F0E94001A8D2FF7CE8D2F0E9483136A
:102A80008C2F0E94211AA6CED23F89F160F4D03F4C
:102A9000C9F0D13F29F1112309F442C0011182CEBE
:102AA0008C2F8F7121C0D33F39F1D43FA1F711236F
:102AB00069F1CF718C2F0E94001A63E08C2F0E9465
:102AC0000A1C88CE112341F0053008F083CE8C2FEC
:102AD0008F710E94441A7ECE063008F07BCEF7CF6D
:102AE0008C2F8F71112369F20E94001A73CE8C2FE4
:102AF0008F711123C9F3C5CF112329F08C2F8F714A
:102B00000E94EB1967CE0E94E61964CE81E00E9414
:102B10001F1C023008F45ECE82E00E941F1C5ACEB9
:102B2000002359F0D93309F0CECE8FEF97EEE3E0D2
:102B300081509040E040E1F7C4CE8C2F8F71A1CF3F
:102B40004C2F4F706D2FC6010E94490B0E94161921
:102B500041CE4C2F4F706D2FC6010E944C0B3ACEC8
:102B6000DF91CF911F910F91FF90EF90DF90CF9069
:102B7000BF9008950F931F93CF93DF93EC018B8148
:102B80009C81892B29F08881998189238F3F29F4A1
:102B9000DF91CF911F910F910895CE010E940E0BEE
:102BA0008823B1F3688179818A810E943F1B8C015F
:102BB0000E949B1A0E949D19B801CE01DF91CF910E
:102BC0001F910F910C948A130E94A81B0E94B81B9E
:102BD0000E94D41B0E9437200C94951F0E94711BE9
:102BE0000C94E4150E94981B0C94EE15E92FE295C5
:102BF000EF70E250EE3070F4F0E0E15AF54D0C94D5
:102C0000E526803F19F020F4883E20F481E0089505
:102C1000843FE1F380E00895883EC0F3813FD1F71F
:102C2000F5CF93FB882780F908950E94351B0C94FB
:102C3000F615CF93DF9300D000D00F92CDB7DEB75B
:102C40000F900F900F900F900F90DF91CF910895FC
:102C5000CF93DF9300D000D000D0CDB7DEB726965B
:102C60000FB6F894DEBF0FBECDBFDF91CF910895B0
:102C70001F93CF93DF93C091E40216E08091E502A9
:102C80008C1304C0DF91CF911F910895D0E01C9F59
:102C9000F0011D9FF00D1124EA51FD4F408151813B
:102CA00062817381848195810E9428162196C77064
:102CB000E5CF40911603509117036091180370916E
:102CC000190380911A0390911B030C9428161F93EB
:102CD000CF93DF9380911B03807FC1F48091180311
:102CE0008823A1F08091E402C091E502609116036F
:102CF000709117034091190350911A03D62FD723CF
:102D0000DA01A095B09516E0C81304C0DF91CF9109
:102D10001F91089590E04115510511F0DF3F31F406
:102D200001968770F1CF2A0F3B1F17C0189FF00143
:102D3000199FF00D1124EA51FD4F21812713F0CF87
:102D400020812613EDCF22812111EACF2381348106
:102D50002417350740F3241B350B2436310500F7C3
:102D600020911B032F70206120931B0326E0289FD6
:102D7000F001299FF00D1124E551FD4F80818F70E6
:102D80008061808386E193E00E94BA15DF91CF9144
:102D90001F910C943816BF92CF92DF92EF92FF9260
:102DA0000F931F93CF93DF93CDB7DEB761970FB625
:102DB000F894DEBF0FBECDBF7C0185E0F701DE01D8
:102DC0001D9601900D928A95E1F7D7014C911196CD
:102DD0005C91119712960C91129780911903909122
:102DE0001A03009709F469C1209116033091170363
:102DF000622F63236F3F09F460C11396CD90DC907E
:102E0000B0901803BB2009F41EC1C816D906C8F13A
:102E1000F601E81BF90BCF0111E08436910508F0AB
:102E200010E080911B03982F907F112309F4C6C0F6
:102E300091117FC0102F351329C0241327C0011111
:102E400025C08F70806180931B030E94591686E114
:102E500093E00E94BA1580911B03D70115968C93BD
:102E6000812F61960FB6F894DEBF0FBECDBFDF9104
:102E7000CF911F910F91FF90EF90DF90CF90BF9077
:102E80000895809590958C0D9D1DC6CFCD2829F075
:102E9000852F84238F3F09F02CC180E0B82FB170BB
:102EA000DB2E80FF3CC08091E4022091E50236E0F9
:102EB000821315C04D875E878D859E850E94351BC8
:102EC000292F22952F702230F0F0243018F59F70B2
:102ED000F1F0F7019581907FD1F4D12C1EC090E0E4
:102EE000389FF001399FF00D1124EA51FD4F6181A7
:102EF000651306C06081641303C0628106130FC0AE
:102F000001968770D5CF9F7011F0882331F3805ED2
:102F1000883018F3C7010E94BA151D2DA1CF0023D8
:102F200009F49ECF80911B03816080931B0310E006
:102F300097CF351315C0241313C0011111C0D70149
:102F400015968C93C7010E94BA1586E0F701A6E199
:102F5000B3E001900D928A95E1F70E94591680CF57
:102F60004D875E878D859E850E941516882311F1F9
:102F7000002301F180911B03803270F02091160331
:102F80003091170338872F831986DB86CA868C8792
:102F9000CE0107960E94BA1586E0F701A6E1B3E0DC
:102FA00001900D928A95E1F70E9467160E945916CA
:102FB00011E056CFC7010E94BA15FACF911113C084
:102FC0007C2DD98AC88A602F89890E94191686E1CA
:102FD00093E00E94BA1586E0E6E1F3E0DF011D927E
:102FE0008A95E9F7BACF351312C0241310C0011126
:102FF0000EC0F7018583C7010E94BA15E6E1F3E030
:1030000086E0DF011D928A95E9F71B2D29CF4D87B8
:103010005E878D859E850E941516882359F20023B0
:1030200049F280911B03803208F4B6CF2091160339
:10303000309117033A8329831B82DD82CC828E83F1
:10304000CE010196A7CFC816D906C8F0F601E81B35
:10305000F90BCF0110E08436910538F5102F0023CD
:1030600009F4A8CF351310C024130EC086E0F70171
:10307000A6E1B3E001900D928A95E1F7F1CE80953B
:1030800090958C0D9D1DE6CF4D875E878D859E8525
:103090000E941516811180CF80911B03816080935F
:1030A0001B03C7010E94BA15DBCE7C2DD98AC88AC2
:1030B000602F89890E9419168ECF002309F47ACFD8
:1030C0004D875E878D859E850E941516182F882353
:1030D00009F470CF86E0F701A6E1B3E001900D920C
:1030E0008A95E1F786E193E00E94FE120E9467163E
:1030F00034CF81E08027D2CE1F93CF93DF93CDB71B
:10310000DEB72C970FB6F894DEBF0FBECDBF4F834E
:10311000588769877A878B879C87CE0107960E949C
:10312000CB16882369F08A859B85892B39F04F81DE
:103130005885842F85238F3F09F071C016E05FC04A
:1031400086E0FE013796DE01119601900D928A9578
:10315000E1F78A859B85892B89F388859F8189235F
:103160008F3F61F32091E50230E0C901019687703D
:1031700099274091E4024817190671F40E94F2154C
:103180001092E5021092E40286E0E6E1F3E0DF014E
:103190001D928A95E9F7D2CF96E0929FD001939F36
:1031A000B00D1124AA51BD4FFE01319601900D9230
:1031B0009A95E1F78093E5020E943816BFCF819F70
:1031C000C00111248A519D4F0E94CB168823E9F03B
:1031D000E091E4021E9FF0011124EA51FD4F40816D
:1031E000518162817381848195810E94281680912A
:1031F000E40290E00196877099278093E402809121
:10320000E4029091E5028913DACF2C960FB6F89478
:10321000DEBF0FBECDBFDF91CF911F9108956985AD
:103220007A858B859C850E94281688CFEF92FF9225
:103230000F931F93CF93DF938C01892B81F0F12C97
:10324000EE24E394E8012196F8018491843770F428
:10325000843008F05FC08130B1F08230A1F1DF919D
:10326000CF911F910F91FF90EF900895853709F44A
:103270004CC008F43DC09CE7980F903780F78F77DB
:103280000E943A1349C00E5F1F4FFE01849190E2E5
:10329000980F983060F48770FE2D01C0FF0F8A955B
:1032A000EAF78F2F0E94AB1B0E94D41B02C00E9422
:1032B00003138F2D815030F2EFE9FFE03197F1F7E2
:1032C00000C00000F7CF0E5F1F4FFE01849190E217
:1032D000980F983050F48770FE2D01C0FF0F8A952B
:1032E000EAF78F2F0E94B11BDFCF0E943A13E1CF84
:1032F0000E5F1F4FFE01C491C150D8F28FE99FE0CD
:103300000197F1F700C00000F7CF0E5F1F4FFE01DD
:10331000F490CFCF0E9403138E01CBCF08950C946D
:103320008E190E948F1960933E0370933F03809320
:103330004003909341030C94E41508950C94911963
:103340000F931F9300913E0310913F032091400380
:1033500030914103602B712B822B932B1F910F9186
:103360000C9491190F931F9300913E0310913F030A
:1033700020914003309141036023712382239323E2
:103380001F910F910C9491190F931F9300913E037D
:1033900010913F0320914003309141036027712732
:1033A000822793271F910F910C9491190C948E19D9
:1033B0000C94D6190E94D81960933A0370933B037A
:1033C00080933C0390933D030C94E41560E070E01F
:1033D000CB010C94DA190F931F9341E050E060E0A9
:1033E00070E08A019B0104C0000F111F221F331FD0
:1033F0008A95D2F7C901B8011F910F910C94DA197F
:103400000F931F9341E050E060E070E004C0440F70
:10341000551F661F771F8A95D2F780913A039091C6
:103420003B03A0913C03B0913D038A019B01082B13
:10343000192B2A2B3B2BC901B8011F910F910C941A
:10344000DA190F931F9341E050E060E070E004C090
:10345000440F551F661F771F8A95D2F7CB01BA011B
:10346000609570958095909500913A0310913B037B
:1034700020913C0330913D036023712382239323E9
:103480001F910F910C94DA190F931F9341E050E0B4
:1034900060E070E004C0440F551F661F771F8A95D7
:1034A000D2F780913A0390913B03A0913C03B091F5
:1034B0003D038A019B01082719272A273B27C901B9
:1034C000B8011F910F910C94DA190F931F9300917B
:1034D0003A0310913B0320913C0330913D03602B54
:1034E000712B822B932B1F910F910C94DA190F9350
:1034F0001F9300913A0310913B0320913C033091BC
:103500003D0360237123822393231F910F910C9419
:10351000DA190F931F9300913A0310913B03209106
:103520003C0330913D0360277127822793271F9129
:103530000F910C94DA190895E92FEE0FE90FEE0FB1
:103540008E0F982F977041E001C0440F9A95EAF7CB
:1035500086958695869595E0899FF0011124E45E15
:10356000FC4F30E020E070E05191DF011197CB017A
:10357000022E02C0969587950A94E2F78170819594
:103580008527842385278C932F5F3F4F2530310576
:1035900059F70895E92FEE0FE90FEE0F8E0F982FD0
:1035A000977086958695869525E0829FF001112477
:1035B000E45EFC4F50E040E080E0219130E0092ED5
:1035C00002C0369527950A94E2F721703327042E1E
:1035D00001C0220F0A94EAF7822B4F5F5F4F4530FC
:1035E000510559F70895BF92CF92DF92EF92FF9263
:1035F0000F931F93CF93DF938C01C0903A03D09029
:103600003B03E0903C03F0903D0380913E0390919A
:103610003F03A0914003B0914103C82AD92AEA2A66
:10362000FB2ACFE1D0E0BC2ED701C6010C2E04C08E
:10363000B695A795979587950A94D2F780FD0EC009
:10364000219788F7B12C8B2DDF91CF911F910F918E
:10365000FF90EF90DF90CF90BF900895B8018C2F2E
:103660000E94690B019761F3EECFCF93DF93EC01DA
:103670000E94F31ABE01DF91CF910C94690B1F9346
:10368000CF93DF93EB019091E302992331F0CB01CB
:10369000DF91CF911F910C94351B882379F0CB01DA
:1036A0000E94F31A182F682FCE010E949C1ABE01A7
:1036B000812FDF91CF911F910C94690BCB010E9458
:1036C000CA1A182FF4CF682F80915D0190915E0186
:1036D0000C94191D682F80915D0190915E010C94EE
:1036E0001B1D80915D0190915E010C941D1D8091C8
:1036F000420385958595859508958091420387704D
:10370000089590914203977081E009F480E0089554
:1037100080914E03089590914E03892B80934E0320
:103720000895809590914E03982390934E030895A9
:1037300010924E03089590914D03892B80934D0371
:103740000895809590914D03982390934D0308958B
:1037500010924D03089590914C03892B80934C0354
:103760000895809590914C03982390934C0308956D
:1037700010924C03089580914303089508950C948A
:10378000BE1B90914303981721F0809343030C9440
:10379000BF1B089580914303882329F010924303AF
:1037A00080E00C94BF1B0895E0915D01F0915E01F3
:1037B00080914E038083E0915D01F0915E018081F4
:1037C00090914D03892B8083E0915D01F0915E0122
:1037D000808190914C03892B80839091430399239E
:1037E00081F0E0915D01F0915E018081892B808301
:1037F00080915D0190915E010E94E01C81110E9408
:10380000CA1B80915D0190915E010C94D7110895BF
:103810000C94071C98E0899F90011124622B6093FF
:1038200042030E94001A80914203859585958595F3
:103830000C94081C1092420380E00C94081C909198
:1038400042038095892380934203282F277071F4C7
:10385000282F082E000C330B9217130639F085958C
:10386000859585950E94211A0C941A1C089590E064
:1038700080E00E94DC2921E08C3E9E4F09F020E090
:10388000822F089582E090E00C94D42983E090E0A8
:103890000C94D429682F83E090E00C94E229CF9314
:1038A00084E090E00E94D429C82F81E290E00E9439
:1038B000D429982F8C2FCF910895CF93C92F682F9B
:1038C00084E090E00E94E2296C2F81E290E0CF91A9
:1038D0000C94E229AB01BC018FE090E00C94F42938
:1038E000AB01BC0183E190E00C94F42960E070E04E
:1038F000CB010C94701C60E070E0CB010E946A1C4C
:103900000C94761C6CEE7EEF90E080E00E94002A22
:1039100060E082E090E00E94E22960E083E090E0D5
:103920000E94E22910923E0310923F03109240033E
:103930001092410360E084E090E00E94E22960E0A0
:1039400081E290E00E94E22960E085E090E00E9440
:10395000E22960E086E090E00E94E2296FEF87E0D4
:1039600090E00E94E22940E050E0BA0188E090E057
:103970000E94F42960E08DE090E00E94E22940E09E
:1039800050E0BA0188E190E00E94F42960E087E10C
:1039900090E00E94E22940E050E0BA018CE190E022
:1039A0000E94F42960E080E290E00E94E2290C94F9
:1039B0007B1C0C94821C682F8EE090E00C94E22912
:1039C0009C012E5F3F4FAC01485F5F4F80E02417A2
:1039D000350709F40895F90191919F019923B9F3ED
:1039E0008F5FF5CF9C01FC0132969FEF80E0419103
:1039F000461751F09F3F19F4411101C0982F8F5F76
:103A00008630A9F79F3F09F40895290F311D97FDCE
:103A10003A95F90162830895FC0132960896219146
:103A2000261303C0DF0111971C92E817F907B9F7B5
:103A300008950C94F21C0C940C1D029626E0FC01D7
:103A400011922A95E9F70895089508950C94251D7B
:103A50000E94261D8091F103843049F11092500399
:103A600088E190E020E40FB6F894A8958093600078
:103A70000FBE2093600080E00E94F00A0E94261D85
:103A800083B7817F846083BF83B7816083BF78946D
:103A9000889583B78E7F83BF0FB6F894A8958091E1
:103AA0006000886180936000109260000FBE0895EE
:103AB0000895CF930E94241D0E94F5070E94581D6F
:103AC000C0E08C2F0E945C08811105C0CF5FC83018
:103AD000C1F7CF91089581E0FCCF08950C946D1D3E
:103AE0000E94F2150E94CB110E94F00A0C946E1DE8
:103AF0001F921FB61F9211248F939F93AF93BF9372
:103B000080915003811113C08091E7039091E803E5
:103B1000A091E903B091EA034196A11DB11D8093E4
:103B2000E7039093E803A093E903B093EA03BF91FE
:103B3000AF919F918F911F901FBE1F90189582E0AB
:103B400084BD93E095BD9AEF97BD80936E00089574
:103B50002FB7F8948091E7039091E803A091E903CF
:103B6000B091EA032FBF0895CF92DF92EF92FF92B8
:103B70000F931F932FB7F8944091E7035091E803F8
:103B80006091E9037091EA032FBF6A017B01EE2483
:103B9000FF248C0130E020E0C016D106E206F306D7
:103BA00050F0481B590BCA011F910F91FF90EF90E5
:103BB000DF90CF90089541505109F3CF78941F9230
:103BC0001FB61F9211248F939F93AF93BF93809141
:103BD000E7039091E803A091E903B091EA0301960D
:103BE000A11DB11D8093E7039093E803A093E9031F
:103BF000B093EA03BF91AF919F918F911F901FBE29
:103C00001F90189587E797E7909301088093000825
:103C100088E19AE00FB6F894A895809360000FBEF3
:103C200090936000FFCF0E94371C811102C00E9458
:103C3000D91C0E94421C80934F030E944F1C9093FA
:103C4000EC038093EB030E94461C682F70E090E029
:103C500080E00C949E198091540380FF12C0609103
:103C6000620185E0689FB00111247595679575958F
:103C7000679560387105A8F561157105A1F1862F6A
:103C8000089581FF09C06091620185E0689FB001DD
:103C9000112475956795EDCF6091620182FD0AC090
:103CA000809153038823D1F090916101609162016A
:103CB000891728F085E0689FB0011124DACF869F2C
:103CC000B001112485E0869F9001879F300D11245B
:103CD000692F70E0C9010E94D126CBCF65E070E06A
:103CE000CECF8FE7089581E008958091540380FF3F
:103CF0000CC06091600170E075956795759567954A
:103D00006115710549F1862F089581FF06C0609104
:103D1000600170E075956795F3CF6091600182FD59
:103D20000BC0909153039923A1F060915F018091A2
:103D30006001961738F0682F70E06038710500F365
:103D40008FE70895899FC001112470E00E94D12659
:103D5000F4CF61E070E0D7CF81E00895803F31F487
:103D60000E942B1E8195809358030895813F19F47A
:103D70000E942B1EF8CF823F31F40E942B1E8195AA
:103D8000809357030895833F19F40E942B1EF8CFA8
:103D9000893F29F40E94751E8093590308958A3F34
:103DA00021F40E94751E8195F7CF8B3F31F40E945C
:103DB000751E819580935A0308958C3F19F40E94D3
:103DC000751EF8CF843F31F4809156038160809353
:103DD00056030895853F21F4809156038260F7CF02
:103DE000863F21F4809156038460F1CF873F21F410
:103DF000809156038860EBCF883F21F48091560371
:103E00008061E5CF8D3F31F48091540381608093D0
:103E1000540308958E3F21F4809154038260F7CFBC
:103E20008F3FB9F7809154038460F1CF909157038D
:103E3000803F41F48091580387FD109258039923E5
:103E400071F00895813F29F4809158031816ACF35E
:103E5000F6CF823F81F497FFF2CF10925703809103
:103E6000580390915903892B90915A03892B49F754
:103E7000109253030895833F19F4191674F3DFCF9A
:103E8000893F39F4809159031816CCF610925903E2
:103E9000D6CF8A3F29F48091590387FFD0CFF6CF40
:103EA0008B3F39F480915A0387FFC9CF10925A0390
:103EB000C6CF8C3F29F480915A031816BCF3BFCFAC
:103EC000843F31F4809156038E7F80935603B7CFA1
:103ED000853F21F4809156038D7FF7CF863F21F4F3
:103EE000809156038B7FF1CF873F21F48091560359
:103EF000877FEBCF883F21F4809156038F7EE5CFFB
:103F00008D3F31F4809154038E7F8093540397CF7B
:103F10008E3F21F4809154038D7FF7CF8F3F09F0BE
:103F20008ECF809154038B7FF0CF85E593E00E9484
:103F3000E2110E94A81D90935203809351030895AB
:103F40001F93CF93DF9380915103909152030E946E
:103F5000B41DAC01909153032091630130E09111A5
:103F600006C0209164018AE0289F90011124421725
:103F7000530778F020915703C0915803D09159030B
:103F800010915A03211109C08C2F8D2B812B09F020
:103F90006AC0DF91CF911F9108959F3F19F09F5FF5
:103FA00090935303121624F40E942B1E8093570300
:103FB0008091570387FF05C00E942B1E8195809337
:103FC00057031C1624F40E942B1E809358038091E3
:103FD000580387FF05C00E942B1E819580935803CC
:103FE000309157033323A1F020915803222381F00D
:103FF00045EB3403C0011124992369F190935703D1
:1040000045EB240390011124332349F130935803E5
:104010001D1624F40E94751E809359038091590344
:1040200087FF05C00E94751E819580935903111664
:1040300024F40E94751E80935A0380915A0387FFCF
:1040400005C00E94751E819580935A03DF91CF9120
:104050001F910C94951F81E080935703D1CF81E08D
:1040600080935803D5CF9F3F09F099CFAACF86E020
:10407000E5E5F3E0DF011D928A95E9F7109253031D
:104080001092540308958091630308950895CF9387
:10409000DF93EC010E942322823011F08430F9F486
:1040A00082E08093E9008FEF9091E800815095FDC8
:1040B00006C095ED9A95F1F700008111F5CF80913A
:1040C000E80085FF0CC050E040E066E070E0CE0103
:1040D0000E9440228091E8008E778093E800DF9173
:1040E000CF910895CF93DF93EC010E942322823079
:1040F00011F0843039F581E08093E9008FEF9091E1
:10410000E800815095FD06C095ED9A95F1F7000005
:104110008111F5CF8091E80085FF14C050E040E0A8
:1041200068E070E0CE010E9440228091E8008E7726
:104130008093E80088E0FE01ABE5B3E001900D92CA
:104140008A95E1F7DF91CF91089508958091F0036A
:10415000811109C00E94D0230E942D248091E20089
:1041600084608093E20008951092F003089508950A
:1041700008950C94701D42E061EC81E00E944C2394
:1041800042E261EC82E00C944C238091F303833093
:1041900009F45FC030F48130C1F1823009F49BC072
:1041A00008958A3009F487C08B3009F46DC08930D6
:1041B00009F04EC08091F203813209F049C080912C
:1041C000F6039091F703029708F042C08091E8004F
:1041D000877F8093E8008091E80082FF35C090914E
:1041E000F3008091F200029729F48091F1008B7F17
:1041F000813021F48091F100809363038091E80085
:104200008B778093E8000C9480238091F203813AAD
:10421000F9F48091E800877F8093E8008091F603AD
:104220009091F703892B61F468E08BE593E070E0EF
:104230000E948F228091E8008B778093E800089598
:1042400060E090E080E0F3CF8091F1038111C3CF73
:1042500008958091F203813AD9F78091F603909105
:10426000F703892BA9F78091E800877F8093E80006
:104270008091E80080FFFCCF80916F018093F10076
:104280008091E8008E77BDCF8091F203813201F7F3
:104290008091F6039091F703892BD1F68091E80085
:1042A000877F8093E8000E9480238091F4038093AD
:1042B0006F010C94F2158091F203813249F68091DE
:1042C000E800877F8093E8000E9480238091F503B7
:1042D0008093640308958091F203813A09F0B8CF86
:1042E0008091E800877F8093E8008091E80080FF5C
:1042F000FCCF80916403C2CF84B7877F84BF0FB6A1
:10430000F894A89580916000886180936000109275
:1043100060000FBE80E890E00FB6F89480936100D3
:10432000909361000FBE0E942A120E94D0230E9427
:104330002D248091E20084608093E20078940E94B2
:10434000B6260E94321285E691E00E94C611809145
:10435000F103853019F00E943A12F9CF0E94281D0E
:104360008091EF03882399F30E94591D882379F3E4
:104370000E942A22ECCF0C94BD21292F3327233011
:10438000310519F168F42130310509F44AC02230B1
:10439000310509F44BC090E080E030E020E028C017
:1043A0002132310579F122323105A9F780E490E01C
:1043B00024EF37E061157105D9F08FE490E025EA2C
:1043C00037E061307105A1F0E6CF99278130910582
:1043D00099F0009741F08230910589F00397D9F662
:1043E000ECE0F7E002C0E4E5F7E0849190E09F01A3
:1043F000FA01318320830895E2E4F7E0F6CFE2E1A9
:10440000F7E0F3CF89E090E02AE637E06115710527
:1044100079F389E090E023E837E06130710541F3FA
:10442000BACF82E190E023E937E0E2CF8BE390E07E
:1044300028E537E0DDCF8091F103843011F482E08C
:10444000089581E0089580916503811102C00C9464
:104450001B22089580E189BD82E189BD09B400FE77
:10446000FDCF8091D8008F7D8093D8008091E000AF
:1044700082608093E0008091E00081FDFCCF089590
:10448000AF92BF92CF92DF92FF920F931F93CF9381
:10449000DF936C01EB018A010E949F23F82E8111AA
:1044A00023C00115110539F0F80180819181C81BE5
:1044B000D90BC80ED91EB12CA12C2097A9F0809140
:1044C000E80085FD22C08091E8008E778093E800A7
:1044D00001151105A1F0F80180819181A80EB91E86
:1044E000B182A08285E0F82E8F2DDF91CF911F91B0
:1044F0000F91FF90DF90CF90BF90AF9008950E94F2
:104500009F238823D1F2F82EEFCFF60181916F011E
:104510008093F1002197FFEFAF1ABF0ACECFFC01C5
:104520008091F8039091F90386179707A0F0611521
:10453000710529F49091E8009E779093E80090E04F
:104540006115710551F4911108C08091E80082FF56
:1045500034C080E00895BC01F2CF8091F10388233C
:10456000C1F18530C1F18091E80083FD30C08091B8
:10457000E80082FDEACF8091E80080FFE1CF8091E2
:10458000F3002091F200382F6115710519F02830E1
:10459000310558F091E02830310509F090E0209184
:1045A000E8002E772093E800CBCF81918093F10033
:1045B000615071092F5F3F4FE7CF8091F10388234E
:1045C00041F0853041F08091E80083FFBECF81E06B
:1045D000089582E0089583E00895FC018091F80336
:1045E0009091F90386179707A0F06115710529F4DA
:1045F0008091E8008E778093E80090E06115710566
:1046000051F4911108C08091E80082FF35C080E02C
:104610000895BC01F2CF8091F1038823C9F1853060
:10462000C9F18091E80083FD31C08091E80082FDEE
:10463000EACF8091E80080FFE1CF8091F3002091E4
:10464000F200382F6115710519F02830310558F046
:1046500091E02830310509F090E08091E8008E77F4
:104660008093E800CBCF84918093F1003196615024
:1046700071092F5F3F4FE6CF8091F103882341F00E
:10468000853041F08091E80083FFBDCF81E008953F
:1046900082E0089583E00895982F973028F08F7076
:1046A0008093E90081E008959093E900242F762F0C
:1046B00050E0981731F07091EC002091ED0050918E
:1046C000F00021FD02C09F5FE8CF3091EB003E7FFC
:1046D0003093EB003091ED003D7F3093ED00309151
:1046E000EB0031603093EB007093EC002093ED0011
:1046F0005093F0002091EE0027FDE5CF80E0089573
:104700008091F20387FF13C08091E80082FF06C00A
:104710008091E8008B778093E80004C08091F103DA
:104720008111F2CF08958091F1038823D9F380910C
:10473000E80080FFF8CF8091E8008E77ECCF2091E1
:10474000E4003091E50095E6A9012091EC00822F6C
:10475000817020FF06C08091E80080FF06C080E0E5
:1047600008952091E80022FD1AC08091F10388236A
:1047700089F0853089F08091EB0085FD0FC0209194
:10478000E4003091E50042175307F9F29150E1F649
:1047900084E0089582E0089583E0089581E008951B
:1047A0000E943E240E944624E0EEF0E08081816079
:1047B0008083E8EDF0E080818F77808319BCA7EDDE
:1047C000B0E08C918E7F8C9380818F7E808310925D
:1047D000F00308950F931F93CF93DF930E943E241D
:1047E0000E944624C8EDD0E088818F778883888135
:1047F0008068888388818F7D888319BC1092F1033B
:104800001092ED031092EF031092EE0300EE10E011
:10481000F80180818B7F808388818160888342E07A
:1048200060E080E00E944C23E1EEF0E080818E7F2A
:104830008083E2EEF0E08081816080838081886007
:104840008083F80180818E7F808388818061888366
:10485000DF91CF911F910F910895E8EDF0E08081F5
:104860008F7E8083E7EDF0E080818160808384E04B
:1048700082BF81E08093F0030C94EA23E8EDF0E03E
:1048800080818E7F80831092E20008951092DA007A
:104890001092E10008951F920F920FB60F9211240B
:1048A0002F933F934F935F936F937F938F939F9338
:1048B000AF93BF93EF93FF938091E10082FF0BC012
:1048C0008091E20082FF07C08091E1008B7F80939E
:1048D000E1000E94B5268091DA0080FF19C0809126
:1048E000D80080FF15C08091DA008E7F8093DA00B7
:1048F0008091D90080FF96C080E189BD82E189BDA9
:1049000009B400FEFDCF81E08093F1030E94A62050
:104910008091E10080FF19C08091E20080FF15C006
:104920008091E2008E7F8093E2008091E2008061BE
:104930008093E2008091D80080628093D80019BCF7
:1049400085E08093F1030E94B8208091E10084FF0C
:104950002BC08091E20084FF27C080E189BD82E105
:1049600089BD89B5982F917080FFFBCF8091D800C9
:104970008F7D8093D8008091E1008F7E8093E1004D
:104980008091E2008F7E8093E2008091E20081605E
:104990008093E2008091ED03882309F449C084E00C
:1049A0008093F1030E94B9208091E10083FF29C028
:1049B0008091E20083FF25C08091E100877F809392
:1049C000E10082E08093F1031092ED038091E10019
:1049D0008E7F8093E1008091E2008E7F8093E200E1
:1049E0008091E20080618093E20042E060E080E03C
:1049F0000E944C238091F00088608093F0000E9418
:104A0000B720FF91EF91BF91AF919F918F917F91CF
:104A10006F915F914F913F912F910F900FBE0F902B
:104A20001F90189519BC1092F1030E94B42070CF0A
:104A30008091E30087FD93E09093F103B3CF1F9241
:104A40000F920FB60F9211242F933F934F935F93C2
:104A50006F937F938F939F93AF93BF93CF93DF9386
:104A6000EF93FF93D091E900DF708091EC00C82FA5
:104A7000C17080FDC0E81092E9008091F000877F4E
:104A80008093F00078940E9463251092E900809151
:104A9000F00088608093F000CD2BCF70C093E900C8
:104AA000FF91EF91DF91CF91BF91AF919F918F9146
:104AB0007F916F915F914F913F912F910F900FBE1A
:104AC0000F901F9018951F93CF93DF93CDB7DEB74C
:104AD000AA970FB6F894DEBF0FBECDBF82EF93E06A
:104AE0002091F100FC012193CF01F3E08A3F9F0761
:104AF000B9F70E94C5208091E80083FF1EC1809114
:104B0000F2039091F3039A3008F017C1E92FF0E017
:104B1000E359F54D0C94E526803899F0823809F078
:104B20000CC18091F6038F70873008F006C1809326
:104B3000E9008091EB0085FB882780F91092E9005D
:104B400006C08091EE039091EF03911182609091E5
:104B5000E800977F9093E8008093F1001092F100B5
:104B60008091E8008E77E5C0882309F4D3C08230B5
:104B700009F0E3C08091F4038111D6C08091F6035F
:104B80008F702FEF280F263008F0D7C08093E900F0
:104B90002091EB0020FFC8C0933031F48091EB00EE
:104BA00080628093EB00C0C09091EB009061909385
:104BB000EB0021E030E001C0220F8A95EAF7209354
:104BC000EA001092EA008091EB008860EACF811140
:104BD000B4C01091F4031F778091E3008078812B9B
:104BE0008093E3008091E800877F8093E8000E9433
:104BF00080238091E80080FFFCCF8091E3008068F3
:104C00008093E30082E0111183E08093F10395C06B
:104C10008058823008F091C08091F4039091F503A0
:104C20008C3D23E09207A1F583E08A838AE28983A1
:104C30004FB7F894DE01139620E03EE051E2E32FF7
:104C4000F0E050935700E49120FF03C0E295EF702D
:104C50003F5FEF708E2F90E0EA30C0F0C7968D93E3
:104C60009D932F5F243159F74FBF8091E800877FD4
:104C70008093E8006AE270E0CE0101960E948F22E4
:104C80008091E8008B778093E80057C0C096E7CF0B
:104C90006091F6037091F703AE014F5F5F4F0E9482
:104CA000BB21BC01892B09F448C09091E800977F93
:104CB0009093E80089819A810E94ED22E1CF8038AB
:104CC000E1F58091E800877F8093E8008091ED0313
:104CD0008093F10045CF811130C09091F403923060
:104CE00060F58091E800877F8093E8009093ED0362
:104CF0000E9480238091ED03882311F084E005C099
:104D00008091E30087FDFACF81E08093F1030E9458
:104D1000BB2013C08091F403813079F481E093309B
:104D200009F080E08093EF031092E9008091E800A1
:104D3000877F8093E8000E9480238091E80083FFB2
:104D40000AC08091E800877F8093E8008091EB00A3
:104D500080628093EB00AA960FB6F894DEBF0FBE78
:104D6000CDBFDF91CF911F9108950895CF9380918A
:104D7000F1038823A1F0C091E900CF709091EC007D
:104D8000892F817090FD80E8C82B1092E9008091F6
:104D9000E80083FD0E946325CF70C093E900CF91A6
:104DA000089597FB072E16F4009407D077FD09D0DD
:104DB0000E94EB2607FC05D03EF4909581959F4F0D
:104DC0000895709561957F4F0895EE0FFF1F059030
:104DD000F491E02D0994AA1BBB1B51E107C0AA1F47
:104DE000BB1FA617B70710F0A61BB70B881F991F8C
:104DF0005A95A9F780959095BC01CD010895FB01C6
:104E0000DC0104C08D910190801921F44150504083
:104E1000C8F7881B990B08956817790768F4FB0198
:104E2000DC01E40FF51FA40FB51F02C002900E9223
:104E300041505040D8F708950C943229DC0101C04C
:104E40006D9341505040E0F70895FB01DC01019063
:104E50000D920020E1F70895AEE0B0E0E2E3F7E262
:104E60000C94242A0D891E898F89988D26E02C8325
:104E70001A83098397FF02C080E090E801979E8320
:104E80008D83AE01455E5F4F698D7A8DCE010196AF
:104E90000E945C274D815E8157FD0AC02F813885B5
:104EA000421753070CF49A01020F131FF8011082E6
:104EB0002E96E4E00C94402AABE0B0E0E2E6F7E2A4
:104EC0000C94162A7C013B018A01FC011782168290
:104ED000838181FFB9C19AE0292ECE0101965C0140
:104EE000F7019381F30193FD859193FF81913F0138
:104EF000882309F446C1853239F493FD859193FFE7
:104F000081913F01853229F4B70190E00E94462942
:104F1000E7CF912C412C512CFFE1F51538F08B3265
:104F200009F188F4803201F1833221F157FC3AC053
:104F300020ED280F2A3040F556FE1FC0929C200D10
:104F40001124922E06C08D3291F0803379F7689447
:104F500050F8F30193FD859193FF81913F018111F9
:104F6000DBCF20C0689451F8689452F8F2CF68946F
:104F700053F8EFCF689454F8ECCF429C200D1124E5
:104F8000422E689455F8E5CF8E3229F456FCF9C0CC
:104F9000689456F8DECF8C3619F4689457F8D9CF58
:104FA0008836B9F2982F9F7D95549330C0F08336A0
:104FB000A1F18337C1F1833509F05BC0F801C190DD
:104FC000D1908F01692D70E056FC02C06FEF7FEF2A
:104FD000C6010E9427294C01689457F80AC00C5F4B
:104FE0001F4F2FE3298388248394912C6501E89433
:104FF00057F853FC04C04814190409F018F5342C70
:105000008114910431F5332009F46ACFB70180E2AD
:1050100090E00E9446293A94F6CFF8018081898376
:105020000E5F1F4FE0CFF801C190D1908F01692D25
:1050300070E056FC02C06FEF7FEFC6010E943B2973
:105040004C01D5CFB70180E290E00E9446294A94F6
:10505000D2CFF60157FC859157FE81916F01B701C0
:1050600090E00E94462931103A94F1E08F1A91089D
:10507000C7CF843619F0893609F074C0F80157FE9D
:105080006AC061917191819191918F01252D2F7647
:10509000D22E97FF09C090958095709561957F4FAE
:1050A0008F4F9F4F6894D7F82AE030E0A5010E9407
:1050B0007629C82ECA188C2C5D2CD6FE0CC0E8941C
:1050C00050F8C91440F4D4FE05C0D2FC03C0FD2D35
:1050D000FE7E5F2E892C54FE8FC0FE01EC0DF11D6B
:1050E0008081803309F081C0252D297E522E852DA7
:1050F0008870382E53FC8FC050FE89C09C2C8414BD
:1051000018F44C0C942C981854FE8BC0B70180E313
:1051100090E00E94462952FE09C088E790E051FEC7
:1051200002C088E590E0B7010E944629C91408F43E
:1051300084C0CA94D12C9FEFC91AD90ACA0CDB1CAF
:10514000F60182916F01B70190E00E944629AC14EC
:10515000BD04B1F758CF61917191072E000C880BF7
:10516000990B93CFD52CE894D4F82AE030E085371A
:1051700039F1952D997FD92E8F3601F148F4883574
:10518000A9F0F701868197812B96E2E10C94322AEF
:10519000803749F08837A9F7D4FE02C06894D2F866
:1051A00020E130E00DC06894D4F8F6CF54FE03C07F
:1051B000E92FE660DE2E20E132E002C028E030E098
:1051C000F801D7FE0DC061917191819191918F018C
:1051D000A5010E947629C82ECA18E894D7F86BCF8B
:1051E0006191719190E080E0F2CF52FC02C0839413
:1051F0007ECF839483947BCF852D867809F477CFF7
:10520000F6CFB70180E290E00E944629839484148F
:10521000C0F3312C79CF342C3818841408F474CFAF
:10522000F8CF852D867809F481CF8BE251FE80E29C
:1052300057FC8DE2B70190E077CFB70180E390E0B3
:105240000E9446299A9472CF8FEF9FEF9DCFFC0169
:105250000590615070400110D8F7809590958E0FA1
:105260009F1F0895FB01DC0102C001900D92415087
:105270005040D8F70895FC01615070400190011032
:10528000D8F7809590958E0F9F1F08950F931F93C9
:10529000CF93DF93182F092FEB018B8181FD09C07C
:1052A0001FEF0FEF812F902FDF91CF911F910F9163
:1052B000089582FF14C02E813F818C819D81281723
:1052C00039073CF4E881F981CF01019699838883FD
:1052D00010838E819F8101969F838E83E3CFE88523
:1052E000F985812F0995892BA1F3DACFFA01AA2735
:1052F000283051F1203181F1E8946F936E7F6E5F19
:105300007F4F8F4F9F4FAF4FB1E03ED0B4E03CD0C6
:10531000670F781F891F9A1FA11D680F791F8A1FA9
:10532000911DA11D6A0F711D811D911DA11D20D010
:1053300009F468943F912AE0269F11243019305DCA
:105340003193DEF6CF010895462F4770405D4193BB
:10535000B3E00FD0C9F7F6CF462F4F70405D4A3308
:1053600018F0495D31FD4052419302D0A9F7EACFD0
:10537000B4E0A6959795879577956795BA95C9F7FF
:1053800000976105710508959B01AC010A2E0694F2
:105390005795479537952795BA95C9F7620F731FAB
:1053A000841F951FA01D0895F999FECF92BD81BD60
:1053B000F89A992780B50895A8E1B0E042E050E05E
:1053C0000C94082A262FF999FECF92BD81BDF89A38
:1053D000019700B4021639F01FBA20BD0FB6F89439
:1053E000FA9AF99A0FBE08950396272F0E94E3298F
:1053F0000E94E229252F0E94E329242F0C94E329FF
:105400000196272F0E94E3290C94E229DC01CB01AD
:10541000FC01F999FECF06C0F2BDE1BDF89A3196C4
:1054200000B40D9241505040B8F708952F923F922A
:105430004F925F926F927F928F929F92AF92BF92A4
:10544000CF92DF92EF92FF920F931F93CF93DF9350
:10545000CDB7DEB7CA1BDB0B0FB6F894DEBF0FBEAD
:10546000CDBF09942A88398848885F846E847D84FA
:105470008C849B84AA84B984C884DF80EE80FD80FC
:105480000C811B81AA81B981CE0FD11D0FB6F89472
:10549000DEBF0FBECDBFED010895F894FFCFBD1361
:1054A000BD1315141514EA136714EA13EA13A914AB
:1054B000351544154415A015EA13EA13A91501166C
:1054C00001160A160A160C160A160A160A160116EC
:1054D000011611160A160A1611168C25B4259D26DA
:0E54E000B4259D26E72508269D265F266B260F
:1054EE00010501930200000001910293020494024F
:1054FE000191029202000000049802FFFF80818257
:10550E00838485868788898A8B8C8D8E8F909192E5
:10551E009394A0A1A2A3A4A5A6A7A8A9AAABACAD3B
:10552E00AEAFB0B1B2B3B4C0C1C2C3C4C5C6C7C8B2
:10553E00C9CACBCCCDCECFD0D1D2D3D40044032840
:10554E0008140A321E4320722047204620A520014F
:10555E0025730A00F4F5F6F73133946697C600000A
:10556E0000004C617965723A2044656661756C7411
:10557E00004C617965723A205261697365004C6125
:10558E007965723A204C6F776572004C617965725D
:10559E003A2041646A757374004C617965723A20E1
:1055AE00556E6465662D256C640025647825642C23
:1055BE00206B253264203A202563002020202061B4
:1055CE0062636465666768696A6B6C6D6E6F707135
:1055DE0072737475767778797A313233343536372B
:1055EE0038393052454254202020202020203B279D
:1055FE00202C2E2F202020E200E900EA00B500B674
:10560E0000B700CD008301CC008A019201940121E4
:10561E0002230224022502260227022A02B300B424
:10562E00006F007000818283E200E900EA00B5009D
:10563E00B600B700CD008301CC008A01920194011F
:10564E002102230224022502260227022A02B30087
:0A565E00B4006F0070008182830029
:00000001FF
