:100000000C94FC030C9419040C9419040C9419041A
:100010000C9419040C9419040C9419040C941904EC
:100020000C9419040C9419040C949B2C0C946F2DB3
:100030000C9463230C9419040C9419040C94190463
:100040000C9419040C9419040C9419040C941904BC
:100050000C9419040C94C9230C9419040C941904DD
:100060000C9419040C9419040C9419040C9419049C
:100070000C9419040C9419040C9419040C9419048C
:100080000C9419040C9419040C9419040C9419047C
:100090000C9419040C9419040C9419040C9419046C
:1000A0000C9419040C9419040C9419046572676F6C
:1000B000646F785F657A2F7270616B2040206331C6
:1000C00037666639006572676F646F785F657A2F8F
:1000D0007270616B20402063313766663900000022
:1000E000F0A101002B68E300E100E0000000010046
:1000F000140004001D00E2004D0001001A0016006B
:100100001B000100E208010008000700060002547D
:10011000296A010015000900190001544A00010074
:1001200017000A000500000052080100010000004D
:100130000100000001000A5D010000002A0000002B
:10014000010001001C000B00110000002D02010045
:1001500018000D00100045044B0001000C000E00BB
:10016000360011502C00010012000F003700125011
:1001700028000100130033003800E2004E000100A7
:1001800031003468E500E000000001002B08E300C6
:10019000D75CE000000001001E0015030100E20032
:1001A000010001001F000703010001000100010020
:1001B0002000400A010001002900010021003A0846
:1001C0004307010001000100220035020100000088
:1001D0000100010001000000010000000100010019
:1001E0002A0A00002A000000010001002300350057
:1001F000400400002D02010024002F00400C10508C
:100200000100010025003000450801002E0001001A
:1002100026002F02370012502D0001002700300267
:100220003800E2000100010031003468D85CE000D1
:10023000000001002B00E300D75CE000000001009B
:100240003A0001000100E200010001003B00010052
:10025000AA000100010001003C000100A90001000A
:10026000010001003D00AC00A800010001000100F8
:100270003E00AB00010000005208010044000000F5
:100280000100000001000100450000000100000025
:10029000010001003F00500050010000010001007A
:1002A0004000510051011050010001004100520076
:1002B000520111500100010042004F004F11010096
:1002C00001000100430001000100E2000100010003
:1002D00001000100D85CE000000000000000000008
:1002E00000002A2B28000000000000000000000091
:1002F000000000000029000000002C1E34202122F4
:1003000024342627252E362D3738271E1F2021225C
:10031000232425263333362E37381F0405060708D5
:10032000090A0B0C0D0E0F101112131415161718C5
:10033000191A1B1C1D2F3130232D35040506070803
:10034000090A0B0C0D0E0F101112131415161718A5
:10035000191A1B1C1D2F3130354C00000000000005
:10036000000000000000000000000000000000008D
:10037000000000000000000000000000000000007D
:10038000000000000000000000000000000000006D
:10039000000000000000000000000000000000005D
:1003A000000000000000000000000000000000004D
:1003B000000000000000000000000000000000003D
:1003C000000000000000000000000000000000002D
:1003D000000000000000000000000000000000001D
:1003E000000000000000000000000000000000000D
:1003F00000000000000000000000000101010101F8
:1004000001000101010100000000000000000000E7
:1004100000000000010001000101010101010101D2
:1004200001010101010101010101010101010101BC
:1004300001010101010000000101000000000000B5
:1004400000000000000000000000000000000000AC
:100450000000000000010101010000047F3F1F6453
:100460003214643214783C1E1E140A0522232526F9
:1004700028292A2C2D2F3032333536383A3B3D3E51
:100480004042434547494A4C4E5051535557595A9B
:100490005C5E6062646668696B6D6F7173757779B5
:1004A0007B7D7F81838587898A8C8E9092949698B4
:1004B0009A9C9E9FA1A3A5A7A8AAACAEAFB1B3B4C6
:1004C000B6B8B9BBBCBEBFC1C2C3C5C6C7C9CACB1B
:1004D000CCCDCED0D1D2D2D3D4D5D6D7D7D8D9D9E6
:1004E000DADADBDBDBDCDCDCDCDCDDDDDDDDDCDC4F
:1004F000DCDCDCDBDBDBDADAD9D9D8D7D7D6D5D46C
:10050000D3D2D2D1D0CECDCCCBCAC9C7C6C5C3C237
:10051000C1BFBEBCBBB9B8B6B4B3B1AFAEACAAA88C
:10052000A7A5A3A19F9E9C9A98969492908E8C8A40
:1005300089878583817F7D7B79777573716F6D6B1B
:100540006968666462605E5C5A5957555351504EF3
:100550004C4A4947454342403E3D3B3A38363533A5
:1005600032302F2D2C2A292826252322FFAA7F5519
:100570004000010101010101010101020202020228
:10058000020202020303030303030303040404043B
:100590000404040505050505060606060607070703
:1005A000070708080808090909090A0A0A0B0B0BBA
:1005B0000C0C0C0D0D0D0E0E0E0F0F0F1010111157
:1005C00011121213131414151516161717181819DB
:1005D000191A1A1B1B1C1D1D1E1E1F202021222242
:1005E000232424252626272829292A2B2C2D2D2E85
:1005F0002F30313232333435363738393A3B3C3D9F
:100600003E3F404142434445464748494A4C4D4E8F
:100610004F50515354555658595A5B5D5E5F616255
:1006200064656668696B6C6D6F7072737577787AE4
:100630007B7D7E8082838587888A8C8E8F9193953F
:1006400096989A9C9EA0A2A3A5A7A9ABADAFB1B363
:10065000B5B7BABCBEC0C2C4C6C9CBCDCFD1D4D643
:10066000D8DBDDDFE2E4E7E9EBEEF0F3F5F8FAFDE5
:10067000FF04033000000016034500720067006F9E
:100680000044006F007800200045005A000000166A
:10069000034500720067006F0044006F007800207F
:1006A0000045005A0000000403090409023B00024F
:1006B0000100A0FA09040000010301010009211151
:1006C0000100012240000705810308000A09040116
:1006D00000010300000009211101000122C00007F0
:1006E00005820320000A1201100100000008EDFE3F
:1006F000071301000102030105010902A10185029E
:100700000901A10005091901290515002501950513
:1007100075018102950175038101050109300931D7
:100720001581257F95027508810609381581257F79
:10073000950175088106050C0A38021581257F95FB
:100740000175088106C0C005010980A10185031A51
:1007500081002A830016010026030095017510818F
:1007600000C0050C0901A10185041A01002A9C02A0
:10077000160100269C02950175108100C005010933
:1007800006A1018505050719E029E7150025019552
:1007900008750181020507190029EF15002501954B
:1007A000F07501810205081901290595057501916A
:1007B00002950175039101C005010906A101050714
:1007C00019E029E7150025019508750181029501B9
:1007D000750881010507190029FF150026FF0095FE
:1007E000067508810005081901290595057501910F
:1007F00002950175039101C011241FBECFEFDAE00D
:10080000DEBFCDBF12E0A0E0B1E0EAEDF2E602C04B
:1008100005900D92A236B107D9F723E0A2E6B2E027
:1008200001C01D92AE3EB207E1F70E94CC290C94A4
:10083000E9300C94000080B38C7080BB81B3836F6F
:1008400081BB089584B1807F84B985B1807F85B9EB
:100850008AB1837F8AB98BB1837F8BB93E984698E2
:100860000895CF93C82F873070F58091060190913D
:100870000701892B89F564E670E080E40E94D614B4
:100880009093070180930601892BD1F464E670E010
:1008900082E10E9432159093070180930601892B13
:1008A00079F481E090E001C0880FCA95EAF764E628
:1008B00070E080950E9432159093070180930601A5
:1008C000CF910C9485158A30B9F040F4883071F0DE
:1008D000893079F0209A2898CF9108958C3091F042
:1008E00070F08D30B9F73E9A4698F6CF219A299844
:1008F000F3CF229A2A98F0CF239A2B98EDCF529AD1
:100900005A98EACF539A5B98E7CFCF93873008F095
:1009100040C08091060190910701C0E0892B71F4DD
:1009200064E670E080E40E94D614909307018093FF
:100930000601892B31F0C0E00E9485158C2FCF91E4
:10094000089564E670E083E10E94321590930701F8
:1009500080930601892B79F764E670E081E40E94B8
:10096000D6149093070180930601892B21F784E622
:1009700090E00E94611597FF05C090930701809356
:100980000601D9CFC82FC095109207011092060119
:10099000D3CFCFB18FB1869586958C73C3708C2BD6
:1009A000C82FC095CBCF08950C94D3040E9479062C
:1009B00090E090930701809306010E9422040E9418
:1009C0001B04E3E6F2E0A1E7B2E011921D9282E09F
:1009D000E137F807D1F78EE00E941A0B0C948108DA
:1009E0000E94790690E090930701809306010E948F
:1009F00022040E941B04E3E6F2E0119282E0E13758
:100A0000F807D9F70895EF92FF920F931F93CF93B2
:100A1000DF938091060190910701892B91F08091DD
:100A200062028F5F8093620281110BC00E9479067F
:100A300090E09093070180930601892B11F40E94A6
:100A40000E0601E712E0C0E0D0E087E0E82EEC0EF1
:100A50008C2F0E9431048E2D0E9431048C2F0E9415
:100A60008504F80191918F01F12C891721F03197BC
:100A70008083FF24F3948E2D0E948504F8019681D3
:100A80008917D9F0868381E08F29D82B0E94220410
:100A9000CF5FC730D1F62D2F4EE063E672E081E7DD
:100AA00092E00E949D0B0E948B0881E0DF91CF9124
:100AB0001F910F91FF90EF90089580E0E5CFE82F10
:100AC000F0E0ED59FD4F8081089508953BB1242F4A
:100AD000209523233BB1432B3FB7F894680F791F30
:100AE0008617970711F43FBF0895FC015191CF017C
:100AF000E8E04BB9000000C057FF2BB9550F0000CC
:100B000000C000C000C02BB900C0EA9591F7E8CF43
:100B10002AB1242B2AB9660F771F660F771F0E9410
:100B200066058FE391E00197F1F700C0000008959A
:100B300040E80C948805CF93DF938091940380FD67
:100B400037C0E9E9F3E011821082128213823496F1
:100B500083E0E53DF807B9F70E94D01464E670E041
:100B600084E80E94D614C9E9D3E064E670E0888185
:100B70000E94321564E670E089810E94321564E6B5
:100B800070E08A810E94321564E670E08B810E94D9
:100B90003215249683E0C53DD80739F70E948515A4
:100BA0006FE070E089E993E0DF91CF910C949805B4
:100BB000C9E9D3E0CE010E942C0D249683E0C53D07
:100BC000D807C1F7C9CF259A2D9A0895269A2E9A4B
:100BD0000895279A2F9A089556985E980895259813
:100BE0002D98089526982E98089527982F9808955F
:100BF0000E94EC050E94EF050E94F2050C94F50599
:100C000090E0909389008093880090938B0080936C
:100C10008A0090938D0080938C0008950E94F805BF
:100C20008FEF0E9400060E94E3052FEF80E792E01D
:100C3000215080409040E1F700C000000E94E6058E
:100C40002FEF80E792E0215080409040E1F700C014
:100C500000000E94E9052FEF80E792E021508040DC
:100C60009040E1F700C000000E94EF052FEF80E701
:100C700092E0215080409040E1F700C000000E94C7
:100C8000F2052FEF80E792E0215080409040E1F79D
:100C900000C000000E94F5050C94F80589EA8093D5
:100CA000800089E08093810024982C983F988AB135
:100CB0008F7C8AB96E98479A8BB180638BB9769A8C
:100CC0000E94F72160938B0370938C0380938D03B4
:100CD00090938E0367702FEF629FC001112495954A
:100CE0008795959587950E9400060E940E060C94A4
:100CF000150780E290E090930701809306018091B0
:100D00007F0281110EC00E94D01481E080937F0287
:100D10002FEF83ED90E3215080409040E1F700C039
:100D2000000064E670E080E40E94D614909307010E
:100D300080930601892B09F04EC064E670E080E0E4
:100D40000E9432159093070180930601892B09F0C8
:100D500042C064E670E080E00E9432159093070183
:100D600080930601892BB9F564E670E08FE30E9459
:100D700032159093070180930601892B61F50E943B
:100D8000851564E670E080E40E94D6149093070114
:100D900080930601892BF9F464E670E08CE00E94F0
:100DA00032159093070180930601892BA1F464E624
:100DB00070E080E00E943215909307018093060155
:100DC000892B49F464E670E08FE30E94321590931A
:100DD0000701809306010E94851580910601089500
:100DE00010928B0310928C0310928D0310928E033D
:100DF00084E0806180938B0360918B0370918C03FE
:100E000080918D0390918E030E94FB210C94072208
:100E1000611108C0FC018281882321F085EC90E0FB
:100E20000E947E0890E080E008950895FB018A30DA
:100E30002DE5920771F08B302DE5920791F0893006
:100E40009D45B1F482818823A1F00E94632280E055
:100E500008958281882369F08CEA90E00E947E08E0
:100E6000F6CF8281882329F081E00E945D11EFCFC7
:100E700081E00895CF92DF92EF92FF92CF936B01C2
:100E80007C010E947C21C82F0E94EC050E94EF0586
:100E90000E94F2050E94F505C150C73040F4EC2FC6
:100EA000F0E0E551FF4C0C94572F0E94E305C70179
:100EB000B601CF91FF90EF90DF90CF9008950E9400
:100EC000E3050E94E605F3CF0E94E3050E94E905D1
:100ED000EECF0E94E3050E94E605F8CFCF93DF93A3
:100EE0009C013A9521153F4168F5EC01CC27D17062
:100EF000DC01AA27B270AC01442754709C01222760
:100F0000387094FF11C080E1CD2B09F480E0AB2B49
:100F100009F08062452B09F08064232B09F080687A
:100F2000FB01DF91CF91099481E0CD2B09F480E0A2
:100F3000AB2B09F08260452B09F08460232B81F3F1
:100F40008860EECFDF91CF910895CF93DF93EC01CE
:100F5000805E9109089720F06CEF7AE1209711F4F8
:100F60006AE278E1CE010E946E078C2FDF91CF916B
:100F70000C943817CF93DF93EC010E94C117CE0178
:100F8000805E9109089720F063E07BE1209711F4DF
:100F900061E378E1CE01DF91CF910C946E07CF939E
:100FA000DF93EC010E94A507CE01DF91CF910C9455
:100FB000BA0781E008950C9416071F93CF93DF932F
:100FC00000D000D00F92CDB7DEB749835A836B8330
:100FD0002091B80289819A8121111BC06623A9F052
:100FE0000E943520182F682F89819A810E94DE1F68
:100FF00069817A81812F0F900F900F900F900F9041
:10100000DF91CF911F910C9402090E940C20182FA0
:10101000EFCF0E94352069817A81EDCFFC014081BC
:1010200051816281738184810C94DD071F93CF937A
:10103000DF9390E0FC01E652FD4F1491FC01E65273
:10104000FC4FD491865A9C4FFC01C491DD2319F0CA
:1010500081EE0E943817CC2319F086EE0E943817D3
:10106000812F0E941718CC2319F086EE0E94C11719
:10107000DD2331F081EEDF91CF911F910C94C117E8
:10108000DF91CF911F910895FF920F931F93CF93FC
:10109000DF938C01F62EF8018491882349F1E80151
:1010A0002196813049F4FE011491812F0E94381756
:1010B000812F0E94C11706C0823089F4FE018491FD
:1010C0000E9438178E010F5F1F4F8F2D815018F32C
:1010D000EFE9FFE03197F1F700C00000F7CF833070
:1010E00019F4FE018491E5CF0E941608E801EACFC9
:1010F000DF91CF911F910F91FF90089560E00C94C4
:1011000044080E94C921811102C00E9463220E94EA
:10111000EE0B0C944E060C94D404282F2F7041F043
:10112000822F90E02A3010F44D9608950697089586
:1011300087E290E0089508950C949B0881E008955B
:101140000C949E08CF93C82F0E949C088C2FCF919F
:101150000C94A00808950E94201B0E94AA082FEF5B
:1011600084E39CE0215080409040E1F700C0000003
:101170000C94ED230F931F93CF93DF93EC010E9408
:101180000E088C01BE010E94DB07882389F1BE0195
:10119000C8010E94650C882359F1BE01C8010E9454
:1011A0004213882329F1BE01C8010E9483138823BA
:1011B000F9F0BE01C8010E94A6148823C9F0BE013F
:1011C000C8010E946512882399F08A81882339F02A
:1011D00001158CE5180751F00E3D1C4579F0CE0144
:1011E000DF91CF911F910F910C94D9070E94AB080A
:1011F00080E0DF91CF911F910F9108950E946322AB
:10120000F7CF0895972F70E026E0929F600D711D33
:101210001124FB0194E5899FE00DF11D1124EE0FCF
:10122000FF1FEE51FF4F859194910895FC01EE0F41
:10123000FF1FE252FF4F859194910895CF93DF9362
:101240000E9402090E94400AEC01811520E59207E4
:1012500008F042C0811530E4930708F0C1C0883E11
:10126000910528F5803E910508F0A1C0883A9105C6
:1012700088F4853A910508F093C08130910509F40E
:1012800096C0009709F493C0049708F090C0D0E08E
:10129000C0E08DC08F3B910508F48DC0805C910942
:1012A000C03CD105A0F30E941609EC0180C0811555
:1012B000904250F4C11581E0D80708F078C0C03FD3
:1012C000D10528F3D06573C0C11590E3D90708F0A4
:1012D0007DC0CE019F70E7CF811525E5920758F5B7
:1012E000811534E5930708F0AAC0811542E59407FB
:1012F00050F4C11581E5D80708F475C0DC2FCC2760
:10130000C16FD06A54C0982F969596959E01237010
:101310003327C115D34508F083C0C1E0D0E002C037
:10132000CC0FDD1F2A95E2F720E2929FC001112425
:10133000C82BD92B73C0C1158AE5D807A0F4C115F5
:1013400099E5D90708F08BC0C11526E5D20708F446
:101350007BC0C11538E5D30708F499CFDC2FCC2723
:10136000C06FD06A24C0C1154BE5D40708F48FCFF5
:10137000C1158CE5D80708F480C0CE0190568115C0
:10138000904208F084CF8D2F8F710E94D70A90E091
:10139000982F882788279F719C012C2BE9015DC01D
:1013A000C55AD0E0C150DE4FC881D0E0D064CE0134
:1013B000DF91CF910895C85AD0E0CC0FDD1FCF52F6
:1013C000DE4F0990D881C02DD464F1CFCE0199278A
:1013D000D3FF03C0EC01D86CEACFEC01D06CE7CFAF
:1013E000DF70D06AE4CFCE01E4E096958795EA9568
:1013F000E1F783702C2F26952695237040E2249FD9
:1014000090011124382B8C2F8370C1E0D0E002C0F2
:10141000CC0FDD1F8A95E2F7C22BD32BDC68C7CF38
:10142000C1E0D0E002C0CC0FDD1F2A95E2F730E228
:10143000939FC0011124C82BD92BDA68B8CFD82FBD
:10144000CC27C46FD06AB3CF8C2F0E94D70AC82F85
:10145000D0E0DC2FCC27CC27DF71D062A8CF8C2F37
:101460008F700E94D70A34E0D695C7953A95E1F778
:10147000CF709C2FEC01D0699ACFDD27D06697CF33
:1014800082389105B1F1B0F48133910509F475C04A
:1014900048F48932910509F469C08A32910509F44A
:1014A00073C008958533910509F459C089339105B6
:1014B00001F10895833E9105A9F138F4803E91052C
:1014C000F9F0823E910549F10895863E9105A9F112
:1014D000873E9105C9F1843E910519F52091DC0301
:1014E00021FF1FC08091DB0384FD14C087EE90E0D4
:1014F00008952091DB032370A1F080EE90E0089521
:101500002091DB0320FD47C03091DC0330FF09C090
:1015100024FF44C090E080E004C02091DB0322FD62
:10152000F7CF08952091DB0322FD3BC03091DC030F
:1015300030FDE3CF24FFF5CFEDCF2091DB0323FF78
:10154000F0CF24FDE7CFD2CF2091DB0323FD2CC0C9
:101550003091DC0331FFEECF84EE90E008952091CE
:10156000DB0325FFDECF89E290E008952091DB03C5
:1015700025FFD7CF85E390E008952091DB0326FF78
:10158000D0CF8AE290E008952091DB0326FFC9CFF7
:1015900081E390E0089589E390E0089583EE90E080
:1015A000089582EE90E0089586EE90E0089590917F
:1015B000DB0392FF06C0282F28712830F9F4877FBB
:1015C000846093FF06C0282F28712831F1F4877EAC
:1015D00084612091DC0320FF06C0382F3871383039
:1015E000D9F4877F816021FF06C0282F2871283118
:1015F000D1F4877E816194FD877E0895282F247120
:101600002430F9F68B7F8860DCCF282F24712431B9
:1016100001F78B7E8861DDCF382F3171313019F7BA
:101620008E7F8860E0CF282F2171213121F78E7EB7
:101630008861E1CFCF93C82F90E00E94692F8093FB
:10164000810290938202282FFC019BEF8E2F821B38
:101650008C1710F0CF9108959193F8CFEF92FF92ED
:101660000F931F93CF93DF931092800250918102CA
:10167000E52FF091820240E0A62FB0E07BEF9AEFD9
:10168000E92EF12C9E2F951B981748F0409380026D
:10169000DF91CF911F910F91FF90EF90089591915D
:1016A0009B3F81F3292F30E0691768F08D01021B01
:1016B000130B98012F3031056CF09F012150310937
:1016C000E9017883DFCFE701C21BD30B9E012A0F0C
:1016D0003B1FF0CF41E0D6CF0F931F93CF93DF9303
:1016E000109283025091810230918002DB018C01C3
:1016F000E52FF091820290E08E2F851B841748F031
:101700003093800290938302DF91CF911F910F91CC
:1017100008956D91E80189918E01681751F06081FB
:101720006B3F49F42083BD0161507109EB0188834F
:1017300031E03196E1CF91E0FCCFCF92DF92EF9292
:10174000FF921F93CF93DF937C016B01C42F122F65
:101750000E9493236AEF70E00E942F2FD82F809170
:101760008002882319F16D2F8C2F0E942E0B1123DC
:1017700069F02D2F4C2FB601C701DF91CF911F913A
:10178000FF90EF90DF90CF900C946C0B80918002D3
:10179000882379F3809183028111EBCFDF91CF9180
:1017A0001F91FF90EF90DF90CF9008951111E1CF3E
:1017B000F1CFCF93DF93EC0197FF0CC0FB01828147
:1017C000882341F00E94040CCE019F770E94480CB0
:1017D0000E94300C81E0DF91CF9108958CE090E081
:1017E0000E94A13090E0B0E0A0E080938F0390933E
:1017F0009003A0939103B0939203089560918F0397
:101800008CE090E00C94B5300E94CA208093930342
:101810000E94DD2080918F03813089F0882359F068
:10182000823091F08430B9F08FE39CE90197F1F7B1
:1018300000C00000089582EE0E943817F5CF88E1BD
:1018400093E00E94CF07F0CF82EE0E94381787E521
:101850000E941718E9CF86EE0E94171888E1F8CF8A
:1018600080918F03813071F0882341F0823031F014
:10187000843061F0809193030C94DA2082EE0E9410
:10188000C117F8CF8CE20E941718F4CF88E2FBCF83
:101890000F931F93CF93DF938C01CCE0D0E0C8016E
:1018A0000C2E02C0969587950A94E2F78F700E94DD
:1018B0008D080E9417182497CC3F8FEFD80779F72F
:1018C000DF91CF911F910F9108950F931F93CF93A5
:1018D000DF93EC018B01FB018281882371F0C33E11
:1018E000FCE5DF0719F188F4C13EECE5DE07C9F03D
:1018F00081E0C23EFCE5DF0789F0B801CE01DF914F
:10190000CF911F910F910C94D90BC43E8CE5D80751
:1019100079F084E0C53EECE5DE0779F780938F032C
:1019200002C010928F030E94FE0BE7CF82E0F6CF39
:1019300083E0F4CFAF92BF92CF92DF92FF920F93EA
:101940001F93CF93DF93362F472FE82FF0E0EF5808
:10195000FA4F71110DC06491762F862FDF91CF91D0
:101960001F910F91FF90DF90CF90BF90AF9008959F
:10197000C72FD0E02491F22E022F10E056E0659F91
:10198000C0011124EFEFF0E0BF010E942F2F832F41
:1019900090E0880F991F35E5369FD001379FB00D35
:1019A00011248A1B9B0B982F990F980F6F01CC1A4B
:1019B000DD0AC09ED001C19EB00DD09EB00D112495
:1019C0008B2F949FA0011124452F55276F01C41A16
:1019D000D50AC09EA001C19E500DD09E500D11246D
:1019E0005F01A91AB108AC9E6001AD9ED00CBC9EEF
:1019F000D00C1124CD2CDD24EC19FD09E09FE00171
:101A0000E19FD00DF09FD00D1124ED2F62307105B4
:101A1000A1F048F46115710569F06130710589F034
:101A2000EB2F852F07C06430710571F088F06630A8
:101A30007105B1F76E2F722F91CFE22F2B2F8D2FC3
:101A4000F9CFE22F252FF6CFEB2F822F2D2FF2CFBC
:101A50002B2F8F2DE52FEECFFC018281208131814C
:101A6000982F281708F4922F391708F4932F93838F
:101A7000391B3183291B2083891B82830895089594
:101A8000CF93DF93762FE901682F842F0E949A0C61
:101A9000798368838A831B82DF91CF9108950F93A6
:101AA0001F93CF93DF93EC0110E000E090910A01C7
:101AB0009017110609F06CF40E949B058C8190E050
:101AC0000196817099278C83DF91CF911F910F919F
:101AD000089520918702200F312F311D220F331FCF
:101AE000220F331F27563C4F4C8160919603809103
:101AF000950396959017110651F04CF0442349F048
:101B0000409197030E94400D0F5F1F4FCFCF44239A
:101B1000B9F340E0F7CF0F931F93CF93DF938C017E
:101B2000FC01848195810196817099279583848336
:101B3000C0E0D5E580910A01C81730F0DF91CF9160
:101B40001F910F910C949B05209187022C0F332736
:101B5000331F220F331F220F331F27563C4F8C2F6A
:101B60008695F80144815581840F952F911D8170D0
:101B700040919703609196038D9F802D11240E94C0
:101B8000400DCF5FD7CF0F931F93CF9380918702E4
:101B900090910B0124E0829FF0011124E756FC4F45
:101BA000891730F1C0E060910A01C61740F10E9428
:101BB0009B052091080180918502820F8093850208
:101BC00090910901920F90930901191654F4082E6F
:101BD000000C990B40910A014150550B8417950751
:101BE0001CF0219520930801CF911F910F9108952A
:101BF00011821082128213828F5F3496D1CF0C2F04
:101C000010E070E0C8010E94432FE0918702E80FC6
:101C100080918502082E000C990B24E0E29FF001D0
:101C2000112408171907ACF080910901082E000C47
:101C3000990B801791076CF09F0127563C4F4091FC
:101C4000970360919603809195030E94400DCF5FAA
:101C5000AACFE756FC4F1182108212821382F7CF6F
:101C6000AF92BF92CF92DF92EF92FF920F931F93AA
:101C7000CF93DF93FC018281EE24EA9480FD02C0C1
:101C8000EE24E394F12C3FE0B32E80910A01F81684
:101C9000C8F00E949B058091860291E0E91255C030
:101CA000811102C080910A01815080938602DF91E8
:101CB000CF911F910F91FF90EF90DF90CF90BF9049
:101CC000AF900895C09187020F2D10E0C00FD12F63
:101CD000D11DCC0FDD1FCC0FDD1FC756DC4F198285
:101CE00018821A821B8224E0C22ED12CA12C809152
:101CF00086028A0D80311CF16B2D0E94212F892FC5
:101D0000082E000C990B0817190791F4809197037E
:101D10008C9DA0018D9D500D11245595479555958D
:101D200047959E0160919603809195030E94400D16
:101D3000AE0CF1E0CF1AD108D1F6F394A6CF87FF0D
:101D4000DFCF90910A01890FDBCF90E0019660917F
:101D50000A0170E00E94432FA8CFFF920F931F93B8
:101D6000CF93DF93EC01F12C0FEF10E060910A01AB
:101D7000F61670F00E949B059A818C8190FF24C01A
:101D80008F5F8C83DF91CF911F910F91FF9008950A
:101D9000209187022F0D3327331F220F331F220F6D
:101DA000331F27563C4F70E0C8010E94432F962FE7
:101DB0008C814091970360919603F99E800D1124C8
:101DC0000E94400DF394D2CF8150DBCF80919403D9
:101DD000982F9E7F29F481708260809394030895E8
:101DE0008A34E8F381708864F8CF88E090E00C943E
:101DF000A930CF92DF92EF92FF926B017C010E949B
:101E0000E60EB701A60188E090E0FF90EF90DF902A
:101E1000CF900C94C730E4E9F3E083E08083118233
:101E20008FEF8283838314826081718182819381A9
:101E30000C94F90E8091940380FF02C0869508955A
:101E400080E00895E4E9F3E080818E7F8083608103
:101E50007181828193810E94F90E109290022FEF7E
:101E600080E792E0215080409040E1F700C0000000
:101E70000C949B05E4E9F3E080818E7F80831092CF
:101E800090022FEF80E792E0215080409040E1F7F0
:101E900000C000000C949B0580919803833018F4D7
:101EA0008F5F809398036091940370919503809164
:101EB0009603909197030C94F90E809198038823D0
:101EC00019F0815080939803609194037091950369
:101ED00080919603909197030C94F90E909194033E
:101EE00090FF15C09091870220910B0134E0939FE1
:101EF000F0011124E756FC4F921710F00C949B054B
:101F000081836083428313829F5F3496F5CF089567
:101F1000CF93DF9300D000D0CDB7DEB7909194037C
:101F200090FF0AC09E012F5F3F4F0E94400D4B81E2
:101F300069818A810E946E0F0F900F900F900F9011
:101F4000DF91CF910895CF93DF93EC01EC81F0E026
:101F5000E459FB4F4491E4E9F3E0628181810E94FE
:101F6000880F8C818F5F8C83DF91CF910895CF9301
:101F7000DF93EC01E4E9F3E0438162818C810E940C
:101F8000880F8C818F5F8C83DF91CF910895AF9202
:101F9000BF92CF92DF92EF92FF920F931F93CF9356
:101FA000DF9300D000D0CDB7DEB7182FF62E042F68
:101FB000E22E9091940390FF29C0E92FE695AE2F71
:101FC000B0E0AE5FBD4F8C9180938F029E7F9230C8
:101FD00061F59E012F5F3F4F812F0E94400D4B8185
:101FE00069818A810E946E0F10939503F092960387
:101FF00000939703EE2051F0609194037091950344
:1020000080919603909197030E94F90E0F900F9084
:102010000F900F90DF91CF911F910F91FF90EF9054
:10202000DF90CF90BF90AF900895823019F4009167
:102030009703DACF863019F410919503D5CF893004
:10204000D9F3893189F6E9518E2F8170D82EE69522
:10205000F0E0E459FA4FA590B490C12CBB246091F4
:102060000A01C61618F00E949B05BECFEC2DF0E0C9
:10207000AE9EC001AF9E900DBE9E900D112470E0EB
:102080000E942F2F812FD11012C0860F209187021E
:102090002E0F3F2F311D220F331F220F331F2756C4
:1020A0003C4F402F6F2D0E94400DC394D8CF861B0C
:1020B000EDCFE4E9F3E09181282F438162818CE048
:1020C000890F0C94C70F81E00C945910E4E9F3E0F8
:1020D0009181282F4381628184EF890F0C94C70F6F
:1020E00081E00C946610E4E9F3E062812FEF620F67
:1020F00008F46FEF282F438181810C94C70F81E092
:102100000C947310E4E9F3E062812FEF621B08F492
:1021100060E0282F438181810C94C70F81E00C94EB
:102120008210E4E9F3E043812CE0420F08F44FEF22
:10213000282F628181810C94C70F81E00C9491104B
:10214000E4E9F3E043812CE0421B08F440E0282F4F
:10215000628181810C94C70F81E00C94A01020E073
:102160000C94C70F0F931F93CF93DF9300D000D031
:10217000CDB7DEB78C018091840281110AC09E0127
:102180002F5F3F4F4FEF6FEF0E94400D8A8180938A
:102190008402F8016481613069F08091840240E03A
:1021A000662361F040E0623011F44091840280E0E7
:1021B00060E004C06091840240E080E00E946E0F05
:1021C000F801848190E0019663E070E00E94432F63
:1021D00084830F900F900F900F90DF91CF911F91FC
:1021E0000F91089560919403669570E04BE050E084
:1021F0008CE091E00E949430892B19F481E0809367
:1022000090020E94932390938902809388020895FC
:102210009091940390FF35C09170811128C0926015
:1022200090939403662351F0609194037091950309
:1022300080919603909197030E94F90E6091940308
:10224000669570E04BE050E08CE091E00E949430A5
:10225000892BA1F01092900281E080938B02409133
:10226000970360919603809195030C94AF1085328B
:1022700010F09864D5CF880F982BD2CF0E94F2101F
:10228000EBCF0895682F90919403969581E0890F84
:10229000853208F081E00C94081181E00C94421121
:1022A000682F9091940396958FEF890F09F484E23B
:1022B0000C94081181E00C94501161E00C94081109
:1022C000E4E9F3E080818160808386950C945D1160
:1022D0008091940380FD0C94220F0C94601160E0B7
:1022E0000C94081180918E0281112EC00E94C92188
:1022F000811104C00E9463220E940B0F0E94F50E00
:10230000609394037093950380939603909397033F
:102310006E7F61F40E940B0F0E94F50E6093940390
:102320007093950380939603909397030E94E60E13
:10233000109290028091940380FF03C086950E94C2
:102340006F1181E080938E020895E4E9F3E08081CB
:102350008160808386950C946F111092900208958D
:102360000F931F93CF93DF9380919002882309F4FA
:102370008DC080918F02E0919403E695E81BE09375
:102380008A028230C9F5F0E0E859FB4FE491CE2F84
:10239000D0E003EA1FE080918B02882389F010923D
:1023A0008B020E9493239E0120953095820F931FEC
:1023B000909389028093880210928D0210928C0271
:1023C00080918802909189020E949F238C179D071B
:1023D00008F45CC0E0918802F0918902CE0FDF1F03
:1023E000D0938902C093880288E892E0F801DF91D7
:1023F000CF911F910F910994863049F4F0E0EB5989
:10240000FB4FE491CE2FD0E007EB1FE0C4CF893023
:1024100051F4E695F0E0EE59FB4FE491CE2FD0E079
:102420000DEA1EE0B8CF8F3051F4E695F0E0E15AA6
:10243000FB4FE491CE2FD0E000E31EE0ACCF85311E
:1024400049F4F0E0E45AFB4FE491CE2FD0E003ECE6
:102450001DE0A1CFC8EED3E00BE81DE0883109F400
:102460009ACF833239F4EAE5F4E0C591D49102EBD6
:1024700010E191CFC4EFD1E00FE41DE0843209F404
:102480008ACFC0EDD7E00FE31DE085CFDF91CF917C
:102490001F910F910895FA01811101C0FB01099468
:1024A000CF93DF93C82FD62F0E941A0F8C1740F0BE
:1024B0000E941A0F8D1720F4DF91CF910C944D11CB
:1024C0008C2FDF91CF910C945D110F931F93CF93BD
:1024D0008C01FB01C281CC2309F465C00E94CA2093
:1024E0008272F801E25CFC45E431F10538F4EE500B
:1024F000FF4C0C94572F0E946811C0E08C2FCF9195
:102500001F910F9108954AE551E16DE471E10E9438
:102510004B12F3CF4DE451E16AE571E1F8CF40E7AA
:1025200050E163E670E1F3CF43E650E160E770E12C
:10253000EECF4EE850E16FE770E1E9CF4FE750E1B1
:102540006EE870E1E4CF4CEA50E16DE970E1DFCF75
:102550004DE950E16CEA70E1DACF4DE55FE06CE403
:102560007FE0D5CF4CE45FE06DE57FE0D0CF81E048
:102570000E945D11C2CF65E082E00E945012BDCF83
:1025800068E086E0FACF6EE089E0F7CF64E18FE0A3
:10259000F4CF67E185E1F1CF88E1EACF62E289E13A
:1025A000ECCF83E2E5CFC1E0A9CF0F931F93CF9388
:1025B000DF93C62FD42F022FFC0182818823C9F01C
:1025C000609393020E9493239093920280939102CE
:1025D00080E28C0F883008F050C0C77081E001C0E5
:1025E000880FCA95EAF7DF91CF911F910F910C9454
:1025F0002A1810919302161335C080919102909180
:1026000092020E949F23883C910560F5C0E2CD0FA5
:102610001D17B9F080E2810F883040F4177081E017
:1026200001C0880F1A95EAF70E943118C83048F4A3
:1026300081E09D2F977001C0880F9A95EAF70E945C
:102640002A18802F0E941718C830B8F4D77081E07C
:1026500001C0880FDA95EAF7DF91CF911F910F91B2
:102660000C94311880E28C0F883038F4C77081E008
:1026700001C0880FCA95EAF7EFCFDF91CF911F9184
:102680000F9108959C01CB01233F4CE5340731F1B4
:1026900090F4283DFCE53F07E9F0293D4CE534077F
:1026A00069F1273D3C4579F426E241EE61EE0E9456
:1026B000D51280E00895253FFCE53F07B9F090F082
:1026C000263F3C45B9F0FC0182818823D1F010926D
:1026D0009302089527E245EE65EEE9CF26E241EE4A
:1026E00060EEE5CF27E245EE64EEE1CF26E241EE73
:1026F00062EEDDCF27E245EE66EED9CF28E241E07B
:10270000EBCF81E00895CF93DF93EC01FB01828151
:10271000882309F419C1C230FCE5DF07C0F1C631D6
:102720009CE5D90730F09E012A5F3C4529303105F0
:1027300070F50E94DC219093DC038093DB03C031B1
:10274000ECE5DE0709F4CFC008F05BC0C8308CE5CB
:10275000D80709F4B6C088F5C430ECE5DE0709F403
:10276000A8C0C0F4C2308CE5D80709F49CC08091A1
:10277000DB038260C330DC4509F498C08091DB0341
:102780009091DC030E94EA210E94201B80E0DF91EF
:10279000CF9108958091DB038061C630ECE5DE07C0
:1027A00009F484C08091DB038860C730DC4508F4FD
:1027B0007DC08091DB03806279C0CC308CE5D80786
:1027C00009F489C070F48091DB038C60CA30ECE5B9
:1027D000DE0709F46BC008F478C08091DB038E7FBC
:1027E00065C0CE308CE5D80709F479C08091DB0351
:1027F0008B7FCF30DC4508F459C08091DB038F7E9E
:1028000055C0CB3FECE5DE0709F457C030F5C331C6
:102810008CE5D80709F46FC078F4C131ECE5DE0728
:1028200009F465C0C231DC4509F0A8CF0E94201B25
:102830008091DB038F773AC0C5318CE5D80709F466
:1028400062C008F476C08091DC038160CA3FDC4539
:1028500009F094CF8093DC0391CFCF3FFCE5DF07F5
:1028600009F44DC088F48091DC038D7FCD3F9CE559
:10287000D90781F38091DC038E7FCE3FDC4550F396
:102880008091DC038360E6CFC130FDE5DF0709F40A
:1028900059C008F444C080E0C230DD4509F06ECF75
:1028A0000E9465226BCF8091DB0381608093DB0304
:1028B00065CF8091DB038460F9CF8091DC03826077
:1028C000C9CF8091DB038064F1CF0E94201B8091EF
:1028D000DB038068EBCF8091DB038D7FE7CF8091B6
:1028E000DB03877FE3CF8091DB038F7DDFCF809198
:1028F000DB038F7BDBCF8091DB03837FD7CF80919E
:10290000DC038C7FA7CF8091DB0382FB992790F9B2
:1029100021E0922790FB82F990FB83F9C7CF809149
:10292000DC03982F909591708E7F892B90FB81F915
:1029300091CF0E94201B9091DB03892F97FB87F991
:102940008058B4CF81E0ACCF81E021CFCF93DF932B
:10295000EB0186319C4511F50E94CA209A8199238A
:1029600099F08A7A91E009F490E0909394028111B1
:1029700009C089E20E94A5200E94192180E0DF9110
:10298000CF91089585E3F6CF80919402811104C020
:1029900089E20E94AC20F0CF85E3FBCF81E0EFCF4E
:1029A0001092B9008CE08093B8000895EF92FF92E6
:1029B0000F931F93CF93DF93182FEB011092BC005E
:1029C00084EA8093BC000E9493237C018091BC0028
:1029D00087FF27C08091B900887F883029F08091D7
:1029E000B900887F8031D9F51093BB0084E88093CB
:1029F000BC000E9493238C018091BC0087FF24C0FF
:102A00002091B900287F90E080E02831B1F081E08A
:102A100090E0203411F490E080E091958195910947
:102A20000CC0CF3FDC0791F20E9493238E199F09BF
:102A30008C179D0758F28EEF9FEFDF91CF911F917A
:102A40000F91FF90EF900895CF3FDC07A9F20E940D
:102A50009323801B910B8C179D0770F2ECCF8FEFA7
:102A60009FEFEBCF0F931F93CF93DF93EB018093F7
:102A7000BB0084E88093BC000E9493238C0180916A
:102A8000BC0087FF11C02091B900287F81E090E051
:102A9000283211F490E080E0919581959109DF91C1
:102AA000CF911F910F910895CF3FDC0741F30E9412
:102AB0009323801B910B8C179D0708F38EEF9FEFDC
:102AC000EECF0F931F93CF93DF93EC0184E88093B5
:102AD000BC000E9493238C018091BC0087FF08C03A
:102AE0008091BB0090E0DF91CF911F910F910895ED
:102AF000CF3FDC0789F30E949323801B910B8C1737
:102B00009D0750F38EEF9FEFEECF84E98093BC00DA
:102B1000089590939A02809399020895E091990202
:102B2000F0919A02309721F00190F081E02D099404
:102B300080E00895E0919902F0919A02309799F01F
:102B400020912801222359F02091DB0327FF07C0A1
:102B5000DC012C9111962C93119725E02C93028087
:102B6000F381E02D09940895E0919902F0919A0281
:102B7000309739F022E0DC012C930480F581E02DC0
:102B800009940895209197023091980228173907E7
:102B900071F09093980280939702E0919902F091DE
:102BA0009A02309721F00680F781E02D099408956C
:102BB00020919502309196022817390771F0909371
:102BC000960280939502E0919902F0919A023097D3
:102BD00021F00084F185E02D0994089585B780687F
:102BE00085BF85B7806885BF0895089508950C94C2
:102BF000F51508950C94F9150E94EE150E94F6152E
:102C00000C94F71581E008950E948A230E94D6044F
:102C10000E941F240E9472110C94FA158F929F92A9
:102C2000AF92BF92CF92DF92EF92FF920F931F93DA
:102C3000CF93DF93CDB7DEB72A970FB6F894DEBFF8
:102C40000FBECDBF0E9403050E940216811133C042
:102C50008FEF89838A831B820E9493238160782F60
:102C60009D838C8349815A816B818D810E94EE16F0
:102C70000E94B0110E94AC250E948E1590919B027B
:102C8000891709F460C00E948E1580939B022A96D2
:102C90000FB6F894DEBF0FBECDBFDF91CF911F916D
:102CA0000F91FF90EF90DF90CF90BF90AF909F90EB
:102CB0008F900C94A2088CE9C82E82E0D82E10E0E8
:102CC000F12C812F0E945F05982EF60181906F01F3
:102CD000881689F18091570381FD0E946505E12CDA
:102CE00001E089245601F1E0AF1AB108882D802354
:102CF000E9F0EE821F8391E0892D802309F490E0B2
:102D000098870E9493238160782F9A8789874E81C4
:102D10005F8168858A850E94EE16F5018081802793
:102D20008083F394F3E0FF1508F4A2CFE394000F3F
:102D300086E0E812DBCF1F5F1E3009F0C2CFFF2014
:102D400009F486CF95CF2A960FB6F894DEBF0FBE52
:102D5000CDBFDF91CF911F910F91FF90EF90DF904A
:102D6000CF90BF90AF909F908F900895CF93DF93B7
:102D7000DC018C91682F70E021E030E001C0220F6F
:102D80008A95EAF711964C91119750E0EA01C655E1
:102D9000DD4F988112968C9112978823C9F080910B
:102DA000BA028823C1F086E0849FF001859FF00D70
:102DB0001124E60FF71FEE0FFF1FE75DFE4F408166
:102DC00051814D935C93292B2883DF91CF910895F6
:102DD000892F8223E6CF20952923F6CFCF93DF9347
:102DE000CDB7DEB72B970FB6F894DEBF0FBECDBFC1
:102DF0004F83588769877A878B878A859B85892B3C
:102E000021F0CA0189238F3FE1F41E821D8285E0F3
:102E1000FE013796DE01119601900D928A95E1F739
:102E200049815A816B817C818D819E810E94C01D68
:102E30002B960FB6F894DEBF0FBECDBFDF91CF91BA
:102E40000895CE0107960E94B616DFCFFC0180815F
:102E500091810E94772092959F70963041F48091E5
:102E6000BA0291E089278093BA029093B90208953B
:102E7000CF93C82F882309F482C08238C1F40E94FE
:102E80008E1581FD7CC089E30E94A5200E94192136
:102E90002FEF81EE94E0215080409040E1F700C098
:102EA000000089E30E94AC20CF910C941921833853
:102EB000A1F40E948E1580FD62C083E50E94A520CA
:102EC0000E9419212FEF81EE94E021508040904024
:102ED000E1F700C0000083E5E5CF8438A1F40E944B
:102EE0008E1582FD4CC087E40E94A5200E94192106
:102EF0002FEF81EE94E0215080409040E1F700C038
:102F0000000087E4CFCF8CEF8C0F813A48F48C2FF0
:102F10000E94A727811133C08C2F0E94A520C4CF07
:102F200080E28C0F883048F4C77081E001C0880FC0
:102F3000CA95EAF70E94CD20B7CFEBE5EC0FE3305E
:102F400040F4F0E0EB5AFD4F808190E0CF910C947B
:102F5000C215E8E5EC0FE73150F4F0E0EE0FFF1F8B
:102F6000E95DFD4F80819181CF910C94D815C03FD0
:102F700030F08C2F0E94BA24CF910C94A125CF91D0
:102F80000895882309F452C0823871F40E948E1586
:102F900081FF4CC089E30E94A5200E94192189E38A
:102FA0000E94AC200C941921833859F40E948E158C
:102FB00080FF3CC083E50E94A5200E94192183E583
:102FC000EFCF843859F40E948E1582FF2FC087E41A
:102FD0000E94A5200E94192187E4E2CF9CEF980F60
:102FE000913AF0F290E2980F983050F4877091E0A7
:102FF00001C0990F8A95EAF7892F0E94D320D2CF7A
:103000009BE5980F933020F490E080E00C94C2157B
:1030100098E5980F973120F490E080E00C94D81553
:10302000803F20F00E9422250C94A1250895CF9383
:10303000C82F0E943817C93349F42FEF87EE93E069
:10304000215080409040E1F700C000008C2FCF91CC
:103050000C94C117882321F00E94CD200C941921D3
:103060000895882321F00E94D3200C9419210895FB
:10307000BF92CF92DF92EF92FF920F931F93CF9365
:10308000DF937C01D62FC72FFC01058102950F70BD
:10309000128111110E94ED200E94C320D82E882396
:1030A00071F01123B1F080E28D0F883090F082E052
:1030B0000E9464210E94C32091E0D82ED926CC2EF4
:1030C000C2949FE0C922EC2DF0E0EA5FFE4C0C9424
:1030D000572FD12CF4CF0C2F0F70C07F11F0029519
:1030E000007F1123A9F0002359F080E28D0F883072
:1030F00010F0D11109C0802F0E94CD200E9419210B
:103100008D2F0E94381714C0802F0E94E020F6CF28
:103110008D2F0E94C117002359F080E28D0F883057
:1031200010F0D1112CC0802F0E94D3200E941921B1
:103130002C2D2850330B2430310520F40E948E159D
:103140000E94A208DD2009F423C20E94BF2080FD56
:103150001FC2F70112820E94B9200E94421FC701BC
:103160000E94D21A0E94B920DF91CF911F910F9136
:10317000FF90EF90DF90CF90BF900C94631F802F53
:103180000E94E620D3CFFC2FFF70BF2EC07FC0323D
:1031900019F0B29480EFB822DD2339F0D13019F163
:1031A000112359F1002321F1ABCF112381F001113B
:1031B00006C00E9400218B290E942A18B9CF013035
:1031C000C1F70E9400218B290E940621B1CF011175
:1031D00006C00E940F218B2D0E943118A9CF01300B
:1031E00009F4A6CFF6CF112329F0023008F0A0CFC2
:1031F0008B2DE2CF01119CCFEECF002361F3D933A9
:1032000049F42FEF37EE83E0215030408040E1F762
:1032100000C000008D2F0E94C1178ACF8C2F869589
:103220008695837069F0813009F082CF8D2F9C2FB5
:103230009370111102C090E080E00E94D81578CF01
:103240008D2F9C2F9370111102C090E080E00E949E
:10325000C2156ECF112309F1D53F99F0D63FB9F0D1
:10326000D43F49F48091D5039091D6038160909327
:10327000D6038093D5038D2F0E94BA240E94A125E6
:1032800057CF8091D5039091D6038260F0CF809183
:10329000D5039091D6038460EACFD53F89F0D63F1D
:1032A000A9F0D43F49F48091D5039091D6038E7F45
:1032B0009093D6038093D5038D2F0E942225DECFD5
:1032C0008091D5039091D6038D7FF2CF8091D50365
:1032D0009091D6038B7FECCF8C2F837009F041C087
:1032E000111126CF4D2F429546954770440F440F3C
:1032F0000D2F0F7010E030E020E0042E04C0000F0E
:10330000111F221F331F0A94D2F760E070E0CB0137
:10331000D4FF0FC06FE070E080E090E004C0660F63
:10332000771F881F991F4A95D2F7609570958095F1
:103330009095C695C695C370602B712B822B932BED
:10334000C23049F058F4C13019F00E94F61EF0CE98
:103350000E94E41EEDCE0E94081FEACE0E94E21EEB
:10336000E7CE8695112311F08C2F8170882309F404
:10337000DFCE4D2F429546954770440F440F0D2FD9
:103380000F7010E030E020E0042E04C0000F111F89
:10339000221F331F0A94D2F760E070E0CB01D4FF04
:1033A0000FC06FE070E080E090E004C0660F771F10
:1033B000881F991F4A95D2F76095709580959095D2
:1033C000C695C695C370602B712B822B932BC23090
:1033D00049F058F4C13019F00E94B91FA9CE0E94DB
:1033E000A71FA6CE0E94CB1FA3CE0E941C1FA0CE5B
:1033F000CF70112329F08C2F0E94421F8D2FDCCE1D
:103400008D2F0E9431188C2F0E94631F91CED23FC6
:1034100081F160F4D03FC9F0D13F21F1112309F4CB
:1034200041C001116DCE8C2F8F7120C0D33F31F17F
:10343000D43FA1F7112361F1CF718C2F0E94421F5D
:1034400063E08C2F0E944F2173CE112339F00111BC
:103450006FCE8C2F8F710E94861F6ACE023008F0CB
:1034600067CEF7CF8C2F8F71112371F20E94421F0C
:103470005FCE8C2F8F711123C9F3C6CF112329F092
:103480008C2F8F710E942D1F53CE0E94281F50CE6B
:1034900081E00E946421023008F44ACE82E00E945A
:1034A000642146CE002359F0D93309F0B3CE9FEF03
:1034B000E7EEF3E09150E040F040E1F7A9CE8C2F29
:1034C0008F71A2CF4C2F4F706D2FC7010E9408073C
:1034D0000E945A1E2DCED23F71F1C8F4D03F01F1A7
:1034E000D13FB9F18091B902002309F446C0882385
:1034F00041F08091BA0291E089278093BA0210923C
:10350000B9028D2F112389F10E94381716C0D43FBC
:10351000D9F078F0D53F31F711110FC081E006C026
:10352000112359F08091BA0291E089278093BA0261
:1035300004C081E018271093BA024C2F4F706D2FF2
:10354000C7010E940109F4CD1111F7CF1092BA0200
:10355000F4CF112339F08091B902882319F3109226
:10356000B902EBCF0023F1F2E8CF0E94C11786E049
:10357000F70111928A95E9F7E0CF8823F1F2111152
:10358000DCCF8091BA0291E089278093BA02E7CF1D
:10359000DF91CF911F910F91FF90EF90DF90CF902F
:1035A000BF9008950F931F93CF93DF93EC018B810E
:1035B0009C81892B29F08881998189238F3F29F467
:1035C000DF91CF911F910F910895CE010E94BA080B
:1035D0008823B1F3688179818A810E9481208C01DE
:1035E0000E94DD1F0E94E11EB801CE01DF91CF9144
:1035F0001F910F910C943818882321F00E94E0202D
:103600000C9419210895882321F00E94E6200C943F
:10361000192108950E94ED200E94FD200E94192189
:103620000E9443260E94A12590E080E00E94C215DE
:1036300090E080E00C94D8150E94B3200C940A1BF3
:103640000E94DD200C941C1BE92FE295EF70E250E4
:10365000EE3070F4F0E0EA5EFE4C0C94572F803FA1
:1036600019F020F4883E20F481E00895843FE1F3CE
:1036700080E00895883EC0F3813FD1F7F5CF93FBFA
:10368000882780F908950E9477200C94241BCF93FB
:10369000DF9300D000D00F92CDB7DEB70F900F9020
:1036A0000F900F900F90DF91CF910895CF93DF93FC
:1036B00000D000D000D0CDB7DEB726960FB6F89474
:1036C000DEBF0FBECDBFDF91CF9108951F93CF9383
:1036D000DF93C091BB0216E08091BC028C1304C042
:1036E000DF91CF911F910895D0E01C9FF0011D9FA5
:1036F000F00D1124E354FD4F4081518162817381AB
:10370000848195810E94561B2196C770E5CF409118
:10371000ED025091EE026091EF027091F002809103
:10372000F1029091F2020C94561B1F93CF93DF93FA
:103730008091F202807FC1F48091EF028823A1F092
:103740008091BB02C091BC026091ED027091EE02CB
:103750004091F0025091F102D62FD723DA01A095C3
:10376000B09516E0C81304C0DF91CF911F91089562
:1037700090E04115510511F0DF3F31F4019687705B
:10378000F1CF2A0F3B1F17C0189FF001199FF00DB2
:103790001124E354FD4F21812713F0CF20812613FC
:1037A000EDCF22812111EACF2381348124173507FF
:1037B00040F3241B350B283C310500F72091F20221
:1037C0002F7020612093F20226E0289FF001299FAC
:1037D000F00D1124EE53FD4F80818F708061808346
:1037E0008DEE92E00E94D21ADF91CF911F910C943E
:1037F000661BBF92CF92DF92EF92FF920F931F93BF
:10380000CF93DF93CDB7DEB761970FB6F894DEBFE5
:103810000FBECDBF8C0185E0F801DE011D96019041
:103820000D928A95E1F7D8014C9111965C91119710
:103830001296EC9012978091F0029091F10200970D
:1038400009F47FC12091ED023091EE02622F6323D3
:103850006F3F09F476C11396CD90DC90B090EF02E3
:10386000BB2009F411C1C816D906D0F1F601E81B36
:10387000F90BCF01FF24F394883C910508F0F12C5B
:103880008091F202982F907FFF2009F4B8C0911127
:103890007FC0FE2C351329C0241327C0E11025C09A
:1038A0008F7080618093F2020E94871B8DEE92E000
:1038B0000E94D21A8091F202D80115968C938F2D16
:1038C00061960FB6F894DEBF0FBECDBFDF91CF91EA
:1038D0001F910F91FF90EF90DF90CF90BF900895D0
:1038E000809590958C0D9D1DC5CFCD2829F0852FF5
:1038F00084238F3F09F041C180E0B82FB170DB2EE7
:1039000080FF3CC08091BB022091BC0236E0821354
:1039100015C04D875E878D859E850E947720292F53
:1039200022952F702230F0F0243018F59F70F1F0BE
:10393000F8019581907FD1F4D12C1EC090E0389F82
:10394000F001399FF00D1124E354FD4F618165139F
:1039500006C06081641303C06281E6120FC0019645
:103960008770D5CF9F7011F0882331F3805E883047
:1039700018F3C8010E94D21AFD2CA1CFEE2009F441
:103980009ECF8091F20281608093F202F12C97CF5A
:10399000351306C0241304C0D801EE2009F49AC0E0
:1039A0004D875E878D859E850E94431B882319F174
:1039B000EE2009F18091F202803270F02091ED0248
:1039C0003091EE0238872F831986DB86CA868C8772
:1039D000CE0107960E94D21A86E0F801ADEEB2E061
:1039E00001900D928A95E1F70E94951B0E94871B1A
:1039F000FF24F39464CFC8010E94D21AF9CF911129
:103A000013C07C2DD98AC88A6E2D89890E94471BD4
:103A10008DEE92E00E94D21A86E0EDEEF2E0DF0138
:103A20001D928A95E9F763C0351312C0241310C0A4
:103A3000E1100EC0F8018583C8010E94D21AEDEE94
:103A4000F2E086E0DF011D928A95E9F7FB2C37CF83
:103A50004D875E878D859E850E94431B882359F282
:103A6000EE2049F28091F202803208F4B5CF209125
:103A7000ED023091EE023A8329831B82DD82CC82F3
:103A80008E83CE010196A6CFC816D90698F1F6010D
:103A9000E81BF90BCF01F12C883C910508F049C0D7
:103AA000FE2CEE2009F4A7CF351332C0241330C00A
:103AB0008091F20280FD23C0982F907F01F1D80100
:103AC00015968C931597903F39F0982F907F905FC3
:103AD0008F70892B15968C93C8010E94D21A86E0AC
:103AE000F801ADEEB2E001900D928A95E1F70E94E7
:103AF000871BE5CE809590958C0D9D1DCCCF86E0E3
:103B0000F801ADEEB2E001900D928A95E1F7D7CEC3
:103B10004D875E878D859E850E94431B81115CCFFA
:103B20008091F20281608093F202C8010E94D21A51
:103B3000C6CE7C2DD98AC88A6E2D89890E94471BE2
:103B40006BCFEE2009F457CF4D875E878D859E851C
:103B50000E94431BF82E882309F44DCF86E0F8011C
:103B6000ADEEB2E001900D928A95E1F78DEE92E014
:103B70000E9426170E94951BBACF81E08E25BDCEEC
:103B80001F93CF93DF93CDB7DEB72C970FB6F89482
:103B9000DEBF0FBECDBF4F83588769877A878B877B
:103BA0009C87CE0107960E94F91B882369F08A85BD
:103BB0009B85892B39F04F815885842F85238F3F32
:103BC00009F071C016E05FC086E0FE013796DE01A5
:103BD000119601900D928A95E1F78A859B85892B34
:103BE00089F388859F8189238F3F61F32091BC02EF
:103BF00030E0C9010196877099274091BB024817B0
:103C0000190671F40E94201B1092BC021092BB0294
:103C100086E0EDEEF2E0DF011D928A95E9F7D2CF62
:103C200096E0929FD001939FB00D1124A354BD4FF5
:103C3000FE01319601900D929A95E1F78093BC02B6
:103C40000E94661BBFCF819FC001112483549D4FEA
:103C50000E94F91B8823E9F0E091BB021E9FF0014E
:103C60001124E354FD4F408151816281738184812D
:103C700095810E94561B8091BB0290E0019687704F
:103C800099278093BB028091BB029091BC0289135B
:103C9000DACF2C960FB6F894DEBF0FBECDBFDF9102
:103CA000CF911F91089569857A858B859C850E94A7
:103CB000561B88CFEF92FF920F931F93CF93DF9302
:103CC0008C01892B81F0F12CEE24E394E8012196FC
:103CD000F8018491843770F4843008F05FC081303B
:103CE000B1F08230A1F1DF91CF911F910F91FF9040
:103CF000EF900895853709F44CC008F43DC09CE767
:103D0000980F903780F78F770E94C11749C00E5FD8
:103D10001F4FFE01849190E2980F983060F48770F5
:103D2000FE2D01C0FF0F8A95EAF78F2F0E94F02029
:103D30000E94192102C00E9438178F2D815030F245
:103D4000EFE9FFE03197F1F700C00000F7CF0E5F19
:103D50001F4FFE01849190E2980F983050F48770C5
:103D6000FE2D01C0FF0F8A95EAF78F2F0E94F620E3
:103D7000DFCF0E94C117E1CF0E5F1F4FFE01C4913C
:103D8000C150D8F28FE99FE00197F1F700C0000021
:103D9000F7CF0E5F1F4FFE01F490CFCF0E94381770
:103DA0008E01CBCF08950C94D21E0E94D31E609337
:103DB0002E0370932F0380933003909331030C9460
:103DC0000A1B08950C94D51E0F931F9300912E0388
:103DD00010912F032091300330913103602B712B10
:103DE000822B932B1F910F910C94D51E0F931F9331
:103DF00000912E0310912F03209130033091310355
:103E000060237123822393231F910F910C94D51E5D
:103E10000F931F9300912E0310912F0320913003D5
:103E20003091310360277127822793271F910F91CB
:103E30000C94D51E0C943A070E941A1F60932A0313
:103E400070932B0380932C0390932D030C940A1BE7
:103E500060E070E0CB010C941C1F0F931F9341E0B6
:103E600050E060E070E08A019B0104C0000F111F68
:103E7000221F331F8A95D2F7C901B8011F910F91F4
:103E80000C941C1F0F931F9341E050E060E070E022
:103E900004C0440F551F661F771F8A95D2F7809183
:103EA0002A0390912B03A0912C03B0912D038A013A
:103EB0009B01082B192B2A2B3B2BC901B8011F9101
:103EC0000F910C941C1F0F931F9341E050E060E092
:103ED00070E004C0440F551F661F771F8A95D2F704
:103EE000CB01BA01609570958095909500912A0359
:103EF00010912B0320912C0330912D03602371230B
:103F0000822393231F910F910C941C1F0F931F93D7
:103F100041E050E060E070E004C0440F551F661FB0
:103F2000771F8A95D2F780912A0390912B03A09155
:103F30002C03B0912D038A019B01082719272A27FA
:103F40003B27C901B8011F910F910C941C1F0F93BF
:103F50001F9300912A0310912B0320912C03309181
:103F60002D03602B712B822B932B1F910F910C949F
:103F70001C1F0F931F9300912A0310912B03209174
:103F80002C0330912D0360237123822393231F91EF
:103F90000F910C941C1F0F931F9300912A031091F3
:103FA0002B0320912C0330912D036027712782274A
:103FB00093271F910F910C941C1F0895E92FEE0F6A
:103FC000E90FEE0F8E0F982F977041E001C0440F5C
:103FD0009A95EAF786958695869595E0899FF001F2
:103FE0001124ED50FD4F30E020E070E05191DF01F1
:103FF0001197CB01022E02C0969587950A94E2F79D
:10400000817081958527842385278C932F5F3F4F6F
:104010002530310559F70895E92FEE0FE90FEE0F1E
:104020008E0F982F977086958695869525E0829FAE
:10403000F0011124ED50FD4F50E040E080E021916F
:1040400030E0092E02C0369527950A94E2F72170D8
:104050003327042E01C0220F0A94EAF7822B4F5F08
:104060005F4F4530510559F70895BF92CF92DF92C7
:10407000EF92FF920F931F93CF93DF938C01C09029
:104080002A03D0902B03E0902C03F0902D03809115
:104090002E0390912F03A0913003B0913103C82AD1
:1040A000D92AEA2AFB2ACFE1D0E0BC2ED701C601EB
:1040B0000C2E04C0B695A795979587950A94D2F7CC
:1040C00080FD0EC0219788F7B12C8B2DDF91CF9109
:1040D0001F910F91FF90EF90DF90CF90BF900895C8
:1040E000B8018C2F0E941E09019761F3EECFCF9388
:1040F000DF93EC010E943520BE01DF91CF910C943B
:104100001E091F93CF93DF93EB019091B80299237F
:1041100031F0CB01DF91CF911F910C947720882350
:1041200079F0CB010E943520182F682FCE010E9414
:10413000DE1FBE01812FDF91CF911F910C941E09CC
:10414000CB010E940C20182FF4CF682F809117010B
:10415000909118010C94CE22682F809117019091B4
:1041600018010C94D92280911701909118010C9498
:10417000E4228091320385958595859508958091F7
:1041800032038770089590913203977081E009F4AB
:1041900080E0089580915603089590915603892BED
:1041A0008093560308958095909156039823909399
:1041B0005603089580935603089510925603089568
:1041C00090915503892B8093550308958095909184
:1041D000550398239093550308951092550308951D
:1041E00090915403892B8093540308958095909166
:1041F0005403982390935403089510925403089500
:1042000080913303089508950C9403219091330312
:10421000981721F0809333030C9404210895809122
:104220003303882329F01092330380E00C94042197
:104230000895E0911701F091180180915603808351
:10424000E0911701F0911801808190915503892B1D
:104250008083E0911701F0911801808190915403BF
:10426000892B808390913303992381F0E09117018A
:10427000F09118018081892B8083809117019091A2
:1042800018010E946A2281110E940F21809117015A
:10429000909118010C949A1508950C944C2198E073
:1042A000899F90011124622B609332030E94421F68
:1042B000809132038595859585950C944D211092BA
:1042C000320380E00C944D21909132038095892334
:1042D00080933203282F277071F4282F082E000CAA
:1042E000330B9217130639F08595859585950E94B5
:1042F000631F0C945F210895CF92DF92EF92FF929B
:104300006C01EE24FF2420E0C114D104E104F10487
:1043100019F0C701B60120E1C72ED82EE92EFF24DF
:10432000C114D104E104F10419F0285FC701B601FA
:104330006B017C0154E0F694E794D794C7945A95A6
:10434000D1F7C114D104E104F10419F02C5FC701C5
:10435000B6016B017C0142E0F694E794D794C794D0
:104360004A95D1F7C114D104E104F10419F02E5F8C
:10437000C701B6019695879577956795672B682B4A
:10438000692B09F02F5F822FFF90EF90DF90CF9085
:10439000089590E080E00E94AF3021E08C3E9E4F77
:1043A00009F020E0822F089582E090E00C94A13083
:1043B00083E090E00C94A130CF9384E090E00E94E1
:1043C000A130C82F81E290E00E94A130982F8C2F5D
:1043D000CF910895CF93C92F682F84E090E00E9479
:1043E000B5306C2F81E290E0CF910C94B5308FE026
:1043F00090E00C94A930AB01BC018FE090E00C94EC
:10440000C730AB01BC0183E190E00C94C73060E0A1
:1044100070E0CB010C9401226CEE7EEF90E080E026
:104420000E94D33060E082E090E00E94B53060E00E
:1044300083E090E00E94B53010922E0310922F037B
:10444000109230031092310360E084E090E00E940B
:10445000B53060E081E290E00E94B53060E085E038
:1044600090E00E94B53060E086E090E00E94B530B8
:104470006FEF87E090E00E94B53040E050E0BA0175
:1044800088E090E00E94C73060E08DE090E00E94FC
:10449000B53040E050E0BA0188E190E00E94C730BA
:1044A00060E087E190E00E94B53040E050E0BA0162
:1044B0008CE190E00E94C73060E080E290E00E94D2
:1044C000B5300C94F0060C940C22682F8EE090E02E
:1044D0000C94B530FC01329680912801882321F09C
:1044E0008091DB039EE187FF96E080E0915008F425
:1044F000089521912223D1F38F5FF8CF9C01FC0115
:1045000032969FEF80E04191461751F09F3F19F49A
:10451000411101C0982F8F5F8630A9F79F3F09F4A2
:104520000895290F311D97FD3A95F9016283089589
:10453000FC01329608962191261303C0DF011197E2
:104540001C92E817F907B9F70895E62FE695E69566
:10455000E695EE3168F4E80FF92FF11D677021E060
:1045600030E001C0220F6A95EAF78281822B8283B4
:104570000895E62FE695E695E695EE3170F4E80F9E
:10458000F92FF11D677021E030E001C0220F6A951C
:10459000EAF720958281282322830895209128011B
:1045A000222329F02091DB0327FD0C94A5220C94F3
:1045B0007E2220912801222329F02091DB0327FD70
:1045C0000C94B9220C949822FC0132968091280117
:1045D000882351F08091DB0387FF06C08EE1DF0165
:1045E0001D928A95E9F7089586E0F9CF08950C9415
:1045F000F6220E94F7228091E103843009F439C049
:104600001092580388E190E020E40FB6F894A89542
:10461000809360000FBE2093600080E00E94A2089B
:104620000E94AD118091590381110AC081E08093ED
:10463000590380919403817080935A030E943A0F2A
:104640000E94F72283B7817F846083BF83B7816034
:1046500083BF7894889583B78E7F83BF0FB6F89415
:10466000A89580916000886180936000109260003E
:104670000FBE08950895CF930E94F0040E94030591
:104680000E943A23C0E08C2F0E945F05811105C073
:10469000CF5FCE30C1F7CF91089581E0FCCF089570
:1046A0000C944F230E94201B0E948E150E94A2088A
:1046B0001092590380915A0381110E94A5110E9402
:1046C000F2100C9450231F921FB61F9211248F9347
:1046D0009F93AF93BF9380915803811113C0809132
:1046E000D7039091D803A091D903B091DA034196F2
:1046F000A11DB11D8093D7039093D803A093D90334
:10470000B093DA03BF91AF919F918F911F901FBE1D
:104710001F90189582E084BD93E095BD9AEF97BDF8
:1047200080936E0008952FB7F8948091D7039091ED
:10473000D803A091D903B091DA032FBF0895CF9287
:10474000DF92EF92FF920F931F932FB7F89440914F
:10475000D7035091D8036091D9037091DA032FBF2A
:104760006A017B01EE24FF248C0130E020E0C016BA
:10477000D106E206F30650F0481B590BCA011F91FF
:104780000F91FF90EF90DF90CF9008954150510925
:10479000F3CF78941F921FB61F9211248F939F938B
:1047A000AF93BF938091D7039091D803A091D90381
:1047B000B091DA030196A11DB11D8093D7039093A8
:1047C000D803A093D903B093DA03BF91AF919F911F
:1047D0008F911F901FBE1F901895F89481E08093D1
:1047E000E00080E28093D800E9ECF0E010828FE1F5
:1047F0009EE40197F1F700C000001DBA1092680016
:104800001CBC10BE1FBA10927A0010926E0010925B
:104810006F0010927100109272001082ECEBF0E0C9
:10482000108214B817B81AB81DB810BA108215B88B
:1048300018B81BB81EB811BA0C94003F08950E9416
:10484000C921811102C00E9463220E94D421809359
:1048500057030E94DC219093DC038093DB030E94CA
:10486000D821682F70E090E080E00C94E21E8091E7
:104870005F0380FF12C060911C0185E0689FB0015A
:104880001124759567957595679560387105A8F53C
:1048900061157105A1F1862F089581FF09C060910E
:1048A0001C0185E0689FB001112475956795EDCFD7
:1048B00060911C0182FD0AC080915E038823D1F0C3
:1048C00090911B0160911C01891728F085E0689F79
:1048D000B0011124DACF869FB001112485E0869FB4
:1048E0009001879F300D1124692F70E0C9010E944B
:1048F000432FCBCF65E070E0CECF8FE7089581E006
:10490000089580915F0380FF0CC060911A0170E0F0
:1049100075956795759567956115710549F1862FB0
:10492000089581FF06C060911A0170E07595679542
:10493000F3CF60911A0182FD0BC090915E03992321
:10494000A1F06091190180911A01961738F0682F33
:1049500070E06038710500F38FE70895899FC0010A
:10496000112470E00E94432FF4CF61E070E0D7CFB4
:1049700081E00895803F31F40E943724819580932F
:1049800063030895813F19F40E943724F8CF823FD2
:1049900031F40E9437248195809362030895833F08
:1049A00019F40E943724F8CF893F29F40E9481240A
:1049B0008093640308958A3F21F40E9481248195A5
:1049C000F7CF8B3F31F40E9481248195809365035A
:1049D00008958C3F19F40E948124F8CF843F31F46C
:1049E000809161038160809361030895853F21F484
:1049F000809161038260F7CF863F21F4809161034B
:104A00008460F1CF873F21F4809161038860EBCF10
:104A1000883F21F4809161038061E5CF8D3F31F4BF
:104A200080915F03816080935F0308958E3F21F43E
:104A300080915F038260F7CF8F3FB9F780915F036A
:104A40008460F1CF90916203803F41F480916303D1
:104A500087FD10926303992371F00895813F29F433
:104A6000809163031816ACF3F6CF823F81F497FF71
:104A7000F2CF109262038091630390916403892BBB
:104A800090916503892B49F710925E030895833F47
:104A900019F4191674F3DFCF893F39F48091640358
:104AA0001816CCF610926403D6CF8A3F29F4809171
:104AB000640387FFD0CFF6CF8B3F39F48091650335
:104AC00087FFC9CF10926503C6CF8C3F29F4809130
:104AD00065031816BCF3BFCF843F31F480916103A6
:104AE0008E7F80936103B7CF853F21F4809161036E
:104AF0008D7FF7CF863F21F4809161038B7FF1CFCB
:104B0000873F21F480916103877FEBCF883F21F4B9
:104B1000809161038F7EE5CF8D3F31F480915F03FB
:104B20008E7F80935F0397CF8E3F21F480915F0348
:104B30008D7FF7CF8F3F09F08ECF80915F038B7F02
:104B4000F0CF80E693E00E94B4150E9493239093E7
:104B50005D0380935C0308951F93CF93DF9380914F
:104B60005C0390915D030E949F23AC0190915E03D2
:104B700020911D0130E0911106C020915B038AE075
:104B8000289F900111244217530778F02091620367
:104B9000C0916303D091640310916503211109C092
:104BA0008C2F8D2B812B09F06AC0DF91CF911F9143
:104BB00008959F3F19F09F5F90935E03121624F4AF
:104BC0000E943724809362038091620387FF05C0AF
:104BD0000E9437248195809362031C1624F40E945E
:104BE0003724809363038091630387FF05C00E948D
:104BF0003724819580936303309162033323A1F0BE
:104C000020916303222381F045EB3403C00111247A
:104C1000992369F19093620345EB240390011124D9
:104C2000332349F1309363031D1624F40E94812439
:104C3000809364038091640387FF05C00E948124F0
:104C4000819580936403111624F40E94812480933B
:104C500065038091650387FF05C00E9481248195CB
:104C600080936503DF91CF911F910C94A12581E082
:104C700080936203D1CF81E080936303D5CF9F3FC0
:104C800009F099CFAACF86E0E0E6F3E0DF011D92BC
:104C90008A95E9F710925E0310925F0308958330BE
:104CA00081F128F4813059F08230D1F008958530B7
:104CB00009F449C0B8F1863009F456C008958091CE
:104CC0005B03482F460F5527551F4F3F510524F4CE
:104CD000680F60935B0308958FEF80935B030895E3
:104CE00080911D01482F460F5527551F4F3F5105F5
:104CF00024F4680F60931D0108958FEF80931D01C8
:104D0000089580911C01482F460F5527551F4F3F8E
:104D1000510524F4680F60931C0108958FEF809370
:104D20001C01089580911B01482F460F5527551FE0
:104D30004F3F510524F4680F60931B0108958FEFD6
:104D400080931B01089580911A01482F460F552723
:104D5000551F4F3F510524F4680F60931A010895C1
:104D60008FEF80931A01089580911901482F460F03
:104D70005527551F4F3F510524F4680F60931901C3
:104D800008958FEF809319010895833011F128F46D
:104D9000813049F0823091F00895853081F120F121
:104DA0008630C1F1089580915B03681720F4861B5B
:104DB00080935B03089510925B03089580911D0119
:104DC000681720F4861B80931D01089510921D0121
:104DD000089580911C01681720F4861B80931C01A4
:104DE000089510921C01089580911B01681720F40A
:104DF000861B80931B01089510921B0108958091DA
:104E00001A01681720F4861B80931A0108951092E6
:104E10001A01089580911901681720F4861B809368
:104E2000190108951092190108950F931F9341E0FD
:104E300050E060E070E08A019B0104C0000F111F88
:104E4000221F331F8A95D2F7C901B8010E94E21EC2
:104E50001F910F910C94201BEBEFE80FEF3308F03C
:104E600065C0F0E0EC5DFE4C0C94572F0E9463226D
:104E700081E0089580915703807F8093570381E0FC
:104E80008093670308950E94201B2FEF83ED90E32A
:104E9000215080409040E1F700C000000E94ED23C7
:104EA000E7CF90915703892F8E7F90FF8160809389
:104EB000570380FDDDCF817F80935703D9CF909139
:104EC0005703892F8D7F91FF82608093570381FF65
:104ED000CFCF809157038160EFCF90915703892FF7
:104EE0008B7F92FF84608093570382FDF2CFC0CF07
:104EF00090915703892F877F93FF88608093570392
:104F000083FDE7CFB5CF0E94201B9091DB03892F53
:104F100097FB87F980588093DB03AACF80E00E943B
:104F20001527A6CF8953FBCF8D51F9CF80E0089587
:104F300080E008950C9498278E518A3030F4E82F41
:104F4000F0E0E85AFD4F8081089580E00895CF9306
:104F5000C82F809167038130E1F0882329F08230E7
:104F6000E9F11092670313C00E94CA20813159F4FD
:104F70008C2F0E949827811125C08C2F0E942C27EE
:104F80008170CF9108950E94CA20823289F380E017
:104F9000F8CF0E94CA20813159F30E94CA20823280
:104FA00039F38C2F0E949A2781110AC0C43199F0DD
:104FB00060F4CB3029F0C03119F782E080936703A9
:104FC00081E0DECF81E090E0DBCFC93221F0C83351
:104FD000B9F380E0D5CF10926703FBCFC93219F146
:104FE00088F4C43101F120F4C73081F181E0C9CFE8
:104FF00082EE8C0F8630D0F78C2F0E949C278093F6
:105000006603F4CFCE3401F140F46AE0CB3471F79B
:10501000809166030E944F26E9CFC13579F061E0A7
:10502000C235B1F3E3CF80916603882319F0109263
:105030006603DCCF81E080936703A3CF61E08091BA
:1050400066030E94C526D2CF6AE0F9CF10925B03B7
:1050500084E180931D01C0931C018CE380931B01AC
:1050600088E080931A0188E280931901BFCF809174
:1050700088030895CF93DF9300D00F92CDB7DEB7AA
:105080009091E103943019F589837B836A8382E0F0
:105090008093E9008FEF9091E800815095FD06C064
:1050A00095ED9A95F1F700008111F5CF8091E80018
:1050B00085FF0DC050E040E063E070E0CE01019656
:1050C0000E94902A8091E8008E778093E8000F90EC
:1050D0000F900F90DF91CF910895CF93DF93EC0164
:1050E0000E94732A823011F0843031F4BE0184E0D2
:1050F000DF91CF910C943A28DF91CF910895BC01B4
:105100006058710983E00C943A28CF93DF93EC0147
:105110000E94732A823011F08430F9F482E0809387
:10512000E9008FEF9091E800815095FD06C095ED64
:105130009A95F1F700008111F5CF8091E80085FF85
:105140000CC050E040E066E070E0CE010E94902A82
:105150008091E8008E778093E800DF91CF910895E9
:10516000CF93DF93EC010E94732A823011F08430D8
:10517000B9F5809128018823B1F18091DB0387FF85
:1051800032C060E282E08093E9008FEF9091E80006
:10519000815095FD06C095ED9A95F1F700008111BB
:1051A000F5CF8091E80085FF1BC08091280170E059
:1051B00050E040E0811104C050E040E068E070E061
:1051C000CE010E94902A8091E8008E778093E800BB
:1051D00080E2FE01A8E6B3E001900D928A95E1F726
:1051E000DF91CF91089568E081E0CDCF8091E00319
:1051F000811109C00E94202C0E947D2C8091E20028
:1052000084608093E20008951092E0030895089569
:1052100008950C94522342E061EC81E00E949C2BA3
:1052200042E261EC82E00C949C2B8091E30383309A
:1052300009F45FC030F48130C1F1823009F49BC0C1
:1052400008958A3009F487C08B3009F46DC0893025
:1052500009F04EC08091E203813209F049C080918B
:10526000E6039091E703029708F042C08091E800BE
:10527000877F8093E8008091E80082FF35C090919D
:10528000F3008091F200029729F48091F1008B7F66
:10529000813021F48091F100809388038091E800AF
:1052A0008B778093E8000C94D02B8091E203813AB5
:1052B000F9F48091E800877F8093E8008091E6030D
:1052C0009091E703892B61F460E288E693E070E057
:1052D0000E94DF2A8091E8008B778093E800089590
:1052E00060E090E080E0F3CF8091E1038111C3CFD3
:1052F00008958091E203813AD9F78091E603909175
:10530000E703892BA9F78091E800877F8093E80065
:105310008091E80080FFFCCF809128018093F1000C
:105320008091E8008E77BDCF8091E203813201F752
:105330008091E6039091E703892BD1F68091E800F4
:10534000877F8093E8000E94D02B8091E4038093B4
:1053500028010C94201B8091E203813249F6809150
:10536000E800877F8093E8000E94D02B8091E503BE
:105370008093890308958091E203813A09F0B8CFC0
:105380008091E800877F8093E8008091E80080FFAB
:10539000FCCF80918903C2CF84B7877F84BF0FB6CB
:1053A000F894A895809160008861809360001092C5
:1053B00060000FBE80E890E00FB6F8948093610023
:1053C000909361000FBE0E94FC150E94202C0E9449
:1053D0007D2C8091E20084608093E20078940E94AA
:1053E000062F0E9404168EE191E00E94891580919B
:1053F000E103853019F00E940E16F9CF0E94F922C0
:105400008091DF03882399F30E943B23882379F35B
:105410000E947A2AECCF0C940D2A292F33272330AF
:10542000310519F168F42130310509F44AC0223000
:10543000310509F44BC090E080E030E020E028C066
:105440002132310579F122323105A9F780E490E06B
:1054500028EB37E061157105D9F080EC90E028EF7A
:1054600036E061307105A1F0E6CF992781309105D2
:1054700099F0009741F08230910589F00397D9F6B1
:10548000E1E7F6E002C0E7EAF6E0849190E09F01F0
:10549000FA01318320830895EFE8F6E0F6CFE7E7DD
:1054A000F6E0F3CF89E090E02DEB36E06115710571
:1054B00079F389E090E026ED36E06130710541F343
:1054C000BACF82E190E026EE36E0E2CF8BE390E0C7
:1054D0002BEA36E0DDCF8091E103843011F482E0E5
:1054E000089581E0089580918A03811102C00C948F
:1054F0006B2A089580E189BD82E189BD09B400FE6F
:10550000FDCF8091D8008F7D8093D8008091E000FE
:1055100082608093E0008091E00081FDFCCF0895DF
:10552000AF92BF92CF92DF92FF920F931F93CF93D0
:10553000DF936C01EB018A010E94EF2BF82E8111A1
:1055400023C00115110539F0F80180819181C81B34
:10555000D90BC80ED91EB12CA12C2097A9F080918F
:10556000E80085FD22C08091E8008E778093E800F6
:1055700001151105A1F0F80180819181A80EB91ED5
:10558000B182A08285E0F82E8F2DDF91CF911F91FF
:105590000F91FF90DF90CF90BF90AF9008950E9441
:1055A000EF2B8823D1F2F82EEFCFF60181916F0116
:1055B0008093F1002197FFEFAF1ABF0ACECFFC0115
:1055C0008091E8039091E90386179707A0F0611591
:1055D000710529F49091E8009E779093E80090E09F
:1055E0006115710551F4911108C08091E80082FFA6
:1055F00034C080E00895BC01F2CF8091E10388239C
:10560000C1F18530C1F18091E80083FD30C0809107
:10561000E80082FDEACF8091E80080FFE1CF809131
:10562000F3002091F200382F6115710519F0283030
:10563000310558F091E02830310509F090E02091D3
:10564000E8002E772093E800CBCF81918093F10082
:10565000615071092F5F3F4FE7CF8091E1038823AD
:1056600041F0853041F08091E80083FFBECF81E0BA
:10567000089582E0089583E00895FC018091E80395
:105680009091E90386179707A0F06115710529F439
:105690008091E8008E778093E80090E061157105B5
:1056A00051F4911108C08091E80082FF35C080E07C
:1056B0000895BC01F2CF8091E1038823C9F18530C0
:1056C000C9F18091E80083FD31C08091E80082FD3E
:1056D000EACF8091E80080FFE1CF8091F300209134
:1056E000F200382F6115710519F02830310558F096
:1056F00091E02830310509F090E08091E8008E7744
:105700008093E800CBCF84918093F1003196615073
:1057100071092F5F3F4FE6CF8091E103882341F06D
:10572000853041F08091E80083FFBDCF81E008958E
:1057300082E0089583E00895982F973028F08F70C5
:105740008093E90081E008959093E900242F762F5B
:1057500050E0981731F07091EC002091ED005091DD
:10576000F00021FD02C09F5FE8CF3091EB003E7F4B
:105770003093EB003091ED003D7F3093ED003091A0
:10578000EB0031603093EB007093EC002093ED0060
:105790005093F0002091EE0027FDE5CF80E00895C2
:1057A0008091E20387FF13C08091E80082FF06C06A
:1057B0008091E8008B778093E80004C08091E1033A
:1057C0008111F2CF08958091E1038823D9F380916C
:1057D000E80080FFF8CF8091E8008E77ECCF209131
:1057E000E4003091E50095E6A9012091EC00822FBC
:1057F000817020FF06C08091E80080FF06C080E035
:1058000008952091E80022FD1AC08091E1038823C9
:1058100089F0853089F08091EB0085FD0FC02091E3
:10582000E4003091E50042175307F9F29150E1F698
:1058300084E0089582E0089583E0089581E008956A
:105840000E948E2C0E94962CE0EEF0E08081816018
:105850008083E8EDF0E080818F77808319BCA7ED2D
:10586000B0E08C918E7F8C9380818F7E80831092AC
:10587000E00308950F931F93CF93DF930E948E2C24
:105880000E94962CC8EDD0E088818F77888388812C
:105890008068888388818F7D888319BC1092E1039A
:1058A0001092DD031092DF031092DE0300EE10E091
:1058B000F80180818B7F808388818160888342E0CA
:1058C00060E080E00E949C2BE1EEF0E080818E7F22
:1058D0008083E2EEF0E08081816080838081886057
:1058E0008083F80180818E7F8083888180618883B6
:1058F000DF91CF911F910F910895E8EDF0E0808145
:105900008F7E8083E7EDF0E080818160808384E09A
:1059100082BF81E08093E0030C943A2CE8EDF0E044
:1059200080818E7F80831092E20008951092DA00C9
:105930001092E10008951F920F920FB60F9211245A
:105940002F933F934F935F936F937F938F939F9387
:10595000AF93BF93EF93FF938091E10082FF0BC061
:105960008091E20082FF07C08091E1008B7F8093ED
:10597000E1000E94052F8091DA0080FF19C080911C
:10598000D80080FF15C08091DA008E7F8093DA0006
:105990008091D90080FF96C080E189BD82E189BDF8
:1059A00009B400FEFDCF81E08093E1030E94F62858
:1059B0008091E10080FF19C08091E20080FF15C056
:1059C0008091E2008E7F8093E2008091E20080610E
:1059D0008093E2008091D80080628093D80019BC47
:1059E00085E08093E1030E9408298091E10084FF13
:1059F0002BC08091E20084FF27C080E189BD82E155
:105A000089BD89B5982F917080FFFBCF8091D80018
:105A10008F7D8093D8008091E1008F7E8093E1009C
:105A20008091E2008F7E8093E2008091E2008160AD
:105A30008093E2008091DD03882309F449C084E06B
:105A40008093E1030E9409298091E10083FF29C02E
:105A50008091E20083FF25C08091E100877F8093E1
:105A6000E10082E08093E1031092DD038091E10088
:105A70008E7F8093E1008091E2008E7F8093E20030
:105A80008091E20080618093E20042E060E080E08B
:105A90000E949C2B8091F00088608093F0000E940F
:105AA0000729FF91EF91BF91AF919F918F917F91C6
:105AB0006F915F914F913F912F910F900FBE0F907B
:105AC0001F90189519BC1092E1030E94042970CF11
:105AD0008091E30087FD93E09093E103B3CF1F92A1
