:100000000C94AA030C94C7030C94C7030C94C70365
:100010000C94C7030C94C7030C94C7030C94C70338
:100020000C94C7030C94C7030C94EC2D0C94BE2EB7
:100030000C9426240C94C7030C94C7030C94C70398
:100040000C94C7030C94C7030C94C7030C94C70308
:100050000C94C7030C9473240C94C7030C94C7032B
:100060000C94C7030C94C7030C94C7030C94C703E8
:100070000C94C7030C94C7030C94C7030C94C703D8
:100080000C94C7030C94C7030C94C7030C94C703C8
:100090000C94C7030C94C7030C94C7030C94C703B8
:1000A0000C94C7030C94C7030C94C7031D042004CD
:1000B0002304260429042C042F04631166116E11F5
:1000C000731178117D11821187118C119111961184
:1000D0009B119D11A011A311A611A911AC11AE1174
:1000E000B31194189418C618C6180F193119981A14
:1000F000FD1A7519101A221A221A8F1AFD1AFD1AE2
:10010000F71AA41AC51AAC1AAF1AB81AB41ABD1A3B
:10011000BD1BBD1BCF1BCF1BC61BCF1BCF1BCF1BBC
:10012000BD1BBD1BCB1BCF1BCF1BCB1B7E2874283D
:100130008C28D428D828D828D428D828D828AD283E
:10014000D828B728C128D828D828D828D828D428EB
:10015000D828D828D428D8289A28D828D828D128E8
:10016000D128D128D128D128D128D128D128D128C7
:10017000D628D8287E287128D828D828D828D82842
:10018000D828D828D828D828D828D828D628D82871
:10019000D828D428D828CF28CF28CF28CF28CF2890
:1001A000CF28CF28CF28CF28D6282B2F522F4A3020
:1001B000522F4A309E2FC12F4A301830273000006E
:1001C0002B00E300E1000000000000001400040028
:1001D0001D000000000000001A0016001B000000B7
:1001E000000000000800070006000251290000007E
:1001F00015000900190001510000000017000A0055
:1002000005000000000000000000000000000000E9
:1002100000000000000000000000000000000000DE
:100220001C000B00110000000000000018000D0071
:1002300010002800000000000C000E003600E30053
:100240002C00000012000F0037000000000000002A
:10025000130033003800000000000000E00034000C
:10026000E5000000000000002B00E300E1000000BA
:10027000000000001E000401E0000000000000007B
:100280001F0016011B0100000000000020000701F4
:10029000060102510F5500002100090143070151D9
:1002A0000000000022000A01190100000000000007
:1002B000000000000000000000000000000000003E
:1002C0000000000000000000230035002D000000A9
:1002D0000000000024002F002E0045140000000044
:1002E00025003000000028142A00000026002F02FC
:1002F000000000000000000027003002E0000000C5
:10030000000000003100E700E500000000000000F0
:100310002B00E300E1000000000000003A003A0F6B
:10032000E0000000000000003B003B0FE200000086
:10033000000000003C003C0F0000025100000000E3
:100340003D003D0F00000151000000003E003E0F47
:10035000000000000000000000000000000000009D
:10036000000000000000000000000000000000008D
:100370003F00500040140000000000004000510009
:100380000000280000000000410052004518000055
:100390000000000042004F00E200000000000000EA
:1003A0004300430FE0000000000000004400E300B1
:1003B000E5000000000032190A00047F3F1F64328C
:1003C00014643214783C1E1E140A052223252628A4
:1003D000292A2C2D2F3032333536383A3B3D3E40DA
:1003E00042434547494A4C4E5051535557595A5C20
:1003F0005E6062646668696B6D6F71737577797B37
:100400007D7F81838587898A8C8E90929496989A35
:100410009C9E9FA1A3A5A7A8AAACAEAFB1B3B4B64A
:10042000B8B9BBBCBEBFC1C2C3C5C6C7C9CACBCCA5
:10043000CDCED0D1D2D2D3D4D5D6D7D7D8D9D9DA78
:10044000DADBDBDBDCDCDCDCDCDDDDDDDDDCDCDCED
:10045000DCDCDBDBDBDADAD9D9D8D7D7D6D5D4D315
:10046000D2D2D1D0CECDCCCBCAC9C7C6C5C3C2C1EA
:10047000BFBEBCBBB9B8B6B4B3B1AFAEACAAA8A747
:10048000A5A3A19F9E9C9A98969492908E8C8A89FF
:10049000878583817F7D7B79777573716F6D6B69DC
:1004A00068666462605E5C5A5957555351504E4CB1
:1004B0004A4947454342403E3D3B3A383635333260
:1004C000302F2D2C2A292826252322FFAA7F5540AC
:1004D0000001010101010101010102020202020207
:1004E00002020203030303030303030404040404DA
:1004F00004040505050505060606060607070707A1
:100500000708080808090909090A0A0A0B0B0B0C55
:100510000C0C0D0D0D0E0E0E0F0F0F1010111111F2
:100520001212131314141515161617171818191973
:100530001A1A1B1B1C1D1D1E1E1F202021222223D8
:100540002424252626272829292A2B2C2D2D2E2F19
:1005500030313232333435363738393A3B3C3D3E30
:100560003F404142434445464748494A4C4D4E4F1F
:1005700050515354555658595A5B5D5E5F616264E1
:10058000656668696B6C6D6F7072737577787A7B6E
:100590007D7E8082838587888A8C8E8F91939596C5
:1005A000989A9C9EA0A2A3A5A7A9ABADAFB1B3B5E5
:1005B000B7BABCBEC0C2C4C6C9CBCDCFD1D4D6D8C1
:1005C000DBDDDFE2E4E7E9EBEEF0F3F5F8FAFDFF5F
:1005D00004033000000016034500720067006F003E
:1005E00044006F007800200045005A000000160308
:1005F0004500720067006F0044006F007800200023
:1006000045005A0000000403090409023B000201EE
:1006100000A0FA09040000010301010009211101F1
:1006200000012240000705810308000A09040100B7
:10063000010300000009211101000122BC0007058F
:10064000820320000A1201100100000008EDFE07DD
:100650001301000102030105010902A1018502093C
:1006600001A1000509190129051500250195057548
:1006700001810295017503810105010930093115D8
:1006800081257F95027508810609381581257F959A
:100690000175088106050C0A38021581257F950130
:1006A00075088106C0C005010980A10185031901F3
:1006B0002AB700150126B700950175108100C00505
:1006C0000C0901A101850419012AA002150126A027
:1006D00002950175108100C005010906A10185057B
:1006E000050719E029E71500250195087501810224
:1006F0000507190029EF1500250195F07501810204
:1007000005081901290595057501910295017503E3
:100710009101C005010906A101050719E029E715A6
:100720000025019508750181029501750881010573
:1007300007190029FF150026FF009506750881009E
:1007400005081901290595057501910295017503A3
:100750009101C00011241FBECFEFDAE0DEBFCDBF94
:1007600012E0A0E0B1E0EAEFF5E602C005900D92DC
:10077000A037B107D9F724E0A0E7B2E001C01D928D
:10078000AF34B207E1F70E941B2B0C94FB320C94A0
:10079000000080B38C7080BB81B3836F81BB0895F0
:1007A00084B1807F84B985B1807F85B98AB1837F28
:1007B0008AB98BB1837F8BB93E9846980895CF93C1
:1007C000E82F873080F580910A0190910B01892BE9
:1007D00009F047C0CE2F64E670E080E40E94B914AF
:1007E00090930B0180930A01892BD1F464E670E0A9
:1007F00082E10E94101590930B0180930A01892BCE
:1008000079F481E090E001C0880FCA95EAF764E6C8
:1008100070E080950E94101590930B0180930A015F
:10082000CF910C94651590E0FC013797E730F10506
:10083000C0F4EA5AFF4F0C94C030209A289811C097
:10084000219A29980EC0229A2A980BC0239A2B9895
:1008500008C0529A5A9805C0539A5B9802C03E9AB3
:100860004698CF910895CF93873040F580910A0143
:1008700090910B01892B59F564E670E081E40E94A8
:10088000B91490930B0180930A01892B11F0C0E0F9
:1008900011C084E690E00E94401597FF05C0909338
:1008A0000B0180930A01F3CFC82FC09510920B0162
:1008B00010920A010E9465158C2F0AC09FB18FB15A
:1008C000807F869586959370892B809501C080E006
:1008D000CF91089508950C946A040C946A040E94C0
:1008E000CD0590E090930B0180930A010E94D00304
:1008F0000E94C903E1E7F2E0AFE7B2E011921D9276
:1009000082E0EF37F807D1F78EE00E94AD090C9432
:100910000F070E94CD0590E090930B0180930A0190
:100920000E94D0030E94C903E1E7F2E0119282E045
:10093000EF37F807D9F70895EF92FF920F931F93BF
:10094000CF93DF9380910A0190910B01892B91F055
:10095000809170028F5F8093700281110BC00E94A2
:10096000CD0590E090930B0180930A01892B11F43F
:100970000E943F050FE712E0C0E0F12C87E0E82E6F
:10098000EC0E8C2F0E94DF038E2D0E94DF038C2F34
:100990000E943304F8019081891719F08083D1E017
:1009A00001C0D0E08E2D0E943304F8019781891791
:1009B00019F0878381E001C080E0D82BFD2A0E94D6
:1009C000D003CF5F0F5F1F4FC730C1F62F2D4EE012
:1009D00061E772E08FE792E00E94260A0E94190701
:1009E00081E0DF91CF911F910F91FF90EF900895DB
:1009F000E82FF0E0EF58FD4F808108950895CF92E1
:100A0000DF92EF92FF920F931F93CF93DF936C01CE
:100A1000062F0E94B31464E670E084E80E94B914C3
:100A2000CC2DDD2DE12CF12C10E0E016F106CCF4FC
:100A300064E670E088810E94101564E670E08981A8
:100A40000E94101564E670E08A810E94101564E629
:100A500070E08B810E9410158FEFE81AF80A249637
:100A6000E4CF0E946515B801C601DF91CF911F91B7
:100A70000F91FF90EF90DF90CF900C94F811569863
:100A80005E9825982D9826982E9827982F988FEF66
:100A900090E0909389008093880090938B008093DE
:100AA0008A0090938D0080938C00259A2D9A2FEFC9
:100AB00080E792E0215080409040E1F700C00000C4
:100AC000269A2E9A2FEF80E792E0215080409040A6
:100AD000E1F700C00000279A2F9A2FEF80E792E0FD
:100AE000215080409040E1F700C0000025982D98EB
:100AF0002FEF80E792E0215080409040E1F700C066
:100B0000000026982E982FEF80E792E02150804039
:100B10009040E1F700C0000027982F9856985E9803
:100B200025982D9826982E9827982F98089589EA29
:100B30008093800089E08093810024982C983F98CE
:100B40008AB18F7C8AB96E98479A8BB180638BB9D2
:100B5000769A0E9486226093EC037093ED03809353
:100B6000EE039093EF0367708FEF689FB00111243D
:100B7000759567957595679577277093890060934C
:100B8000880070938B0060938A0070938D0060934F
:100B90008C000E943F050C946B0480E290E09093DF
:100BA0000B0180930A0180918D0281110EC00E9479
:100BB000B31481E080938D022FEF83ED90E32150F9
:100BC00080409040E1F700C0000064E670E080E4FF
:100BD0000E94B91490930B0180930A01892B09F0AC
:100BE0004EC064E670E080E00E94101590930B0107
:100BF00080930A01892B09F042C064E670E080E02E
:100C00000E94101590930B0180930A01892BB9F56E
:100C100064E670E08FE30E94101590930B018093BF
:100C20000A01892B61F50E94651564E670E080E495
:100C30000E94B91490930B0180930A01892BF9F457
:100C400064E670E08CE00E94101590930B01809395
:100C50000A01892BA1F464E670E080E00E9410157F
:100C600090930B0180930A01892B49F464E670E0AC
:100C70008FE30E94101590930B0180930A010E944C
:100C8000651580910A0108951092EC031092ED030E
:100C90001092EE031092EF0384E080618093EC03E6
:100CA0006091EC037091ED038091EE039091EF035E
:100CB0000E948A220C9496229C013A9521153F416C
:100CC00038F5DC01AA27B270AC01442754709C01AE
:100CD0002227387094FF0FC090FF02C080E101C04E
:100CE00080E0AB2B09F08062452B09F08064232B58
:100CF00069F080680BC0892F8170AB2B09F082608E
:100D0000452B09F08460232B09F08860FB010994CE
:100D10000895CF93DF93EC01805E9109089710F05E
:100D2000209719F469E478E102C063E87BE1CE0121
:100D30000E945C068C2FDF91CF910C941F17CF93EC
:100D4000DF93EC010E94CE17CE01805E91090897D7
:100D500010F0209719F460E578E102C06AE87BE1C1
:100D6000CE01DF91CF910C945C06CF93DF93EC0121
:100D70000E948906CE01DF91CF910C949F0681E0FD
:100D8000089581E008950C94C10608950C94C50659
:100D90001F93CF93DF9300D000D01F92CDB7DEB763
:100DA00049835A836B833091130389819A8131116E
:100DB00014C0662359F0222349F00E94F820182F0E
:100DC000682F89819A810E949F2003C00E94CB20B6
:100DD000182F69817A81812F04C00E94F8206981CF
:100DE0007A810F900F900F900F900F90DF91CF911D
:100DF0001F910C949607FC01262F4081518162813E
:100E0000738184810C94C806CF93DF93EC0160E07A
:100E10000E94FB06BE01DF91CF910C94C6060E9492
:100E20005522811102C00E94F2220E9410120C94DD
:100E300097050C946D04282F2F7041F0822F90E0BD
:100E40002A3010F44D9608950697089587E290E0B1
:100E5000089508950C94290781E008950C942C07B7
:100E6000CF93C82F0E942A078C2F0E942E07CF9164
:100E7000089508950E94AB1B0E9439072FEF84E369
:100E80009CE0215080409040E1F700C000000C94AD
:100E900099240F931F93CF93DF93EC0161E00E949D
:100EA000FB068C01BE010E94C3068823A9F1BE0186
:100EB000C8010E948412882379F1BE01C8010E94F2
:100EC0001613882349F1BE01C8010E9457138823D5
:100ED00019F1BE01C8010E9482148823E9F0BE0105
:100EE000C8010E944C118823B9F08A81882369F0D7
:100EF00001158CE5180731F00E3D1C4531F40E94B8
:100F0000F2220AC00E943A0707C0CE01DF91CF91BA
:100F10001F910F910C94BF0680E0DF91CF911F913C
:100F20000F91089580E090E00895089524E5829F50
:100F3000C0011124FC0126E0729FE00DF11D112477
:100F4000E60FF11DEE0FFF1FE254FE4F85919491C5
:100F50000895880F991FFC01EA54FC4F85919491E4
:100F60000895CF93DF930E9496070E94D608EC0164
:100F70008115904508F041C0C11580E4D80708F0FC
:100F8000D6C0C83ED10510F5C03ED10508F00AC153
:100F9000C83AD10578F4C53AD10508F0A7C0C130E8
:100FA000D10509F4FFC008F4FBC0C430D10508F036
:100FB000F9C0F6C0CF3BD10508F4A0C0C03CD105B4
:100FC00008F4EEC0CE01805C9109A3C0C11590E287
:100FD000D90758F4C11521E0D20708F0E3C0C03F9B
:100FE000D10508F4DDC0D065DDC0C11580E3D807A8
:100FF00008F093C0CE019F708CC0C11595E5D9074C
:1010000008F043C0C11524E5D20708F0A7C0C115F8
:1010100082E5D80708F5C11591E5D90708F08AC01F
:10102000CE0174E0969587957A95E1F783709C2FB1
:10103000937021E030E002C0220F331F9A95E2F74F
:101040003C68382BCF70C695C69580E2C89FE001FA
:101050001124C22BD32BA6C09E01237033278C2FC3
:1010600086958695C115D34508F069C0C1E0D0E0EA
:1010700002C0CC0FDD1F2A95E2F720E2829FC0015B
:101080001124C82BD92BDC688DC0C1152AE5D207E5
:10109000A0F4C11589E5D80708F06FC0C11596E521
:1010A000D90708F460C0C11528E5D20708F478C054
:1010B000DC2FCC27C06FD06A75C0C1158BE5D8076F
:1010C00008F46EC0C1159CE5D90708F466C0CE01CE
:1010D00090568115904208F063C08D2F8F710E9449
:1010E0006A09DD27D0628F71D82B5CC0C55AD0E069
:1010F000C95FDD4FC881D0E0D06454C0C85AD0E089
:10110000CC0FDD1FC752DE4F0990D881C02DD464AB
:1011100049C00E94A907EC0145C0CE019927D3FF21
:1011200003C0EC01D86C3EC0EC01D06C3BC0DF705A
:10113000D06A38C0DC2FCC27C16FD06A33C0C1E081
:10114000D0E002C0CC0FDD1F2A95E2F720E2829F9B
:10115000C0011124C82BD92BDA6824C0DC2FCC277E
:10116000C46FD06A1FC08C2F0E946A098F71C82F6C
:10117000D0E0DC2FCC27D06215C08C2F8F700E945E
:101180006A0994E0D695C7959A95E1F7CF70D0E0BB
:10119000DC2FCC27D069C82B05C0DD27D06602C064
:1011A000C0E0D0E0CE01DF91CF9108958238910563
:1011B00069F1B0F48133910509F46DC048F48932C6
:1011C000910509F463C08A32910509F469C0089554
:1011D0008533910509F455C089339105B9F0089517
:1011E000833E910569F138F4803E9105B1F0823E6D
:1011F000910509F10895863E9105A9F1873E910573
:10120000B9F1843E910509F064C023C020913C04EB
:1012100020FD4FC021FD4DC0089580913C0480FD0C
:1012200044C080913D0480FF44C080913C0484FD13
:1012300042C083EE4DC080913C0482FF38C0F5CFA0
:1012400080913C0482FD33C080913D0480FD31C01B
:10125000ECCF80913D0481FF32C080913C0484FD3D
:101260002AC087EE35C080913C0483FF26C0F5CFAD
:1012700080913C0483FD21C080913D0481FD1FC00D
:10128000ECCF80913C0485FD1CC01DC080913C04C6
:1012900085FD19C016C080913C0486FD16C017C09C
:1012A00080913C0486FD13C010C089E311C082EE1A
:1012B0000FC080EE0DC080E00BC086EE09C084EE4A
:1012C00007C089E205C085E303C08AE201C081E36B
:1012D00090E0089590913C0492FF0DC0282F287152
:1012E000283019F4877F846006C0282F24712430A9
:1012F00011F48B7F886093FF0DC0282F287128314F
:1013000019F4877E846106C0282F2471243111F4DA
:101310008B7E886120913D0420FF0DC0382F3871ED
:10132000383019F4877F816006C0382F3171313031
:1013300011F48E7F886021FF0DC0282F287128317D
:1013400019F4877E816106C0282F2171213111F4A3
:101350008E7E886194FD877E0895CF93C82F90E09C
:101360000E94C6308093920290939302282FFC0132
:101370009BEF8E2F821B8C1710F49193FACFCF9195
:1013800008950F931F93CF93DF93A62F109291028E
:1013900030919202E32FF091930220E0C62FD0E02B
:1013A000BBEF0BEF10E09E2F931B981700F5908179
:1013B0009B3FD9F0492F50E0A91728F0BE01641BCC
:1013C000750BAB0106C0B801641B750BAB014C0F6C
:1013D0005D1F052E000C660B770B4E315105610524
:1013E000710510F0B08301C021E03196DCCF20936D
:1013F0009102DF91CF911F910F910895CF93DF93C9
:10140000109294025091920230919102DB01EC0112
:10141000E52FF091930290E08E2F851B841778F4CE
:1014200089916C91681741F060816B3F21F42083B2
:101430008C9331E001C091E031961196EDCF30935D
:10144000910290939402DF91CF910895DF92EF92F1
:10145000FF920F931F93CF93DF93EC018B01E42E48
:10146000D22E0E945824AC0160918F02709190029C
:101470009093900280938F0290918E02292F30E0FA
:10148000261B370BC901840F951F6BEF70E00E947C
:101490009830F82E80938E0280919102882319F162
:1014A0006F2D8E2D0E94C109DD2069F02F2D4E2D4C
:1014B000B801CE01DF91CF911F910F91FF90EF9076
:1014C000DF900C94FE0980919102882379F380913A
:1014D00094028111EBCFDF91CF911F910F91FF907B
:1014E000EF90DF900895D110E1CFF1CFEF92FF920E
:1014F0000F931F93CF93DF93F62E472FE82FF0E043
:10150000711106C0E053FB4F6491762F862F72C095
:10151000272F30E0E053FB4FE4910E2F10E056E010
:10152000659FC0011124CFEFD0E0BE010E9498302A
:101530005BEA5603C001579F900D11248F0D911D3A
:101540008F0D911D982F990F890F7E01E21AF30AD2
:10155000E09ED001E19EB00DF09EB00D1124489F99
:10156000A0011124452F55277E01E41AF50AE09EBB
:10157000A001E19E500DF09E500D11247E01E81A4D
:10158000F108E29EC001E39E900DF29E900D1124A1
:10159000892F9927C81BD90BC09FC001C19F900DEF
:1015A000D09F900D11246230710591F048F46115BF
:1015B0007105E1F061307105A9F48B2F752F19C009
:1015C0006430710561F038F06630710579F00AC059
:1015D000892F7B2F0EC08E2F7B2FE52F0AC08E2FD9
:1015E000792F02C0852F7E2FEB2F03C08B2F7E2FEC
:1015F000E92F6E2FDF91CF911F910F91FF90EF9008
:101600000895FC01828120813181982F281708F4E8
:10161000922F391708F4932F9383391B3183291B99
:101620002083891B828308950895CF93DF93762FBB
:10163000E901682F842F0E94760A798368838A8360
:101640001B82DF91CF9108958091F003282F26957A
:1016500030E02115310519F48170826005C02B320C
:10166000310524F0817084658093F003089588E04B
:1016700090E00C945832CF92DF92EF92FF926B0180
:101680007C010E94240BB701A60188E090E0FF9046
:10169000EF90DF90CF900C947632E0EFF3E083E0B0
:1016A000808311828FEF82838383148260817181B2
:1016B000828193810C943B0B8091F00380FF02C0E8
:1016C0008695089580E008958091F403833018F49E
:1016D0008F5F8093F4036091F0037091F103809128
:1016E000F2039091F3030C943B0B8091F403882355
:1016F00019F081508093F4036091F0037091F1032D
:101700008091F2039091F3030C943B0BEF92FF92C4
:101710000F931F93CF93DF9300910F018091F003FC
:1017200080FF0BC0C0910E0124E0C29FE001112494
:10173000CB50DC4F7E0110E012C0809110019091DF
:101740001101891778F724E0829FF0011124EB50F2
:10175000FC4F11821082128213828F5FF2CF10171A
:1017600041F0C7010E94010B1F5F84E0E80EF11CED
:10177000F6CF612FCE01DF91CF911F910F91FF9096
:10178000EF900C94FF049091F00390FF14C090919F
:10179000100120911101921760F434E0939FF00141
:1017A0001124EB50FC4F81836083428313829F5F3F
:1017B000F2CF0C94860B0895CF93DF9300D000D026
:1017C000CDB7DEB79091F00390FF0AC09E012F5F66
:1017D0003F4F0E94150B4B8169818A810E94C30B88
:1017E0000F900F900F900F90DF91CF910895CF93AE
:1017F000DF93EC01EC81F0E0E553FC4F4491E0EF26
:10180000F3E0628181810E94DC0B8C818F5F8C838D
:10181000DF91CF910895CF93DF93EC01E0EFF3E0F8
:10182000438162818C810E94DC0B8C818F5F8C8371
:10183000DF91CF9108950F931F93CF93DF9300D043
:1018400000D0CDB7DEB78C018091950281110AC01E
:101850009E012F5F3F4F4FEF6FEF0E94150B8A8164
:1018600080939502F8018481813051F028F0823014
:1018700061F4409195020AC08091950240E007C052
:101880006091950240E080E003C040E080E060E0CD
:101890000E94C30BF801848190E0019663E070E040
:1018A0000E94AC3084830F900F900F900F90DF91C7
:1018B000CF911F910F910895AF92BF92CF92DF9277
:1018C000EF92FF920F931F93CF93DF9300D000D03E
:1018D000CDB7DEB7182FF62E042FE22E9091F0032D
:1018E00090FF6CC0E92FE695AE2FB0E0A65FBD4F2C
:1018F0008C918093EA029E7F923061F49E012F5F6B
:101900003F4F812F0E94150B4B8169818A810E9474
:10191000C30B42C0823019F40091F3033DC08630FE
:1019200019F41091F10338C08930D9F38931A1F548
:10193000E9518E2F8170D82EE695F0E0E553FB4FEC
:10194000A590B490C12CBB2460911201C61610F56D
:101950002C2D30E0A29EC001A39E900DB29E900D52
:10196000112470E00E949830812FD11002C0860FA0
:1019700001C0861B90911001290F311D220F331FCA
:10198000220F331F2B503C4F402F6F2D0E94150B01
:10199000C394DACF0E94860B1093F103F092F20306
:1019A0000093F303EE2051F06091F0037091F10386
:1019B0008091F2039091F3030E943B0B0F900F90E4
:1019C0000F900F90DF91CF911F910F91FF90EF90AB
:1019D000DF90CF90BF90AF900895E0EFF3E091815A
:1019E000282F438162818CE0890F0C945C0C81E08C
:1019F0000C94ED0CE0EFF3E09181282F438162819C
:101A000084EF890F0C945C0C81E00C94FA0CE0EFED
:101A1000F3E062812FEF620F08F46FEF282F43810C
:101A200081810C945C0C81E00C94070DE0EFF3E0F5
:101A300062812FEF621B08F460E0282F43818181CF
:101A40000C945C0C81E00C94160DE0EFF3E0438104
:101A50002CE0420F08F44FEF282F628181810C9413
:101A60005C0C81E00C94250DE0EFF3E043812CE069
:101A7000421B08F440E0282F628181810C945C0CA9
:101A800081E00C94340D20E00C945C0CFF920F93D9
:101A90001F93CF93DF93EC01F12C0FEF10E06091D7
:101AA0001201F616E8F4809110012F2D30E0280F76
:101AB000311D220F331F220F331F2B503C4F70E07C
:101AC000C8010E94AC30962F8C814091F303609145
:101AD000F203F99E800D11240E94150BF394DFCFC1
:101AE0000E94860B9A818C8190FF02C08F5F01C09B
:101AF00081508C83DF91CF911F910F91FF900895BA
:101B0000AF92BF92CF92DF92EF92FF920F931F930B
:101B1000CF93DF93FC01828180FF02C00FEF01C0F1
:101B200001E010E03FE0A32E80911201181708F0A9
:101B300043C080911001C12ED12CE601C80FD11DE8
:101B4000CC0FDD1FCC0FDD1FCB50DC4F198218826C
:101B50001A821B8224E0E22EF12CB12C8091970294
:101B60008B0D80312CF06A2D0E948A30892F05C0A0
:101B700087FF03C090911201890F082E000C990B6A
:101B8000C816D90691F48091F3038E9DA0018F9D14
:101B9000500D112455954795559547959E01609197
:101BA000F2038091F1030E94150BB00EF1E0EF1AE1
:101BB000F108A1F61F5FB8CF0E94860B80919702B3
:101BC000013031F4811102C080911201815007C0AF
:101BD00090E001966091120170E00E94AC30809319
:101BE0009702DF91CF911F910F91FF90EF90DF90BF
:101BF000CF90BF90AF9008950F931F93CF93809194
:101C0000100190911101891760F424E0829FF00186
:101C10001124EB50FC4F11821082128213828F5FCD
:101C2000F2CFC0E060911201C61798F50C2F10E0BA
:101C300070E0C8010E94AC30E09110018E0F20913D
:101C40009602022E000C330BE82FF0E0EE0FFF1F80
:101C5000EE0FFF1F02171307A4F080910D01082E4D
:101C6000000C990B8017910764F09F012B503C4F9B
:101C70004091F3036091F2038091F1030E94150BF0
:101C800006C0EB50FC4F1182108212821382CF5F8C
:101C9000C9CF0E94860B20910C0180919602820F81
:101CA0008093960290910D01920F90930D01191659
:101CB0005CF4082E000C990B4091120150E0415049
:101CC0005109841795071CF0219520930C01CF91A1
:101CD0001F910F9108950F931F93CF93DF938C0162
:101CE000FC01848195810196817099279583848375
:101CF000C0E0D5E580911201C817F8F48091100179
:101D00002C2F30E0280F311D220F331F220F331FDD
:101D10002B503C4F4C2F4695F80184819581840FC0
:101D2000911D81704091F3036091F2038D9F802D8E
:101D300011240E94150BCF5FDDCFDF91CF911F9152
:101D40000F910C94860B0F931F93CF93DF93EC01AD
:101D500000E010E080911201282F30E002171307F5
:101D60001CF5909110019801290F311D220F331F8E
:101D7000220F331F2B503C4F869590E04C81081763
:101D800019071CF4442331F002C0411103C04091F3
:101D9000F30301C040E06091F2038091F1030E94DF
:101DA000150B0F5F1F4FD6CF0E94860B8C8190E0E2
:101DB0000196817099278C83DF91CF911F910F91AC
:101DC00008958F929F92AF92BF92CF92DF92EF923F
:101DD000FF920F931F93CF93DF93FC01B280948007
:101DE00081E0848300E015E09BE4A92E882483949D
:101DF000EE24EA94F12C3BE4C32ED12C8091120105
:101E0000081708F08EC0C02FD0E01C9FF0011D9F66
:101E1000F00D1124E856FD4F911003C01382128279
:101E200067C02381222389F1215023833481332306
:101E300019F09A2D921B01C0922F8091F3031C9FE1
:101E4000F0011D9FF00D1124E856FD4F899FC00140
:101E50001124B6010E9498306283211104C03323FB
:101E600011F01482A38222E02B1508F441C01C9FBC
:101E7000F0011D9FF00D1124E856FD4F8091F103F4
:101E800080838091F203818333C00E943332823099
:101E9000914074F582E08B1530F40E943332B70123
:101EA0000E94AC3002C08091F1031C9FF0011D9F85
:101EB000F00D1124E856FD4F808322E02B1558F4D5
:101EC0000E9433322091F2032695622F70E00E9427
:101ED000AC30820F02C08091F2031C9FF0011D9F65
:101EE000F00D1124E856FD4F81831282A382848273
:101EF000809110019E01280F311D220F331F220FE8
:101F0000331F2B503C4F1C9FF0011D9FF00D1124DF
:101F1000E856FD4F4281618180810E94150B0F5F61
:101F20006DCFDF91CF911F910F91FF90EF90DF90D8
:101F3000CF90BF90AF909F908F900C94860BE0EF66
:101F4000F3E080818E7F80836081718182819381C3
:101F50000E943B0B1092EB022FEF80E792E02150A2
:101F600080409040E1F700C000000C94860BE0EF49
:101F7000F3E080818E7F80831092EB022FEF80E769
:101F800092E0215080409040E1F700C000000C94A6
:101F9000860B6091F003669570E04BE050E083E1C2
:101FA00091E00E944332892B19F481E08093EB0287
:101FB0000E9458249093E4028093E3020895909144
:101FC000F00390FF35C09170811102C0926006C08D
:101FD0008B3210F0946502C0880F982B9093F00319
:101FE000662351F06091F0037091F1038091F20348
:101FF0009091F3030E943B0B6091F003669570E0B3
:102000004BE050E083E191E00E944332892B19F0CC
:102010001092EB0202C00E94C90F81E08093E60299
:102020004091F3036091F2038091F1030C94430D0E
:102030000895682F9091F003969581E0890F8B3277
:1020400008F081E00C94DF0F81E00C941910682FE8
:102050009091F00396958FEF890F09F48AE20C9422
:10206000DF0F81E00C94271061E00C94DF0FE0EFAC
:10207000F3E080818160808386950C943410809198
:10208000F00380FD0C949F0F0C94371060E00C94CB
:10209000DF0F8091E90281112EC00E94552281112B
:1020A00004C00E94F2220E944D0B0E94370B6093E5
:1020B000F0037093F1038093F2039093F3036E7F28
:1020C00061F40E944D0B0E94370B6093F0037093F4
:1020D000F1038093F2039093F3030E94240B109278
:1020E000EB028091F00380FF03C086950E944610AA
:1020F00081E08093E9020895E0EFF3E08081816060
:10210000808386950C9446101092EB0208950F93ED
:102110001F93CF93DF938091EB02882309F49CC037
:102120008091EA02E091F003E695E81BE093E50276
:10213000823049F4F0E0E953FC4FE491CE2FD0E037
:1021400007EF1BE059C0863049F4F0E0EC53FC4F38
:10215000E491CE2FD0E00BE01CE04EC0893051F46A
:10216000E695F0E0EF53FC4FE491CE2FD0E006E48B
:102170001DE042C08F3051F4E695F0E0E254FC4F90
:10218000E491CE2FD0E000E81DE036C0853149F45F
:10219000F0E0E554FC4FE491CE2FD0E00CEF1DE0D1
:1021A0002BC08831D9F0833239F4E9EBF3E0C591E3
:1021B000D4910BE11CE020C08432A9F08532C1F437
:1021C0008E2F63E00E947E30E92FF0E0EA54FC4F4E
:1021D000E491CE2FD0E001EE1EE00EC0C8EED3E0B9
:1021E0000BE61EE009C0C4EFD1E003EA1EE004C024
:1021F000C0EDD7E004E11BE08091E602882389F07E
:102200001092E6020E9458249E0120953095820F7C
:10221000931F9093E4028093E3021092E8021092DD
:10222000E7028091E3029091E4020E9464248C17FB
:102230009D0790F0E091E302F091E402CE0FDF1FE2
:10224000D093E402C093E30283EE92E0F801DF91C1
:10225000CF911F910F910994DF91CF911F910F9111
:102260000895882311F0FA0101C0FB010994CF936E
:10227000DF93C82FD62F0E945C0B8C1740F00E9472
:102280005C0B8D1720F4DF91CF910C9424108C2FD0
:10229000DF91CF910C9434100F931F93CF93FB01D8
:1022A000C281CC2309F463C08C010E94A1218272F7
:1022B000F801E25CFC45E431F10508F059C0E35A4D
:1022C000FF4F0C94C0300E943F1006C041E350E124
:1022D00064E270E10E943111C0E04AC044E250E182
:1022E00061E370E1F7CF44E05DE067EF7CE0F2CFBF
:1022F00047EF5CE064E07DE0EDCF42E25DE063E16A
:102300007DE0E8CF43E15DE062E27DE0E3CF40E4E1
:102310005DE061E37DE0DECF41E35DE060E47DE030
:10232000D9CF45E75BE064E67BE0D4CF44E65BE0F1
:1023300065E77BE0CFCF81E017C065E082E010C0A9
:1023400068E086E00DC06EE089E00AC064E18FE0DD
:1023500007C067E185E104C088E106C062E289E167
:102360000E943711B9CF83E20E943410B5CFC1E08B
:102370008C2FCF911F910F9108955AB1E42FEF70D8
:1023800021E030E001C0220FEA95EAF7352F322B29
:102390003AB942954F70E42FF0E032A1422F4095B8
:1023A000342342A1242B4FB7F894FC01660F771F0A
:1023B000660F771F6E0F7F1FE617F70789F0819171
:1023C00098E02BB9000000C087FF3BB9880F0000E0
:1023D00000C000C000C03BB900C09A9591F7ECCF97
:1023E0004FBF8FE391E00197F1F700C0000008951F
:1023F00047E90C94BD11CF93DF9397FF0DC0FB010C
:102400002281222349F0EC010E942612CE019F77FF
:102410000E9467120E94501281E0DF91CF910895CF
:102420008CE090E00E94503290E0A0E0B0E0809319
:10243000310490933204A0933304B093340408958C
:10244000609131048CE090E00C9464320E94A121F0
:10245000809335040E94B42180913104813071F061
:1024600048F0823081F08430A1F486EE0E94361864
:1024700088E10DC082EE0E941F170BC088E193E037
:102480000E94B50606C082EE0E941F1787E50E94D3
:1024900036188FE39CE90197F1F700C0000008951A
:1024A00080913104813039F040F0823031F0843055
:1024B00051F488E206C08CE204C082EE0E94CE177E
:1024C00002C00E943618809135040C94B1210F93FC
:1024D0001F93CF93DF938C01CCE0D0E0C8010C2E8A
:1024E00002C0969587950A94E2F78F700E941B07A9
:1024F0000E9436182497CC3F8FEFD80779F7DF91E9
:10250000CF911F910F9108950F931F93CF93DF9356
:10251000EC018B01FB018281882361F00E94A121E3
:10252000CE01815E9C458530910520F48093310475
:102530000E942012B801CE01DF91CF911F910F911F
:102540000C94FB110F931F93CF93DF93C62FD42FBF
:10255000122FFC0182818823C9F06093EE020E9451
:1025600058249093ED028093EC0280E28C0F883027
:1025700008F057C0C77081E001C0880FCA95EAF71C
:10258000DF91CF911F910F910C9449188091EE0229
:10259000681330C08091EC029091ED020E94642497
:1025A000883C910538F500E20D0FCD17B9F080E2B7
:1025B0008C0F883040F4C77081E001C0880FCA9545
:1025C000EAF70E945018083028F581E09D2F977097
:1025D00001C0880F9A95EAF70E944918812F0E943E
:1025E00036180830F0F4D77081E001C0880FDA9512
:1025F000EAF70AC080E28C0F883098F4C77081E057
:1026000001C0880FCA95EAF7DF91CF911F910F9112
:102610000C945018812FDF91CF911F910F910C9442
:102620003618DF91CF911F910F9108959C01CB0136
:10263000233F4CE53407F9F078F4283DFCE53F07EB
:10264000B9F0293D4CE5340711F1273D3C4531F502
:1026500026E241EE61EE1EC0253FFCE53F0799F002
:1026600070F0263F3C45D1F427E245EE66EE12C0FD
:1026700027E245EE0EC026E241EE60EE0BC027E2F7
:1026800045EE64EE07C026E241EE62EE03C028E2AA
:1026900041E065EE0E94A21280E00895FC01828173
:1026A000882319F01092EE02089581E00895CF93E7
:1026B000DF93EC01FB018281882309F41FC1C23042
:1026C000FCE5DF0708F41BC1C6319CE5D90738F0EB
:1026D0009E012A5F3C452930310508F010C10E9457
:1026E000682290933D0480933C04C031ECE5DE0702
:1026F00009F4C3C008F041C0C8308CE5D80709F41C
:102700009AC0F0F4C430ECE5DE0709F487C068F441
:10271000C2308CE5D80709F477C0C330DC4509F036
:10272000E3C080913C04826076C0C630ECE5DE07F1
:1027300009F46EC008F07BC080913C0488606BC0D7
:10274000CC308CE5D80709F485C068F4CA30ECE5D4
:10275000DE0709F474C008F079C00E94AB1B8091B9
:102760003C04806858C0CE308CE5D80709F476C0A8
:1027700008F07FC080913C048BC0CB3FECE5DE07C6
:1027800009F44FC018F5C3318CE5D80709F47DC0B2
:1027900078F4C131ECE5DE0709F473C0C231DC45E1
:1027A00009F0A2C00E94AB1B80913C048F7733C01C
:1027B000C5318CE5D80709F472C008F486C0CA3F59
:1027C000DC4509F091C080913D043EC0CF3FFCE55F
:1027D000DF0709F45FC058F4CD3F9CE5D90709F441
:1027E00044C008F43FC080913D0482602DC0C130D8
:1027F000FDE5DF0709F475C008F45DC0C230DD45B2
:1028000009F072C080E06EC080913C04816003C01A
:1028100080913C04806180933C0466C080913C04BC
:1028200011C080913D04826080933D045DC0809121
:102830003C048062F0CF80913C048064ECCF8091B6
:102840003C0488608460E7CF8160EECF80913C04D7
:102850008E7FE1CF80913C048D7FDDCF80913C0461
:10286000877FD9CF80913D0418C080913D048D7F32
:10287000DBCF80913C048F7ECECF80913C048F7D56
:10288000CACF80913C048F7BC6CF80913C04877F68
:102890008B7FC1CF80913D048D7F8E7FC5CF80918E
:1028A0003C0482FB222720F991E0922790FB82F9D9
:1028B00090FB83F9B0CF80913D04982F9095917053
:1028C0008E7F892B90FB81F9AFCF0E94AB1B80914B
:1028D0003C0487FB222720F991E0922790FB87F99F
:1028E0009ACF81E00E94F42280913C0490913D04B3
:1028F0000E9479220E94AB1B80E001C081E0DF9141
:10290000CF910895CF93DF9386319C4541F5EB013C
:102910000E94A121982F8A8120911E0130911F01D0
:10292000882379F09A7A81E009F480E08093EF02BD
:10293000911102C069E201C065E3C9010E948F23C1
:102940000AC08091EF02811102C069E201C065E313
:10295000C9010E949A230E94F22180E001C081E017
:10296000DF91CF9108951092B9008CE08093B80068
:102970000895EF92FF920F931F93CF93DF93182F39
:10298000EB011092BC0084EA8093BC000E945824A2
:102990007C018091BC0087FD0EC0CF3F8FEFD80730
:1029A000C1F30E9458248E199F098C179D0788F344
:1029B0008EEF9FEF2EC08091B900887F883041F064
:1029C0008091B900887F803119F08FEF9FEF21C08F
:1029D0001093BB0084E88093BC000E9458248C01B3
:1029E0008091BC0087FD0CC0CF3F8FEFD807C1F3AB
:1029F0000E945824801B910B8C179D0788F3D8CF19
:102A00008091B900887F883111F08034F1F680E040
:102A100090E0DF91CF911F910F91FF90EF9008957B
:102A20000F931F93CF93DF93EB018093BB0084E858
:102A30008093BC000E9458248C018091BC0087FDCB
:102A40000EC0CF3F8FEFD807C1F30E945824801BE0
:102A5000910B8C179D0788F38EEF9FEF0CC0209190
:102A6000B900287F81E090E0283211F480E090E006
:102A7000919581959109DF91CF911F910F910895C3
:102A80000F931F93CF93DF93EC0184E88093BC00F6
:102A90000E9458248C018091BC0087FD0EC0CF3F5E
:102AA0008FEFD807C1F30E945824801B910B8C171D
:102AB0009D0788F38EEF9FEF03C08091BB0090E0ED
:102AC000DF91CF911F910F91089584E98093BC000D
:102AD00008959093F5028093F4020895E091F40232
:102AE000F091F502309721F00190F081E02D0994EA
:102AF00080E00895E091F402F091F502309799F0AA
:102B000020913001222359F020913C0427FF07C077
:102B1000DC012C9111962C93119725E02C930280C7
:102B2000F381E02D09940895E091F402F091F5020B
:102B3000309739F022E0DC012C930480F581E02D00
:102B4000099408952091F2023091F3022817390771
:102B500071F09093F3028093F202E091F402F0910D
:102B6000F502309721F00680F781E02D0994089551
:102B70002091F0023091F1022817390771F09093FB
:102B8000F1028093F002E091F402F091F5023097A7
:102B900021F00084F185E02D0994089585B78068BF
:102BA00085BF85B7806885BF089508950C94D515B5
:102BB0000C94D6150C94D5150C94D5150E94CE15F1
:102BC0000E94DA150C94D81581E008950C94E41550
:102BD0000E944F240E946F040E94CB240E9449103F
:102BE0000C94DC15AF92BF92CF92DF92EF92FF92DE
:102BF0000F931F93CF93DF93CDB7DEB72A970FB60E
:102C0000F894DEBF0FBECDBF0E949C040E94E61563
:102C1000811111C08FEF89838A831B820E945824FF
:102C20008160782F9D838C8349815A816B818D814E
:102C30000E94C81640C087EFA82E82E0B82E00E0A0
:102C400010E0C02E802F0E94F804E82EF501D190EC
:102C50005F01D82631F40F5F1F4F0E30110589F741
:102C6000D9CF8091B30381FD0E94FE0480E0FF2450
:102C7000F3949D2D9F21D1F08E83CF82EF2081E0B0
:102C800009F480E088870E9458248160782F9A8711
:102C900089874E815F8168858A850E94C816F80100
:102CA000E950FD4F8081F826F08205C08F5FFF0C50
:102CB0008630F9F6D0CF0E9487100E945D260E94D0
:102CC0006E159091F6028917B1F00E946E158093EF
:102CD000F6022A960FB6F894DEBF0FBECDBFDF9185
:102CE000CF911F910F91FF90EF90DF90CF90BF9009
:102CF000AF900C9430072A960FB6F894DEBF0FBE43
:102D0000CDBFDF91CF911F910F91FF90EF90DF909A
:102D1000CF90BF90AF900895DC0111962C91119740
:102D20008C91682F70E041E050E001C0440F8A951B
:102D3000EAF712968C91129730E0882329F080915F
:102D400015038823E9F006C0F901EB5FFC4F908181
:102D50009423B1F086E0829FF001839FF00D11244F
:102D6000E60FF71FEE0FFF1FEF5CFE4F8081918192
:102D70008D939C93F901EB5FFC4F8081482B06C03B
:102D8000F901EB5FFC4F4095808148234083089513
:102D9000CF93DF93CDB7DEB72B970FB6F894DEBF96
:102DA0000FBECDBF942F4F83252F588769877A8711
:102DB0008B874A855B85452B31F02F3F31F481E0CD
:102DC0009F3F19F403C081E001C080E080FD04C092
:102DD000CE0107960E948C16DE01119686E0FD0159
:102DE00011928A95E9F785E0FE01379601900D92E0
:102DF0008A95E1F749815A816B817C818D819E8121
:102E00000E94641E2B960FB6F894DEBF0FBECDBF96
:102E1000DF91CF910895FC01808191810E943A2138
:102E200092959F70963051F4863F41F08091150342
:102E300091E0892780931503909314030895CF930D
:102E4000882309F4A9C0C82F8238C1F40E946E15E6
:102E500081FDA2C069E380911E0190911F010E9433
:102E60008F230E94F2212FEF81EE94E021508040C9
:102E70009040E1F700C0000069E319C0833801F514
:102E80000E946E1580FD88C063E580911E019091BF
:102E90001F010E948F230E94F2212FEF81EE94E008
:102EA000215080409040E1F700C0000063E5809130
:102EB0001E0190911F010E949A23CF910C94F22140
:102EC0008438C1F40E946E1582FD66C067E480916B
:102ED0001E0190911F010E948F230E94F2212FEF6B
:102EE00081EE94E0215080409040E1F700C0000066
:102EF00067E4DDCF8CEF8C0F813AF8F48C2F0E94C1
:102F0000E928811149C06C2F80911E0190911F0109
:102F10000E940F23882349F06C2F80911E0190910D
:102F20001F010E949A230E94F2216C2F80911E01A2
:102F300090911F010E948F23C0CF80E28C0F8830B8
:102F400048F4C77081E001C0880FCA95EAF70E9473
:102F5000A421B3CFEBE5EC0FE33040F4F0E0ED5902
:102F6000FD4F808190E0CF910C94A215E8E5EC0F25
:102F7000E73150F4F0E0EE0FFF1FEB5CFD4F808176
:102F80009181CF910C94B815C03F30F08C2F0E94E6
:102F90006525CF910C945226CF910895882309F48A
:102FA00064C0823879F40E946E1581FF5EC069E3C7
:102FB00080911E0190911F010E948F230E94F22197
:102FC00069E310C08338B1F40E946E1580FF4DC0D4
:102FD00063E580911E0190911F010E948F230E9442
:102FE000F22163E580911E0190911F010E949A23B6
:102FF0000C94F221843879F40E946E1582FF35C05A
:1030000067E480911E0190911F010E948F230E940E
:10301000F22167E4E7CF9CEF980F913A10F4682F04
:10302000E1CF90E2980F983050F4877091E001C0A2
:10303000990F8A95EAF7892F0E94AA21D9CF9BE59B
:10304000980F933020F480E090E00C94A21598E55E
:10305000980F973120F480E090E00C94B815803FF1
:1030600020F00E94CD250C9452260895CF93C82FAE
:103070000E941F17C93349F42FEF87EE93E02150C8
:1030800080409040E1F700C000008C2FCF910C945D
:10309000CE17882321F00E94A4210C94F2210895D8
:1030A000882321F00E94AA210C94F22108956F92A6
:1030B0007F928F929F92BF92CF92DF92EF92FF9278
:1030C0000F931F93CF93DF936C01C62F172FFC0133
:1030D000058102950F70D281D1110E94C4210E94F6
:1030E0009A218823A9F0DD2399F080E28C0F8830A3
:1030F00078F0812F807F803611F4C63F49F082E05E
:103100000E943C220E949A2191E0B82EB92601C06B
:10311000B12CE12EE2949FE0E9228E2D90E0FC019B
:10312000EF58FF4F0C94C030012F0F70812F807F1C
:1031300011F00295007FDD2399F0002309F4DCC132
:1031400080E28C0F883010F0C11104C0802F0E94E3
:10315000A42103C0802F0E94B7210E94F221CCC17C
:103160008C2F0E94CE17002309F478C280E28C0FC6
:10317000883010F0C11104C0802F0E94AA2103C022
:10318000802F0E94BD210E94F22168C2912F9F7062
:10319000812F807FF92E803219F0F29480EFF8228F
:1031A000CC2319F0C130C9F021C0DD2371F0002318
:1031B00041F0013031F40E94D7218F290E94DF2194
:1031C00052C20E94D7218F2916C0002319F0013066
:1031D00009F444C20E94E8211EC0DD2321F0023020
:1031E00008F041C207C0011139C215C0DD2331F01A
:1031F000011182C18F2D0E94491835C2002359F058
:10320000C93309F088C1FFEF27EE83E0F150204079
:103210008040E1F77EC18F2D0E9450181FC2812F80
:1032200086958695837019F0813071F0E6C1DD23B3
:1032300031F08C2F912F93700E94A215E8C180E08D
:1032400090E00E94A215EAC1DD2331F08C2F912F6E
:1032500093700E94B815DBC180E090E00E94B81521
:10326000DDC1DD2309F1C53F51F0C63F71F0C43F18
:10327000A9F4809136049091370481600BC080914D
:10328000360490913704826005C080913604909195
:103290003704846090933704809336048C2F0E9407
:1032A00065250E945226B3C1C53F51F0C63F71F05B
:1032B000C43FA9F480913604909137048E7F0BC0EF
:1032C00080913604909137048D7F05C0809136043B
:1032D000909137048B7F90933704809336048C2F22
:1032E0000E94CD250E94522699C1812F837009F03A
:1032F00048C0D11186C12C2F229526952770220F08
:10330000220F6C2F6F70862F90E0A0E0B0E0022EAD
:1033100004C0880F991FAA1FBB1F0A94D2F7C4FFCD
:1033200010C04FE050E060E070E004C0440F551F53
:10333000661F771F2A95D2F7409550956095709536
:1033400003C040E050E0BA01212F26952695237056
:103350003A014B01682A792A8A2A9B2AC401B301BF
:10336000223049F058F4213019F00E94B51F49C1AC
:103370000E94A31F46C10E94C71F43C10E94A11FF4
:1033800040C1DD2319F0812F817001C0869588230B
:1033900009F437C12C2F229526952770220F220F72
:1033A0006C2F6F70862F90E0A0E0B0E0022E04C07A
:1033B000880F991FAA1FBB1F0A94D2F7C4FF10C021
:1033C0004FE050E060E070E004C0440F551F661FFE
:1033D000771F2A95D2F7409550956095709503C058
:1033E00040E050E0BA01212F2695269523703A013E
:1033F0004B01682A792A8A2A9B2AC401B301223008
:1034000049F058F4213019F00E947A20FAC00E9445
:103410006820F7C00E948C20F4C00E94DB1FF1C01E
:10342000012F0F70DD2339F0802F0E9401208C2F97
:103430000E944918E6C08C2F0E945018802F0E94CD
:103440002220DFC0C23F61F128F4C03F41F0C13FFC
:10345000B9F01DC0C33F71F1C43FB1F118C0DD2305
:1034600039F0011100C1812F8F710E944720FBC0EC
:10347000023008F0F3C0812F8F710E944720EEC008
:10348000DD2349F0812F8F710E940120ECC0D11102
:1034900031C0011135C0812F8F710E942220DEC002
:1034A000812F8F71DD2319F00E942220DCC00E9441
:1034B0000120D4C0DD2329F0812F8F710E94EC1FE1
:1034C000D2C00E94E71FCAC0DD2351F0012F0F7147
:1034D000802F0E94012063E0802F0E942722C3C01A
:1034E00081E00E943C22023008F4B8C082E00E94D1
:1034F0003C22B4C0002331F28C2F0E941F17B3C0AE
:10350000C93349F42FEF87EE93E02150804090407B
:10351000E1F700C000008C2F0E94CE179FC0412F02
:103520004F706C2FC6010E9492070E94121F6DC03F
:103530008C2F90E0FC01E05FF109E730F10578F5B0
:10354000EF57FF4F0C94C030DD2309F450C0909129
:10355000150381E0892705C0D093150348C081E099
:103560008D278093150343C0D11141C081E0F9CF6D
:10357000D1113DC0109215033AC0DD2319F00E940D
:10358000722135C00E947E2132C0DD2329F0809156
:1035900014038823E1F229C00023C9F228C08091D6
:1035A00014030023C1F0882341F09091150381E0BA
:1035B000892780931503109214038C2FDD2319F0B3
:1035C0000E941F1714C00E94CE1786E0F6011192C8
:1035D0008A95E9F70CC0882351F0D11108C0909169
:1035E000150381E089278093150310921403412F5E
:1035F0004F706C2FC6010E94950788EF8E0D8430A6
:1036000020F40E946E150E943007DD2339F0107FF0
:10361000103611F4C63F11F00E948C21BB2041F1FD
:103620000E946E2180FD24C0F60112820E94682152
:103630000E940120C6010E945E1B0E946821DF914A
:10364000CF911F910F91FF90EF90DF90CF90BF909F
:103650009F908F907F906F900C94222088EF8E0D1A
:103660008430E0F6CECF88EF8E0D843080F6C9CF5F
:10367000DF91CF911F910F91FF90EF90DF90CF904E
:10368000BF909F908F907F906F9008950F931F939E
:10369000CF93DF93EC01688179818A810E94452173
:1036A0008C010E949E200E948F1FB801CE010E94B3
:1036B0005718DF91CF911F910F910895CF93DF930A
:1036C000FC019081818123813481232B31F08F3F54
:1036D00031F481E09F3F19F403C081E001C080E034
:1036E00080FD0EC0EF01CF010E944907882341F001
:1036F000CE010E94461BCE01DF91CF910C940407AE
:10370000DF91CF910895882321F00E94B7210C9476
:10371000F2210895882321F00E94BD210C94F2210A
:1037200008950E94C4210E94D4210E94F2210E9487
:103730007C270E94522680E090E00E94A21580E043
:1037400090E00C94B81580911E0190911F010E9489
:10375000A5230C94911B0E94B4210C94A31BE92F68
:10376000E295EF704E2F50E0FA013297EE30F105FE
:10377000B0F4E857FF4F0C94C030803F91F018F43C
:10378000883E68F40EC0843F51F40BC0883E48F078
:10379000813F29F406C093FB882780F9089580E0D3
:1037A000089581E008950E943A210E94AF1B089578
:1037B000CF93DF9300D000D01F92CDB7DEB70F902C
:1037C0000F900F900F900F90DF91CF910895CF93AE
:1037D000DF9300D000D000D0CDB7DEB726960FB66D
:1037E000F894DEBF0FBECDBFDF91CF9108951F9338
:1037F000CF93DF93C091160316E080911703C8178B
:1038000099F0D0E01C9FF0011D9FF00D1124E85E9F
:10381000FC4F4081518162817381848195810E9436
:10382000E71B2196C770E9CFDF91CF911F910895D3
:10383000409148035091490360914A0370914B03B2
:1038400080914C0390914D030C94E71B0F931F93B1
:10385000CF93DF9380914D0382958F7009F05DC007
:1038600080914A03882309F458C08091160310916F
:1038700017036091480370914903C0914B03D091A5
:103880004C0391E06F3F09F090E0292F06E081178B
:1038900009F443C0209721F07F3F21F030E003C0BE
:1038A00031E001C0322F90E030FD34C0089FF001BC
:1038B000099FF00D1124DF01A85EBC4F11963C91C9
:1038C0001197371327C03C91361324C012963C91B0
:1038D000129731111FC013964D915C9114974C1B98
:1038E0005D0B483C5105B0F480914D038F708061B1
:1038F00080934D03E35EFC4F80818F7080618083F5
:1039000088E493E00E945E1BDF91CF911F910F919D
:103910000C94F71B01968770BACFDF91CF911F915E
:103920000F9108959F92AF92BF92CF92DF92EF9244
:10393000FF920F931F93CF93DF93CDB7DEB76197BD
:103940000FB6F894DEBF0FBECDBF8C0185E0F80145
:10395000DE011D9601900D928A95E1F7F8014081F4
:103960005181E280909148036091490320914B037B
:1039700030914C032115310531F06F3F31F481E076
:103980009F3F19F403C081E001C080E0F82FF1707F
:103990009F2E80FD46C1F801A380B48088E4C82E24
:1039A00083E0D82EF0904A03F501E21BF30BFF20D1
:1039B00009F4DFC080914D03E83CF10508F09BC09D
:1039C000282F207F09F052C0561313C0491311C08D
:1039D000FE2CE1100EC08F70806180934D030E9419
:1039E000181CC6010E945E1B80914D03F80185835F
:1039F00058C1AB2831F05F3F31F481E04F3F19F4FB
:103A000003C081E001C080E080FD03C081E08E251D
:103A100002C080E090E0F82FF170FF2E80FF1CC004
:103A2000809116032091170336E0821709F417C11D
:103A300090E0389FF001399FF00D1124E85EFC4FB3
:103A40006181561306C06081461303C06281E6128D
:103A500003C001968770E9CFFE2CEE2009F421C146
:103A600080914D03816080934D035AC0561306C068
:103A7000491304C0E11002C0F8019FC04D875E8762
:103A80008D859E850E94D31B882379F1EE2069F1F4
:103A900020914D03822F82958F7090E0029774F0F1
:103AA000809148039091490398878F831986BB863C
:103AB000AA862C87CE0107960E945E1B86E0F8013D
:103AC000A8E4B3E001900D928A95E1F70E94261CCC
:103AD0000E94181C0DC0561729F14D875E878D85F1
:103AE0009E850E94D31B81112CC0C8010E945E1BC1
:103AF000FF24F394D6C0282F207F69F77A2DB98A46
:103B0000A88A6E2D89890E94D81B88E493E00E94C0
:103B10005E1B86E0F60111928A95E9F70E94181C57
:103B2000F12CBFC04913D9CFE110D7CFF80185835D
:103B3000C8010E945E1B86E0F60111928A95E9F7A2
:103B4000B0C0EE2091F220914D03822F82958F70AC
:103B500090E002970CF4B2CF809148039091490312
:103B60009A8389831B82BD82AC822E83CE0101960B
:103B7000A3CFE83CF10508F047C0FE2CEE2009F485
:103B8000B4CF561330C049132EC020914D0320FDF1
:103B900021C0822F82958F70482F50E0411551052A
:103BA000C9F0F80125834F30510541F08F5F982F00
:103BB0009295907F822F8F70892B8583C8010E94F8
:103BC0005E1B86E0F801A8E4B3E001900D928A95AF
:103BD000E1F742C086E0F801A8E4B3E001900D925D
:103BE0008A95E1F75EC04D875E878D859E850E9430
:103BF000D31B811163CF80914D03816080934D036E
:103C0000C8010E945E1B4DC07A2DB98AA88A6E2D0C
:103C100089890E94D81B86E0F60111928A95E9F7FE
:103C20001BC0EE2009F461CF4D875E878D859E8590
:103C30000E94D31BF82E882309F457CF86E0F801A1
:103C4000A8E4B3E001900D928A95E1F788E493E04F
:103C50000E940B170E94261C0E94181C22C04D8730
:103C60005E878D859E850E943A21292F22952F708F
:103C7000223028F49F7039F0811105C00BC0243028
:103C800028F49F7049F4805E883020F0C8010E94BB
:103C90005E1B9F2CF92C05C0F8019581907F99F748
:103CA000F9CF8F2D61960FB6F894DEBF0FBECDBF52
:103CB000DF91CF911F910F91FF90EF90DF90CF9008
:103CC000BF90AF909F9008951F93CF93DF93CDB790
:103CD000DEB72C970FB6F894DEBF0FBECDBF4F8373
:103CE000588769877A878B879C87CE0107960E94C1
:103CF000921C8823D1F09F8188852A853B85232BC0
:103D000031F08F3F31F481E09F3F19F403C081E02F
:103D100001C080E080FD47C04F81588569857A8564
:103D20008B859C850E94E71B3EC086E0FE0137968E
:103D3000DE01119601900D928A95E1F7FF81E885E9
:103D40006A857B856115710531F0EF3F31F481E0C3
:103D5000FF3F19F403C081E001C080E080FD23C073
:103D60002091170330E0C90101968770992740918F
:103D7000160350E084179507F1F1F983EA837D83F8
:103D80006C8396E0929FD001939FB00D1124A85EA2
:103D9000BC4FFE01319601900D929A95E1F7809308
:103DA00017030E94F71B16E08091160390911703EA
:103DB000891771F1189FC0011124885E9C4F0E94E1
:103DC000921C882329F1E09116031E9FF001112413
:103DD000E85EFC4F408151816281738184819581CD
:103DE0000E94E71B8091160390E001968770992747
:103DF00080931603D9CF0E94AB1B10921703109229
:103E00001603E8E4F3E086E0DF011D928A95E9F706
:103E10002C960FB6F894DEBF0FBECDBFDF91CF91C9
:103E20001F910895EF92FF920F931F93CF93DF930B
:103E30008C01892B09F46CC0F12CEE24E394E80189
:103E40002196F8018491843740F4843008F051C001
:103E5000813081F0823019F15BC0853709F444C0AC
:103E6000A8F19CE7980F903708F052C08F770E9416
:103E7000CE1741C00E5F1F4FFE01849190E2980F54
:103E8000983050F48770FE2D01C0FF0F8A95EAF735
:103E90008F2F0E94C72114C00E941F172DC00E5FD4
:103EA0001F4FFE01849190E2980F983060F4877064
:103EB000FE2D01C0FF0F8A95EAF78F2F0E94CD21BA
:103EC0000E94F22119C00E94CE1716C00E5F1F4F2C
:103ED000FE01C491CC2381F08FE99FE00197F1F7B7
:103EE00000C00000C150F6CF0E5F1F4FFE01F490DE
:103EF00003C00E941F178E018F2D882309F49FCFC6
:103F0000EFE9FFE03197F1F700C000008150F5CFF5
:103F1000DF91CF911F910F91FF90EF900895089539
:103F200008950C94901F0C94911F0E94931F60930E
:103F3000890370938A0380938B0390938C030C9472
:103F4000911B0C94951F0F931F930091890310915F
:103F50008A0320918B0330918C03602B712B822B71
:103F6000932B1F910F910C94951F0F931F9300910A
:103F7000890310918A0320918B0330918C03602375
:103F80007123822393231F910F910C94951F0F93FC
:103F90001F930091890310918A0320918B03309124
:103FA0008C0360277127822793271F910F910C9410
:103FB000951F0C94901F0E94D91F609385037093E6
:103FC000860380938703909388030C94911B60E091
:103FD00070E0CB010C94DB1F0F931F9341E050E086
:103FE00060E070E08A019B0104C0000F111F221FD6
:103FF000331F8A95D2F7C901B8011F910F910C9414
:10400000DB1F0F931F9341E050E060E070E004C0BD
:10401000440F551F661F771F8A95D2F7809185033D
:1040200090918603A0918703B09188038A019B0138
:10403000082B192B2A2B3B2BC901B8011F910F917B
:104040000C94DB1F0F931F9341E050E060E070E0A1
:1040500004C0440F551F661F771F8A95D2F74095FD
:104060005095609570958091850390918603A091FD
:104070008703B09188038A019B01082319232A230F
:104080003B23C901B8011F910F910C94DB1F0F93C3
:104090001F9341E050E060E070E004C0440F551F02
:1040A000661F771F8A95D2F78091850390918603CA
:1040B000A0918703B09188038A019B0108271927E3
:1040C0002A273B27C901B8011F910F910C94DB1FD0
:1040D0000F931F930091850310918603209187030E
:1040E00030918803602B712B822B932B1F910F91A2
:1040F0000C94DB1F0F931F9300918503109186038F
:1041000020918703309188036023712382239323B6
:104110001F910F910C94DB1F0F931F930091850348
:1041200010918603209187033091880360277127BF
:10413000822793271F910F910C94DB1F0895292F3D
:10414000220F920F990F890FE82FE695E695E695D5
:10415000877051E001C0550F8A95EAF785E0E89F26
:10416000F0011124E25BFC4F20E030E070E0408180
:10417000CB01022E02C0969587950A94E2F78170D2
:10418000819584278523842781932F5F3F4F253096
:10419000310569F70895292F220F920F990F890F82
:1041A000682F669566956695982F977085E0689F4D
:1041B000B001112440E050E080E0FB01E40FF51F66
:1041C000E25BFC4F208130E0092E02C03695279536
:1041D0000A94E2F721703327042E01C0220F0A94BB
:1041E000EAF7822B4F5F5F4F4530510531F7089555
:1041F000BF92CF92DF92EF92FF920F931F93CF93D4
:10420000DF938C01C0908503D0908603E0908703F4
:10421000F09088038091890390918A03A0918B0389
:10422000B0918C03C82AD92AEA2AFB2ACFE1D0E030
:10423000D701C6010C2E04C0B695A7959795879512
:104240000A94D2F780FD04C0219790F7B12C07C0E3
:10425000BC2EB8018C2F0E94B1070197A9F38B2DBA
:10426000DF91CF911F910F91FF90EF90DF90CF9052
:10427000BF900895CF93DF93EC010E94F820BE0118
:104280000E94B107DF91CF9108951F93CF93DF93E1
:10429000EB0190911303992321F0CB010E943A2165
:1042A00013C0882349F0CB010E94F820182F682FF3
:1042B000CE010E949F2004C0CB010E94CB20182F6A
:1042C000BE01812F0E94B107DF91CF911F91089508
:1042D00080918E03859585958595089580918E03AF
:1042E0008770089582E080938D0381E080931503A9
:1042F000089510928D0310921503089580918D03F7
:10430000823019F481E080938D0380918D03833096
:1043100011F40C947921089580918D03823019F461
:1043200083E080938D0380918D03813011F40C9490
:104330007921089590918E03977081E009F480E0CF
:1043400008958091B20308959091B203892B8093D0
:10435000B203089580959091B20389238093B203AC
:1043600008958093B20308951092B2030895909136
:10437000B103892B8093B103089580959091B10387
:1043800089238093B10308951092B1030895909109
:10439000B003892B8093B003089580959091B0036A
:1043A00089238093B00308951092B00308958091FB
:1043B0008F03089508950C94DA210C94DB219091D9
:1043C0008F03981721F080938F030C94DD210895BB
:1043D00080918F03882329F010928F0380E00C9442
:1043E000DD210895E0911E01F0911F018091B2033B
:1043F0008083E0911E01F0911F0190818091B103B3
:10440000892B8083E0911E01F0911F0190818091A2
:10441000B003892B808380918F03882381F0E09102
:104420001E01F0911F019081892B808380911E01D4
:1044300090911F010E94F92281110E94E821809130
:104440001E0190911F010C947A150C94DA2198E0CA
:10445000899F90011124262B20938E030E94012016
:1044600080918E038595859585950C9425221092D3
:104470008E0380E00C94252220918E038095822368
:1044800080938E03982F977079F430E0482F082E90
:10449000000C550B2417350739F0859585958595C2
:1044A0000E9422200C943722089580E090E00E9420
:1044B0005E3221E08C3E9E4F09F020E0822F08956D
:1044C00082E090E00C94503283E090E00C94503203
:1044D000CF9384E090E00E945032C82F81E290E0B8
:1044E0000E9450322C2F30E0A901582BCA01CF91E5
:1044F0000895CF93C92F682F84E090E00E94643222
:104500006C2F81E290E0CF910C9464328FE090E0C8
:104510000C945832AB01BC018FE090E00C947632E1
:10452000AB01BC0183E190E00C94763260E070E076
:10453000CB010C9490226CEE7EEF80E090E00E9424
:10454000823260E082E090E00E94643260E083E0CA
:1045500090E00E9464321092890310928A031092B4
:104560008B0310928C0360E084E090E00E94643240
:1045700060E081E290E00E94643260E085E090E0DB
:104580000E94643260E086E090E00E9464326FEF47
:1045900087E090E00E94643240E050E0BA0188E099
:1045A00090E00E94763260E08DE090E00E946432FC
:1045B00040E050E0BA0188E190E00E94763260E08D
:1045C00087E190E00E94643240E050E0BA018CE163
:1045D00090E00E94763260E080E290E00E946432D7
:1045E0000C9444060C949B22682F8EE090E00C946F
:1045F0006432FC01329680913001882331F0809141
:104600003C0487FF02C09EE101C096E080E091502B
:1046100028F021912223D9F38F5FF9CF08956623E3
:1046200051F1209130012223E9F020913C0427FF31
:1046300019C0462F4695469546954E31E0F4677071
:1046400021E030E002C0220F331F6A95E2F7FC013F
:10465000E40FF11D828190E02823392381E0232B90
:1046600069F409C0FC01329608962191621729F07D
:10467000E817F907D1F780E0089581E008959C01DB
:10468000FC0132969FEF80E04191461789F09F3FF1
:1046900019F4411101C0982F8F5F8630A9F79F3F11
:1046A00039F0F901E90FF11D97FDFA95628308953C
:1046B00008959C012A5F3F4FFC014281461301C0CF
:1046C0001282019682179307B9F70895262F26952F
:1046D000269526952E3168F4FC01E20FF11D6770D6
:1046E00021E030E001C0220F6A95EAF78281282B91
:1046F00022830895262F2695269526952E3170F42F
:10470000FC01E20FF11D677021E030E001C0220FD3
:104710006A95EAF7209582812823228308952091C3
:104720003001222329F020913C0427FD0C946623BC
:104730000C943F2320913001222329F020913C0446
:1047400027FD0C947A230C94592320913001FC010D
:104750003296222331F080913C0487FF02C08EE123
:1047600001C086E0DF011D928A95E9F7089508955A
:104770000C94B723CF930E9489040E949C040E944A
:10478000B823C0E08C2F0E94F804811104C0CF5FD1
:10479000CE30C1F701C081E0CF9108950C94B723CA
:1047A0000C94CE230E94D02380914204843009F4DB
:1047B00039C01092B40320E488E190E00FB6F89479
:1047C000A895809360000FBE2093600080E00E9457
:1047D00030070E9484108091B50381110AC081E0E6
:1047E0008093B5038091F00381708093B6030E949B
:1047F000B70F0E94D02383B7817F846083BF83B7C4
:10480000816083BF7894889583B78E7F83BF0FB60E
:10481000F894A89580916000886180936000109260
:1048200060000FBE08950C94B7230E94AB1B0E943A
:104830006E150E9430071092B5038091B603811166
:104840000E947C100E94C90F0C9413241F920F9297
:104850000FB60F9211248F939F93AF93BF938091C4
:10486000B403811113C08091380490913904A09150
:104870003A04B0913B044196A11DB11D80933804C8
:1048800090933904A0933A04B0933B04BF91AF9145
:104890009F918F910F900FBE0F901F90189582E0FF
:1048A00084BD93E095BD9AEF97BD80936E00089507
:1048B0002FB7F8948091380490913904A0913A046C
:1048C000B0913B042FBF08959C014FB7F89480919D
:1048D000380490913904A0913A04B0913B044FBF41
:1048E000821B930B089578941F920F920FB60F922C
:1048F00011248F939F93AF93BF938091380490912D
:104900003904A0913A04B0913B040196A11DB11D58
:104910008093380490933904A0933A04B0933B04F5
:10492000BF91AF919F918F910F900FBE0F901F90ED
:104930001895F89481E08093E00080E28093D8009D
:10494000E9ECF0E010828FE19EE40197F1F700C0FE
:1049500000001DBA109268001CBC10BE1FBA109255
:104960007A0010926E0010926F00109271001092F7
:1049700072001082ECEBF0E0108214B817B81AB88D
:104980001DB810BA108215B818B81BB81EB811BAE5
:104990000C94003F08950E945522811102C00E948C
:1049A000F2220E9460228093B3030E9468229093B7
:1049B0003D0480933C040E946422682F70E080E0F4
:1049C00090E00C94A11F8091C00380FF0BC0609108
:1049D000240185E0689FB001112475956795759550
:1049E00067952BC081FF09C06091240185E0689F15
:1049F000B00111247595679520C082FF07C06091B2
:104A0000240185E0689FB001112417C09091BF0375
:104A10009923D1F060912301961788F72091240102
:104A200085E0289F90011124929FA001939F500D33
:104A3000112470E0CA010E94AC306038710540F466
:104A40006115710519F406C065E070E0862F0895C0
:104A50008FE7089581E008958091C00380FF08C02A
:104A60006091210170E0759567957595679521C0F6
:104A700081FF06C06091210170E07595679519C0AE
:104A800082FF04C06091210170E010C09091BF03CB
:104A9000992399F0609120019617A0F78091210148
:104AA000899FC001112470E00E94AC30603871050C
:104AB00040F46115710519F406C061E070E0862FBD
:104AC00008958FE7089581E00895803F21F40E94C2
:104AD000E324819504C0813F29F40E94E32480935C
:104AE000C4030895823F21F40E94E324819504C009
:104AF000833F29F40E94E3248093C3030895893FF0
:104B000019F40E942C2505C08A3F31F40E942C25FF
:104B100081958093C50308958B3F21F40E942C2535
:104B2000819504C08C3F29F40E942C258093C603F4
:104B30000895843F21F48091C203816017C0853FAE
:104B400021F48091C203826011C0863F21F48091DC
:104B5000C20384600BC0873F21F48091C203886048
:104B600005C0883F31F48091C20380618093C20305
:104B700008958D3F21F48091C00381600BC08E3F6A
:104B800021F48091C003826005C08F3F29F4809199
:104B9000C00384608093C0030895803F39F48091FE
:104BA000C40387FF6CC01092C40369C0813F29F41D
:104BB0008091C4031816BCF362C09091C303823F76
:104BC00029F497FF5CC01092C30359C0833F19F4C6
:104BD0001916CCF354C0893F41F48091C5031816CF
:104BE0000CF04DC01092C5034AC08A3F29F4809151
:104BF000C50387FF44C0F6CF8B3F39F48091C603CD
:104C000087FF3DC01092C6033AC08C3F29F48091C3
:104C1000C6031816BCF333C0843F21F48091C2034D
:104C20008E7F17C0853F21F48091C2038D7F11C014
:104C3000863F21F48091C2038B7F0BC0873F21F414
:104C40008091C203877F05C0883F31F48091C20301
:104C50008F7E8093C20313C08D3F21F48091C003E7
:104C60008E7F0BC08E3F21F48091C0038D7F05C0E5
:104C70008F3F29F48091C0038B7F8093C003809184
:104C8000C30381110EC08091C40381110AC08091B9
:104C9000C503811106C08091C603811102C0109224
:104CA000BF03089581EC93E00E9494150E9458245C
:104CB0009093BE038093BD030895CF93DF9300D0FC
:104CC00000D000D0CDB7DEB786E0E1ECF3E0DE0146
:104CD000119601900D928A95E1F78091C30381119D
:104CE00005C08091C403882309F47AC08091BB0376
:104CF0009091BC030E946424AC019091BF0399235E
:104D000039F02091250130E02417350758F068C0AC
:104D10002091B8038AE0289F9001112424173507B9
:104D200018F05EC09F3F19F09F5F9093BF031092F1
:104D3000C5031092C6038091C303181624F40E9481
:104D4000E3248093C3038091C30387FF05C00E94BF
:104D5000E32481958093C3038091C403181624F43F
:104D60000E94E3248093C4038091C40387FF05C09D
:104D70000E94E32481958093C4033091C3033323BD
:104D8000E1F02091C4032223C1F045EB3403C001BC
:104D90001124992319F09093C30303C081E08093F9
:104DA000C30335EB2303C0011124992319F0909319
:104DB000C40303C081E08093C4030E945226809103
:104DC000BD039091BE039093BC038093BB0386E028
:104DD000FE013196A1ECB3E001900D928A95E1F7C6
:104DE0008091C503811105C08091C603882309F411
:104DF0007AC08091B9039091BA030E946424AC01F7
:104E00009091BF03992339F02091220130E02417BB
:104E1000350758F068C02091B7038AE0289F9001B9
:104E200011242417350718F05EC09F3F19F09F5FCB
:104E30009093BF031092C3031092C4038091C503E3
:104E4000181624F40E942C258093C5038091C50375
:104E500087FF05C00E942C2581958093C503809112
:104E6000C603181624F40E942C258093C603809153
:104E7000C60387FF05C00E942C2581958093C60339
:104E80003091C5033323E1F02091C6032223C1F002
:104E900045EB3403C0011124992319F09093C50305
:104EA00003C081E08093C50335EB2303C0011124C7
:104EB000992319F09093C60303C081E08093C60341
:104EC0000E9452268091BD039091BE039093BA0335
:104ED0008093B90386E0FE013196A1ECB3E0019026
:104EE0000D928A95E1F726960FB6F894DEBF0FBEB5
:104EF000CDBFDF91CF910895E1ECF3E086E0DF01D3
:104F00001D928A95E9F71092BF031092C00308958D
:104F1000833081F128F4813059F08230D1F0089546
:104F2000853009F449C0B8F1863009F456C00895B7
:104F30008091B803262F30E0280F311D2F3F310517
:104F400024F4680F6093B80308958FEF8093B8033B
:104F5000089580912501262F30E0280F311D2F3F25
:104F6000310524F4680F6093250108958FEF809335
:104F70002501089580912401262F30E0280F311D4E
:104F80002F3F310524F4680F6093240108958FEFBB
:104F900080932401089580912301262F30E0280F6B
:104FA000311D2F3F310524F4680F609323010895CC
:104FB0008FEF80932301089580912101262F30E007
:104FC000280F311D2F3F310524F4680F6093210114
:104FD00008958FEF80932101089580912001262F5D
:104FE00030E0280F311D2F3F310524F4680F609306
:104FF000200108958FEF809320010895833011F1EF
:1050000028F4813049F0823091F00895853081F1A3
:1050100020F18630C1F108958091B803681720F41B
:10502000861B8093B80308951092B8030895809169
:105030002501681720F4861B80932501089510929E
:105040002501089580912401681720F4861B809320
:105050002401089510922401089580912301681776
:1050600020F4861B80932301089510922301089554
:1050700080912101681720F4861B809321010895F7
:1050800010922101089580912001681720F4861B59
:105090008093200108951092200108950F931F938B
:1050A00041E050E060E070E08A019B0104C0000F25
:1050B000111F221F331F8A95D2F7C901B8010E9420
:1050C000A11F1F910F910C94AB1B482F50E0FA01C8
:1050D0003597EF33F10508F06BC0EA56FF4F0C949B
:1050E000C0300E94F22260C08091B303817F8E7F26
:1050F0008093B30381E08093C80308950E94AB1BA3
:105100002FEF83ED90E3215080409040E1F700C005
:1051100000000E94992448C08091B303982F909575
:10512000917090FB80F98093B30391113DC0897F0A
:10513000877F10C08091B30381FB222720F991E083
:10514000922790FB81F98093B303992369F18091B1
:10515000B30381608093B30327C08091B30382FBC4
:10516000222720F991E0922790FB82F9ECCF8091E1
:10517000B30383FB222720F991E0922790FB83F968
:10518000E2CF0E94AB1B80913C0487FB222720F9D1
:1051900091E0922790FB87F980933C0405C08953E6
:1051A00001C08D510E944E2881E0089580E0FACF21
:1051B00080E0089580E008950C94DA288E518A30BA
:1051C00030F4E82FF0E0EA59FD4F8081089580E047
:1051D0000895CF93C82F8091C803813071F018F0E3
:1051E0008230E1F184C00E94A121813151F00E94FE
:1051F000A121823209F07DC004C00E94A121813129
:1052000049F48C2F0E94DC28811109C08C2F0E9448
:10521000652822C00E94A121823221F4F2CF81E0D0
:1052200090E01AC08C2F0E94DA28811114C0C4317A
:1052300079F048F4CB3079F0C03109F05EC082E0FB
:105240008093C80308C0C93219F0C83321F055C093
:105250001092C80352C081E0817051C0C93279F107
:1052600008F5C43161F1A0F4C73009F044C01092D0
:10527000B80384E180932501C09324018CE38093DB
:10528000230188E08093210188E28093200133C0CC
:1052900082EE8C0F863078F58C2F0E94DE2880936A
:1052A000C70329C0CE34E9F020F4CB3421F56AE0FD
:1052B00013C0C13579F0C235F1F461E00DC08091C1
:1052C000C703882319F01092C70315C081E08093AB
:1052D000C80315C061E006C08091C7030E948827FB
:1052E0000AC06AE08091C7030E94FE2704C01092A2
:1052F000C80380E004C081E002C080E0ADCFCF9160
:1053000008958091E9030895CF93DF9300D01F9211
:10531000CDB7DEB790914204943019F589837B8331
:105320006A8382E08093E9008FEF9091E8008150DA
:1053300095FD06C095ED9A95F1F700008111F5CF26
:105340008091E80085FF0DC040E050E063E070E030
:10535000CE0101960E94E02B8091E8008E77809329
:10536000E8000F900F900F90DF91CF910895CF93A9
:10537000DF93EC010E94C32B823011F0843031F4B2
:10538000BE0184E0DF91CF910C948429DF91CF910D
:105390000895BC0183E00C948429CF93DF93EC0142
:1053A0000E94C32B823011F08430F9F482E08093A4
:1053B000E9008FEF9091E800815095FD06C095EDD2
:1053C0009A95F1F700008111F5CF8091E80085FFF3
:1053D0000CC040E050E066E070E0CE010E94E02B9F
:1053E0008091E8008E778093E800DF91CF91089557
:1053F000CF93DF93EC010E94C32B823011F08430F5
:10540000D9F580913001882339F080913C0487FFE1
:1054100003C060E282E002C068E081E08093E900BE
:105420008FEF9091E800815095FD06C095ED9A951B
:10543000F1F700008111F5CF8091E80085FF1CC0D5
:1054400080913001811105C040E050E068E070E0DB
:1054500003C070E040E050E0CE010E94E02B80915C
:10546000E8008E778093E80080E2FE01A9ECB3E0CB
:1054700001900D928A95E1F7DF91CF910895809187
:105480004104811109C00E94712D0E94CE2D80918E
:10549000E20084608093E200089510924104089530
:1054A000089508950C94152442E061EC81E00E9477
:1054B000EA2C42E261EC82E00C94EA2C80914404F4
:1054C000833009F460C030F4813071F0823009F427
:1054D00099C008958A3009F485C08B3009F46BC0F7
:1054E000893009F0A7C020C080914304813A09F0B7
:1054F000A1C08091E800877F8093E80080914704F5
:1055000090914804892B21F460E289EC93E003C078
:1055100060E080E090E070E00E942B2C8091E80039
:105520008B778093E800089580914304813209F0DD
:1055300081C08091470490914804029708F07AC096
:105540008091E800877F8093E8008091E80082FDE9
:1055500005C0809142048111F8CF6CC02091F30006
:105560008091F20090E0922B029729F48091F10053
:105570008B7F813021F48091F1008093E903809149
:10558000E8008B7753C080914304813A09F052C000
:105590008091470490914804892B09F04BC0809179
:1055A000E800877F8093E8008091E80080FFFCCFCF
:1055B0008091300136C0809143048132D9F58091C9
:1055C000470490914804892BA9F58091E800877FD2
:1055D0008093E8000E941F2D809145048093300144
:1055E0000C94AB1B80914304813221F58091E8003B
:1055F000877F8093E8000E941F2D8091460480934E
:10560000EA03089580914304813AA1F48091E8006F
:10561000877F8093E8008091E80080FFFCCF809135
:10562000EA038093F1008091E8008E778093E80090
:105630000C941F2D089584B7877F84BF0FB6F8940C
:10564000A89580916000886180936000109260004E
:105650000FBE90E080E80FB6F894809361009093BD
:1056600061000FBE0E94DE150E94712D0E94CE2D9A
:105670008091E20084608093E20078940E9463301D
:105680000E94E81586E291E00E946915809142042B
:10569000853069F40E94D223809140048823B1F3BD
:1056A0000E94BA23882391F30E94CA2BEFCF0E9455
:1056B000F215ECCF0C945C2B292F332723303105C6
:1056C000C9F060F42130310581F02230310509F054
:1056D0004AC08BE390E02AE036E049C02132310530
:1056E00011F12232310579F13EC082E190E025E4EA
:1056F00036E03DC099278130910561F040F082305D
:10570000910559F0039779F5E0EDF5E008C0E6E082
:10571000F6E005C0EEEEF5E002C0E6EDF5E08491BE
:1057200090E09F0124C06115710541F06130710561
:10573000D1F489E090E025E336E019C089E090E0FB
:105740002CE136E014C06115710541F0613071053E
:1057500051F48CEB90E027E536E009C080E490E05E
:1057600023E137E004C080E090E020E030E0FA017F
:1057700031832083089580914204843011F081E0C8
:10578000089582E008958091EB03811102C00C948A
:10579000BB2B089580E189BD82E189BD09B400FE7B
:1057A000FDCF8091D8008F7D8093D8008091E0005C
:1057B00082608093E0008091E00081FDFCCF08953D
:1057C000CF92DF92EF92FF920F931F93CF93DF93CD
:1057D000EC018B017A010E943E2D811133C0E1144E
:1057E000F10439F0F70180819181081B190BC80F72
:1057F000D91FC12CD12C0115110519F18091E80098
:1058000085FD16C08091E8008E778093E800E11452
:10581000F10449F0F70180819181C80ED91ED1822F
:10582000C08285E00FC00E943E2D882321F30AC06C
:1058300089918093F10001501109FFEFCF1ADF0A1F
:10584000DACF80E0DF91CF911F910F91FF90EF9021
:10585000DF90CF9008952091490430914A04261793
:10586000370748F06115710539F42091E8002E776B
:105870002093E80001C0B901FC0120E06115710529
:1058800079F1809142048823F1F18530F1F1809122
:10589000E80083FD3CC08091E80082FD2EC080912D
:1058A000E80080FFEBCF2091F3008091F20090E0C0
:1058B000922B6115710551F08830910538F42191D2
:1058C0002093F100615071090196F3CF21E0089710
:1058D00009F020E08091E8008E778093E800CECF39
:1058E0002111CFCF0AC080914204882361F0853016
:1058F00061F08091E80083FD0AC08091E80082FF9A
:10590000F2CF80E0089582E0089583E0089581E079
:1059100008952091490430914A042617370748F02A
:105920006115710539F42091E8002E772093E80085
:1059300001C0B901FC0120E06115710591F1809170
:105940004204882309F440C0853009F43FC08091A7
:10595000E80083FD3DC08091E80082FD2FC080916A
:10596000E80080FFE9CF2091F3008091F20090E001
:10597000922B6115710559F08830910540F42491FE
:105980002093F1003196615071090196F2CF21E028
:10599000089709F020E08091E8008E778093E80076
:1059A000CBCF2111CCCF0AC080914204882361F073
:1059B000853061F08091E80083FD0AC08091E800A5
:1059C00082FFF2CF80E0089582E0089583E0089599
:1059D00081E00895982F973068F59093E900981723
:1059E00039F07091EC002091ED005091F00003C06F
:1059F000242F762F50E021FD02C09F5FECCF309125
:105A0000EB003E7F3093EB003091ED003D7F309313
:105A1000ED003091EB0031603093EB007093EC00BF
:105A20002093ED005093F0002091EE0027FDE5CF8C
:105A300080E008958F708093E90081E0089580915F
:105A4000430487FF11C08091E80082FD05C080916A
:105A500042048111F8CF11C08091E8008B770BC010
:105A600080914204882349F08091E80080FFF8CFBC
:105A70008091E8008E778093E80008952091E400FB
:105A80003091E50095E64091EC00842F817040FF55
:105A900023C08091E80080FD1DC0809142048823CE
:105AA00099F0853099F08091EB0085FD11C040910F
:105AB000E4005091E5002417350729F3915011F0C7
:105AC0009A01E1CF84E0089582E0089583E008958B
:105AD00081E0089580E008954091E80042FFDDCF25
